:020000040800F2
:10000000B0070020890100082B170008F71400082A
:1000100029170008C5020008631A00080000000044
:10002000000000000000000000000000871700082A
:100030001D0300080000000085170008BD17000818
:10004000A3010008A3010008A3010008A301000800
:10005000A3010008A30100081F030008A301000872
:10006000A3010008A3010008A3010008A3010008E0
:10007000A3010008A3010008A3010008A3010008D0
:10008000A3010008A3010008A3010008A3010008C0
:10009000A3010008A3010008A3010008A3010008B0
:1000A000A3010008A3010008A3010008A3010008A0
:1000B00015180008A3010008A3010008A301000807
:1000C000A3010008A3010008A3010008A301000880
:1000D000A3010008A3010008A3010008A301000870
:1000E000A3010008A3010008A301000800F002F822
:1000F00000F03AF80AA090E8000C82448344AAF188
:100100000107DA4501D100F02FF8AFF2090EBAE885
:100110000F0013F0010F18BFFB1A43F0010318473B
:10012000041E0000241E0000103A24BF78C878C1C5
:10013000FAD8520724BF30C830C144BF04680C60ED
:10014000704700000023002400250026103A28BF35
:1001500078C1FBD8520728BF30C148BF0B60704739
:100160001FB51FBD10B510BD00F058F81146FFF7C0
:10017000F7FF01F087FC00F076F803B4FFF7F2FF19
:1001800003BC00F07DF8000009488047094800479B
:10019000FEE7FEE7FEE7FEE7FEE7FEE7FEE7FEE737
:1001A000FEE7FEE704480549054A064B7047000094
:1001B00011180008ED000008B0010020B007002071
:1001C000B0030020B00300204FF0000200B513463A
:1001D00094469646203922BFA0E80C50A0E80C5067
:1001E000B1F12001BFF4F7AF090728BFA0E80C5018
:1001F00048BF0CC05DF804EB890028BF40F8042B11
:1002000008BF704748BF20F8022B11F0804F18BF7D
:1002100000F8012B7047704770477047754600F033
:100220002BF8AE4605006946534620F00700854688
:1002300018B020B5FFF7B6FFBDE820404FF000062C
:100240004FF000074FF000084FF0000B21F00701BE
:10025000AC46ACE8C009ACE8C009ACE8C009ACE801
:10026000C0098D46704710B50446AFF300802046A4
:10027000BDE81040FFF781BF0048704750010020E3
:1002800001491820ABBEFEE72600020070470000BF
:1002900010B50B4C01224021204600F060F90022ED
:1002A0008021204600F05BF901220821204600F061
:1002B00056F920460022BDE81040102100F04FB949
:1002C00000080140FEE7000010B5124CE068B0F5F0
:1002D000000F06DB00F026F8E26808210E4801F066
:1002E00025FAE06810F1FF4F06D3FFF7D1FFE2686F
:1002F0000821094801F01AFAE06810F0FF4F08D110
:1003000001F042FAE268BDE810400821024801F01D
:100310000DBA10BD00000020080100207047012028
:1003200000F01CB810B50B4C00224021204600F014
:1003300016F901228021204600F011F9002208213F
:10034000204600F00CF920460122BDE810401021A3
:1003500000F005B90008014070470000044910B5DD
:100360000A68024202D00860FFF7F6FF10BD0000E5
:10037000140401402DE9F84FDFF8B8910024A9F1E9
:10038000040B23460F2709F1040AABF1040EC9E060
:100390000125A5402A40AA427DD1674ED1F804C06C
:1003A000ACEB0608B44532D014DCBCF1030F3AD0F4
:1003B00009DCBCF1000F2AD0BCF1010F1CD0BCF14C
:1003C000020F31D11DE0BCF1110F17D0BCF1120F9B
:1003D0002AD119E0B8F5881F19D006DCB8F5803F9E
:1003E00015D0B8F5801F1FD111E0B8F5001F0ED051
:1003F000B8F5041F18D10AE0CB6815E0CB681B1DC7
:1004000012E0CB6808330FE0CB680C330CE08B684C
:100410002BB1012B4FF0080303D0456104E0042306
:1004200002E0056100E00023FF2A01D8064601E052
:1004300000F104064FEA840501D9A5F12005D6F89C
:10044000008007FA05FC28EA0C0803FA05F548EADB
:100450000508C6F800804D68ED0062D5374DAE69DD
:1004600046F00106AE61AD6924F0030605F0010512
:100470000095334D06EB050CDCF80850A607360F47
:1004800007FA06F825EA0805DFF8B880404503D1E9
:100490004FF0000817E044E0DFF8AC80404502D19F
:1004A0004FF001080FE0DFF8A480404502D14FF083
:1004B000020808E0DFF89880404502D14FF00308B9
:1004C00001E04FF0040808FA06F848EA0508CCF8FD
:1004D00008804D68D9F80060ED024D4601D51643FD
:1004E00000E096432E604D68DAF80060AD02554694
:1004F00001D5164300E096432E604D68DBF800609E
:10050000AD035D4601D5164300E096432E604D686D
:10051000DEF80060ED03754601D5164300E0964312
:100520002E60641C0D682A46E5407FF431AFBDE8BB
:10053000F88F000008040140000011100010024074
:100540000000014000080140000C01400010014083
:10055000001401408068084000D0012070470AB1B3
:10056000016170470904FBE701488068704700009B
:100570001400002070B5040025D094F83D0000253B
:1005800020B984F83C50204600F0B8F8242084F8C4
:100590003D002068016821F00101016020680168C8
:1005A00041F4004101602068016821F400410160CC
:1005B00000F000FA4D4A6168914201D84C4900E0D0
:1005C0004C49884201D2012070BD4B492368B0FBE1
:1005D000F1F15E6826F03F060E435E606368934269
:1005E00006D94FF4967359434FF47A73B1FBF3F184
:1005F0002368491C1E6A26F03F0631431962616870
:10060000914210D84900401EB0FBF1F2521CC2F3D7
:100610000B02042A01D2042022E0B0FBF1F0401CBE
:10062000C0F30B001CE0A268F2B301EBC10303EBC3
:100630000116431EB3FBF6F35B1C43F480431B051A
:1006400049D092B301EBC10202EB0111401EB0FB95
:10065000F1F0401CC0F30B0040F4804040F4004037
:100660002168CA694CF6FF739A431043C861D4E904
:10067000071001432068026822F0C00211430160A4
:10068000D4E9030101432068826848F2FF339A43AA
:1006900011438160D4E9050108432168CA6822F04A
:1006A000FF021043C86001E00EE016E02068016818
:1006B00041F0010101602564202084F83D0025639C
:1006C00084F83E50002070BD01EB4106431EB3FB91
:1006D000F6F35B1CB3E70120C2E701EB4101401ECA
:1006E000B0FBF1F0401CC0F30B00B7E7A08601009F
:1006F00080841E0000093D0040420F0010B586B006
:100700000021009101910291039100680F498842F4
:100710001AD10F4CA06940F00800A061A069694699
:1007200000F008000490C0200090122001900320E7
:1007300003900848FFF71EFEE06940F40010E061F6
:10074000E06900F40010049006B010BD00540040B1
:1007500000100240000C01400248816802781144F8
:100760008160704714000020074810B5016841F00F
:1007700010010160032000F075F80F2000F006F86A
:1007800000F024F8002010BD0020024070B50D4D8F
:1007900004464FF47A712878B1FBF0F00A490968F1
:1007A000B1FBF0F000F0CCFA48B9102C07D20022CF
:1007B0002146501E00F036F800206C6070BD01200C
:1007C00070BD000014000020200000200C4808B577
:1007D000816941F001018161816901F001010091AC
:1007E000C16941F08051C161C06900F08050009042
:1007F0000448416821F0E06141F00071416008BDAA
:100800000010024000000140002809DB00F01F0238
:10081000012191404009800000F1E020C0F8001162
:1008200070470000F0B40E4B1B680C46C3F3022364
:10083000C3F10705042D00D90425191D072901D28C
:10084000002300E0DB1E012606FA05F1491E2140C7
:1008500099409E40761E16403143F0BC01F002B92B
:100860000CED00E0064900F0070208684FF6FF03B0
:10087000184040EA0220034A104308607047000015
:100880000CED00E00000FA052DE9F0470F460500E9
:1008900061D0434E306800F00700B84209D230689A
:1008A00020F0070038433060306800F00700B8429D
:1008B00051D128683B4C810712D5400703D56068A9
:1008C00040F4E06060602878000703D5606840F479
:1008D000605060606068A96820F0F00008436060C4
:1008E0002878C00728D06868012810D0216802281D
:1008F00010D0890700292EDA616821F00301014335
:100900006160FFF731FE804641F288390DE02168D1
:100910008903EFE78901EDE7FFF726FEA0EB080169
:10092000494502D90320BDE8F0876068696800F096
:100930000C00B0EB810FEFD1306800F00700B84237
:100940000BD9306820F0070038433060306800F081
:100950000700B84201D00120E5E72878400705D517
:100960006068E96820F4E060084360602878000768
:1009700006D56068296920F4605040EAC1006060D3
:1009800000F028F86168084AC1F30311515CC840BF
:100990000649086006480068FFF7F8FE0020C2E735
:1009A00000200240001002400A1F00082000002022
:1009B000180000200448054900684968044AC1F34A
:1009C0000221515CC8407047200000200010024006
:1009D0001A1F00080E4A51680E4801F00C03042B40
:1009E00011D0082B0FD10C48C1F38343C903C05C5D
:1009F0000AD55168084AC1F34041921E515C054A2C
:100A00005043B0FBF1F07047044948437047000081
:100A10000010024000127A00FA1E000800093D0092
:100A20002DE9F84F040070D02078C04DC00749D0A0
:100A30006868C0F38100012807D06868C0F38100AE
:100A4000022809D16868C00306D52868800339D513
:100A500060680028E7D035E06068B0F5803F0BD0D3
:100A600010B1B0F5A02F11D0286820F48030286094
:100A7000286820F4802002E0286840F48030286054
:100A8000606890B1FFF770FD06460AE0286840F400
:100A900080202860F0E700BFFFF766FD801B642818
:100AA00073D828688003F7D50CE0FFF75DFD064694
:100AB00005E000BFFFF758FD801B6428F0D82868C8
:100AC0008003F7D420789A4E80074FF001094FF049
:100AD000000839D5686810F00C0F07D06868C0F3BB
:100AE0008100022809D16868C00306D428688007FD
:100AF00014D52069012808D110E02069B0B1C6F8EA
:100B00000090FFF731FD074605E00AE1FFF72CFDF5
:100B1000C01B0228C4D828688007F7D528686169F7
:100B200020F0F80040EAC10028600DE0C6F800801F
:100B3000FFF71AFD074604E0FFF716FDC01B022869
:100B400023D828688007F7D4207800072CD5794867
:100B5000A169D9B1C0F80090FFF706FD074604E08F
:100B6000FFF702FDC01B02280FD8686A8007F7D57F
:100B700071484FF4FA510068B0FBF1F0009000BFEB
:100B80000098411E0091FAD20EE080E0C0F800808B
:100B9000FFF7EAFC074604E0FFF7E6FCC01B02286B
:100BA00075D8686A8007F7D42078400760D5E8696F
:100BB0000027C00008D4E86940F08050E861E86987
:100BC000012700F0805000905C480168C90513D4EB
:100BD0000168834641F480710160FFF7C5FC8246DD
:100BE00006E000BFFFF7C0FCA0EB0A0064284ED867
:100BF000DBF80000C005F5D5E06801280AD008B18F
:100C0000052813D0286A20F001002862286A20F005
:100C1000040002E0286A40F001002862E06841F226
:100C2000883B98B1FFF7A0FC82460BE0286A40F0B1
:100C300004002862EEE700BFFFF796FCA0EB0A0174
:100C400059455AD8286A8007F6D50CE0FFF78CFC86
:100C5000824605E0FFF788FCA0EB0A0159454CD815
:100C6000286A8007F6D41FB1E86920F08050E86157
:100C7000E06988B36968C1F38101022944D0022880
:100C8000C6F8608004D0FFF76FFC044638E034E01B
:100C9000FFF76AFC074604E0FFF766FCC01B02286A
:100CA0002BD828688001F7D4206AB0F5803F05D1A1
:100CB0006868A16820F4003008436860D4E908013E
:100CC0000843696821F4741108436860C6F86090AD
:100CD000FFF74AFC044606E025E000BFFFF744FCAE
:100CE000001B022809D828688001F7D51BE000BF47
:100CF000FFF73AFC001B022802D90320BDE8F88F59
:100D000028688001F4D40EE00128F7D06868226AD0
:100D100000F48031914204D1616A00F4701088427D
:100D200001D00120EAE70020E8E7000000100240BF
:100D30000000424280044242200000200070004037
:100D400010B5401EB0F1807F01D3012010BD4FF0DF
:100D5000E02460610F21601700F084FE0020A06194
:100D600007202061002010BD7047704770B590F8D3
:100D70003C20012A26D0012480F83C40022280F841
:100D80003D2003685A689D6822F070060A68324365
:100D90005A600D4B02689A4208D0B2F1804F05D0DC
:100DA0000A4B9A4202D00A4B9A4204D1496825F074
:100DB00080031943916080F83D40002180F83C1089
:100DC000084670BD022070BD002C014000040040A8
:100DD0000008004010B5040003D094F83D0010B1A5
:100DE00007E0012010BD002084F83C00204600F000
:100DF0001FF8022084F83D00211D206800F010FD3E
:100E0000012084F8460084F83E0084F83F0084F80E
:100E1000400084F8410084F8420084F8430084F8DC
:100E2000440084F8450084F83D00002010BD000017
:100E300008B501681048B1F1804F0BD00F4A9142BC
:100E400007D1C16941F00401C161C06900F004002B
:100E5000009008BDC16941F00101C161C069002273
:100E600000F00100009011461C20FFF7DBFCBDE8FC
:100E700008401C20FFF7C8BC0010024000080040DA
:100E800090F83D10012901D001207047022180F81F
:100E90003D100168CA6842F00102CA6000680B494F
:100EA000884208D0B0F1804F05D00949884202D06D
:100EB0000849884204D1816801F00701062903D05E
:100EC000016841F00101016000207047002C0140E1
:100ED000000400400008004070B5044690F83C0053
:100EE0000025012817D0012684F83C60022084F8F0
:100EF0003D002068826822F0770222F47F428260FF
:100F00000868502838D00DDC20284FD005DC90B37D
:100F1000102811D14AE0022070BD302846D0402868
:100F20000AD13BE060282FD070280DD0B0F5805F4B
:100F300003D0B0F5005F12D0012584F83D60002099
:100F400084F83C00284670BDCB68D1E901212068B7
:100F500000F0AFFC2068816841F0770109E0CB68C0
:100F6000D1E90121206800F0A4FC2068816841F4E7
:100F700080418160E1E719E0CA684968206800F0B3
:100F80004DFD5021206806E0CA684968206800F0DD
:100F900056FD6021206800F096FCCEE7CA684968DB
:100FA000206800F03BFD40212068F4E722680146FC
:100FB0001046F0E72DE9F0410D46040003D094F807
:100FC0003D0018B108E00120BDE8F081002084F860
:100FD0003C00204600F040F8022084F83D002068E4
:100FE000816844F2070291438160211D206800F06E
:100FF00017FC226890689169166A2B68AF690343F1
:1010000040F20330814341EA0721A868EF690843B1
:101010004FF6FC418843E96840EA0720014328690C
:101020002F6A000140EA0730084369686D6926F0BD
:10103000220646EA0515294393602268906154F818
:10104000460B0162012004F81F09E0752076E07666
:101050002077A0750020B7E700B585B0002100918A
:101060000191029103910068124988421FD11248F0
:10107000C16941F00201C161C16901F0020104913D
:10108000816941F0080181618069694600F00800CA
:101090000490302000900948FFF76CF90848416837
:1010A00021F4406141F0E06141F40061416005B02C
:1010B00000BD00000004004000100240000C014090
:1010C0000000014070B590F83E60044690F83F5033
:1010D00090F8423090F84320022021B104290ED02C
:1010E000012E1BD114E0012E18D1012B16D184F84A
:1010F0003E0084F8420001220021206820E0012DFA
:101100000CD1012A0AD184F83F0084F8430014E08E
:10111000012D03D1012B01D1012A01D0012070BD85
:1011200084F83E0084F83F0084F8420084F84300CD
:1011300001220021206800F0AFFB01220421206879
:1011400000F0AAFB2068016841F001010160002065
:1011500070BD70472DE9F04104460068C668056916
:101160004FF00007A90713D5B10711D5F91E01618A
:1011700001202077206880698007204602D0FFF791
:10118000E8FF04E000F0A4F8204600F036F92777E5
:10119000680716D5700714D521686FF00400086140
:1011A000022020772068806910F4407F204602D01A
:1011B000FFF7CFFF04E000F08BF8204600F01DF9A8
:1011C0002777280715D5300713D521686FF0080059
:1011D0000861042020772068C0698007204602D07B
:1011E000FFF7B7FF04E000F073F8204600F005F9C0
:1011F0002777E80616D5F00614D521686FF01000A1
:101200000861082020772068C06910F4407F2046DC
:1012100002D0FFF79EFF04E000F05AF8204600F0ED
:10122000ECF82777E80708D0F00706D021686FF0C0
:1012300001000861204600F02FF9280608D5300685
:1012400006D521686FF0800008612046FFF78CFD0D
:10125000680608D5700606D521686FF04000086161
:10126000204600F047F9A8060AD5B00608D521683F
:101270006FF0200008612046BDE8F041FFF775BD22
:10128000BDE8F08100B585B0002100910191029187
:10129000039100680B49884212D10B48816941F0E3
:1012A000080181618069694600F0080004904FF4EC
:1012B000407000900220019003900448FFF75AF814
:1012C00005B000BD0008004000100240000C0140C5
:1012D000704770B5044690F83C0000260D46012882
:1012E0000FD0012084F83C006AB1042A1DD0082ADE
:1012F0002FD00C2A3FD00126002084F83C00304635
:1013000070BD022070BD206800F0E6FA2068816997
:1013100041F0080181612068816921F00401816147
:10132000206881692A69114311E0206800F0FCFA05
:101330002068816941F4006181612068816921F43C
:1013400080618161206881692A6941EA02218161A5
:10135000D2E7206800F014FB2068C16941F0080161
:10136000C1612068C16921F00401C1612068C169BF
:101370002A69114311E0206800F02EFB2068C16942
:1013800041F40061C1612068C16921F48061C161DB
:101390002068C1692A6941EA0221C161ACE710B540
:1013A000040003D094F83D0010B107E0012010BD07
:1013B000002084F83C00204600F01EF8022084F84B
:1013C0003D00211D206800F02BFA012084F8460022
:1013D00084F83E0084F83F0084F8400084F841001F
:1013E00084F8420084F8430084F8440084F84500FF
:1013F00084F83D00002010BD7047704710B50446CA
:10140000022249B104290ED0082913D094F84100D2
:10141000012816D0012010BD94F83E000128F9D112
:1014200084F83E200FE094F83F000128F2D184F8C0
:101430003F2008E094F840000128EBD184F84020D8
:1014400001E084F841200122206800F025FA0F49CC
:101450002068884203D1426C42F400424264206812
:10146000884208D0B0F1804F05D00949884202D0A7
:101470000849884204D1816801F00701062903D098
:10148000016841F001010160002010BD002C014005
:101490000004004000080040124810B50068406A8F
:1014A000114C20802088E0802089E188401A6080EB
:1014B000B4F9020000F028FC216900F051FCE06062
:1014C000E1680A48814200DDE060E1680848814245
:1014D00000D9E0606088A08000202080BDE8104036
:1014E000FEF7F2BEC0000020000000200000024510
:1014F000000002C57047FEE770B586B0002428489A
:101500000094019402940394816941F02001816167
:10151000816901F020010491816941F00401816138
:10152000816901F004010491816941F00801816140
:1015300080691C4E00F0080004900022FC21304617
:10154000FFF70DF8012518480095CDE9010469461B
:101550003046FEF70FFF0220CDE900046946304611
:101560000294FEF707FFFC20CDE900050320CDE93A
:10157000024069463046FEF7FDFE4FF46040CDE97B
:101580000004694609480294FEF7F4FE0022114661
:101590000620FFF747F90620FFF736F906B070BDC1
:1015A000001002400008014000002110000C014022
:1015B00010B586B000241648009401940294039458
:1015C00004944FF08041059401600821C0E90114A2
:1015D00042F21071C0E903148461FFF7FBFB08B10C
:1015E00072B6FEE74FF48050009069460848FFF756
:1015F00073FC08B172B6FEE7049404A9044805948C
:10160000FFF7B4FB002801D072B6FEE706B010BDAC
:101610007800002010B58CB024216846FEF7D4FD78
:1016200000241648099414490A94C0E900144FF69E
:10163000FF71C0E90241046184610320CDE9000427
:101640000120CDE902040494CDE9054007946946E0
:101650000A480894FFF7AEFC08B172B6FEE7099499
:1016600009A906480A94FFF781FB002801D072B649
:10167000FEE70CB010BD000000040040C0000020D8
:1016800010B58EB000240794089409940A940B9422
:101690001C2168460C94FEF797FD22482049016002
:1016A0000821C0E901144FF47A71C0E90314846180
:1016B000FFF790FB08B172B6FEE74FF48050079039
:1016C00007A91848FFF708FC08B172B6FEE71548ED
:1016D000FFF765FE08B172B6FEE70B940BA911483F
:1016E0000C94FFF743FB08B172B6FEE76020CDE92A
:1016F00000040294082269460A480494FFF7E9FDB1
:1017000008B172B6FEE70C2269460648FFF7E1FD14
:1017100008B172B6FEE70348FFF7B4FD0EB010BD86
:101720000008004008010020FEE7FEE72DE9F04137
:10173000046817460D46E06A00F0FEFA06461049B6
:10174000384600F0FFF9314600F00AFB4DB1042D98
:101750000CD0082D0FD000F0B7FA80B22064BDE89D
:10176000F08100F0B1FA80B26063F8E700F0ACFA03
:1017700080B2A063F3E700F0A7FA80B2E063EEE77F
:101780000000C8427047704710B50B4C0022402142
:101790002046FEF7E4FE002280212046FEF7DFFE11
:1017A000002208212046FEF7DAFE20460022BDE88E
:1017B00010401021FEF7D3BE00080140FEF7CCBF59
:1017C00010B590B028216846FEF7FEFC14210AA847
:1017D000FEF7FAFC02200090012004901020002463
:1017E000059007946846FFF71BF908B172B6FEE74B
:1017F0000F20CDE90A040C940D9400210AA80E9440
:10180000FFF742F8002801D072B6FEE710B010BD15
:10181000704700000148FFF79DBC000078000020E1
:10182000F0B50268194B1A4C1A4D4FF08047984298
:1018300005D0B84203D0A04201D0A84203D122F083
:1018400070064A683243984205D0B84203D0A0429D
:1018500001D0A84203D122F44074CA6822434C69E3
:1018600022F08002224302608A68C2620A688262B1
:10187000984201D109690163012141610169C907E8
:1018800003D0016921F001010161F0BD002C01408C
:10189000000400400008004010B501F01F030121C2
:1018A000046A99408C430462016A9A4011430162C0
:1018B00010BD10B5846842EA032224F47F440A4331
:1018C0002243826010BD826822F070020A4342F017
:1018D000070181607047000030B5036A026A22F098
:1018E000010202624268846924F073050C682C438B
:1018F00023F002058B682B430A4DA8420BD123F03D
:101900000805CB6822F440722B434D6923F0040391
:1019100015438A692A4342608461496841630362CE
:1019200030BD0000002C014030B5026A036A23F08C
:1019300010030362436884690D6824F4E64444EAB2
:1019400005248D6822F0200242EA05120B4DA842C0
:101950000ED1CD6822F0800242EA05124D6923F4CF
:10196000406343EA85038D6922F0400243EA850320
:101970004360846149688163026230BD002C01408C
:1019800030B5036A026A22F4807202624268C46956
:1019900023F4007324F073050C682C438D6843EA2C
:1019A00005230C4DA8420ED1CD6823F4006343EA11
:1019B00005234D6922F4405242EA05128D6923F451
:1019C000806342EA05124260C4614968C1630362F0
:1019D00030BD0000002C014030B5046A026A22F4D8
:1019E000805202624268C3690D6823F4E64343EA09
:1019F00005238D6824F4005444EA0534064DA842BA
:101A000004D14D6922F4804242EA85124260C361EA
:101A100049680164046230BD002C014010B5036ABE
:101A2000046A24F001040462846924F0F00444EAA6
:101A3000021423F00A020A438461026210BD10B549
:101A4000036A046A24F010040462846923F0A0038A
:101A500024F4704444EA023243EA011182610162D3
:101A600010BDFEE70907090E002804DB00F1E020A5
:101A700080F80014704700F00F0000F1E02080F8BB
:101A8000141D7047FEF770FEFFF79AFEFFF734FD56
:101A9000284827494FF480450160274941600021CB
:101AA0008160C0E9031541618161C1610162FEF796
:101AB00061FD08B172B6FEE7FFF77AFDFFF7E0FDC2
:101AC000FFF7A8FD1B4804219C30FFF7FBFA1948DB
:101AD0005430FFF7D5F917480821E430FFF78EFCA2
:101AE0001448164A0C21E430FFF720FE4FF400564C
:101AF000134CB70031462046FEF72CFD18B1314695
:101B00002046FEF727FD29462046FEF723FD18B1A3
:101B100029462046FEF71EFD39462046FEF71AFDEF
:101B20000028E7D039462046FEF714FDE2E7000022
:101B30000054004024000020A08601000000C8429C
:101B4000000C01404FF47F0C1CEAD0121EBF1CEAAF
:101B5000D11392EA0C0F93EA0C0F00F0858090EA03
:101B6000010F48BF42F4807240F4000C41F40000C1
:101B70002CF07F4120F07F4000B58142A2EB0302B0
:101B80000FF2081CACEB504EC0F100009EF800E0D4
:101B90004FEA4E0E00FB0EFC38BF49004FEA2C1CEA
:101BA00002F5FA020CFB0EF34FEACE1E4FEA112C9F
:101BB0004FEAC1210EEB635E42EB22420EFB0CFCAE
:101BC0004FEA1C5300FB03114FEA112C4FEA01317D
:101BD0000EFB0CFC4FEADC4C00FB0C11C14228BF91
:101BE00009184CEB03335DF804EB10EB410143EBB8
:101BF000C250B2F57C0F38BF704729D512F0F00FF4
:101C00001CBF00F1C04000F000407047008182839B
:101C10008485868788898B8C8D8E8F9192939596FB
:101C200097999A9C9D9FA0A2A3A5A7A8AAACAEB085
:101C3000B2B3B5B7B9BCBEC0C2C5C7C9CCCED1D48A
:101C4000D7D9DCDFE2E6E9ECF0F3F7FAFE000000BA
:101C50004FEA400C0CF1807CBCF17E4F28BF7047EE
:101C6000B0F1C04000F043B990EA010F0CEAD11383
:101C700048BF42F48072624538BF634507D213F40F
:101C80007F0F16D080EA010000F00040704710B5C9
:101C900000F0E7F8097EFC3E00F005B880EA01009C
:101CA00000F00040704780EA010000F0004000F0C2
:101CB0001EB912F47F0F04BF0248704780EA01008A
:101CC00000F015B90000C07FC10DD1F19E0206DB06
:101CD0004FEA002343F0004323FA02F0704700422A
:101CE00007D54FEA4001B1F1FE4F02D24FF000009C
:101CF000704710B500F0B5F8499224800020704775
:101D00006FEA20007047000010F0004148BF4042D9
:101D1000B0FA80F310FA03F2C3F19D030BD051EA3D
:101D2000C35101EB1220530638BF704700F1010088
:101D300008BF20F001007047B0FA80F310FA03F2F8
:101D4000C3F19D030AD0D90501EB1220530638BF19
:101D5000704700F1010008BF20F00100704700004B
:101D60004FF47F0C1CEAD0121EBF1CEAD11392EA7A
:101D70000C0F93EA0C0F00F0478090EA010F48BF68
:101D800042F480724FF0004C4CEA00204CEA0121F2
:101D900002EB0302A0FB0113A2F50002002918BF09
:101DA00043F001035B0028BF4FEA330342EB2242BA
:101DB0005FEA132C4CEBC2502EBFBCEB436FB2F565
:101DC0007C0F70474FEA036CBCF1004F08BF20F056
:101DD0000100B2F57C0F38BF70470BD582F0FF02CF
:101DE00012F5803FC8BF704700F1C040D8BF00F077
:101DF0000040704700F5000C5FEA4C0C48BF70478C
:101E0000B0F1C04000F073B890EA010F0CEAD113B2
:101E100048BF42F48072624538BF634504D280EA0D
:101E2000010000F00040704710B500F01AF800BF44
:101E30008900013E00F007B800F009B85FEA410CE4
:101E40005FEA1C6C08D080EA010000F050B85FEA3D
:101E5000400C5FEA1C6CF6D14FF00040A0F580000A
:101E600070470EF1020E2EF0030E5EF8044B244272
:101E700004D44FEA4102B2F17F4F11D84FEA400338
:101E8000B3F17F4F0CD80ED14FEAD07CB2F17F4F27
:101E90000CEB4C0C0CF1020C08BF4CEBD17C04E0B9
:101EA0004FF0080C01E04FEAD17C0CEB4C0324FA14
:101EB00003F404F00704B4F1040C06D20EEB840C16
:101EC000BDE810404CF0010C6047DFE80CF007085B
:101ED00002024FF00040A0F5800010BD084642000D
:101EE00018BFD2F1807288BF00F0004010BDFF2102
:101EF00041EAD050C00570470102020304050607FD
:101F000008090A0B0C0D0E0F101000000000000055
:101F10000000010203040607080900000000010296
:101F200003040000441F00080000002024000000FB
:101F300028010008681F0008240000208C0700000A
:101F4000440100080000000000000000D00700006D
:101F500000000000C3F5A83E0100000010000000D2
:081F60000000000000127A00ED
:04000005080000ED02
:00000001FF
