:020000040800F2
:100000001808002089010008CB1D0008271B0008E4
:10001000C91D0008090400081F2100080000000095
:100020000000000000000000000000002B1E00087F
:100030004304000800000000291E0008611E00089B
:10004000A3010008A3010008A3010008A301000800
:10005000A3010008A3010008A3010008A3010008F0
:10006000A3010008A3010008A30100080D04000873
:10007000A3010008A3010008A3010008A3010008D0
:10008000A3010008A3010008A3010008A3010008C0
:10009000A3010008A3010008A3010008A3010008B0
:1000A000A3010008A3010008A3010008A3010008A0
:1000B000D11E0008A3010008A3010008A301000845
:1000C000A3010008A3010008A3010008A301000880
:1000D000A3010008A3010008A3010008A301000870
:1000E000A3010008A3010008A301000800F002F822
:1000F00000F03AF80AA090E8000C82448344AAF188
:100100000107DA4501D100F02FF8AFF2090EBAE885
:100110000F0013F0010F18BFFB1A43F0010318473B
:100120004C2400006C240000103A24BF78C878C129
:10013000FAD8520724BF30C830C144BF04680C60ED
:10014000704700000023002400250026103A28BF35
:1001500078C1FBD8520728BF30C148BF0B60704739
:100160001FB51FBD10B510BD00F058F81146FFF7C0
:10017000F7FF01F0E5FF00F076F803B4FFF7F2FFB8
:1001800003BC00F07DF8000009488047094800479B
:10019000FEE7FEE7FEE7FEE7FEE7FEE7FEE7FEE737
:1001A000FEE7FEE704480549054A064B7047000094
:1001B000CD1E0008ED0000081802002018080020DD
:1001C00018040020180400204FF0000200B5134668
:1001D00094469646203922BFA0E80C50A0E80C5067
:1001E000B1F12001BFF4F7AF090728BFA0E80C5018
:1001F00048BF0CC05DF804EB890028BF40F8042B11
:1002000008BF704748BF20F8022B11F0804F18BF7D
:1002100000F8012B7047704770477047754600F033
:100220002BF8AE4605006946534620F00700854688
:1002300018B020B5FFF7B6FFBDE820404FF000062C
:100240004FF000074FF000084FF0000B21F00701BE
:10025000AC46ACE8C009ACE8C009ACE8C009ACE801
:10026000C0098D46704710B50446AFF300802046A4
:10027000BDE81040FFF781BF00487047B80100207B
:1002800001491820ABBEFEE72600020070470000BF
:1002900070B5044600688168C943C90717D18168F1
:1002A00021F00101816000F01BFD05460AE000BF5E
:1002B00000F016FD401B022804D920688068C04366
:1002C000C00706D020688068C043C007F0D0002077
:1002D00070BDA06A40F01000A062E06A40F001002A
:1002E000E062012070BD10B50146406A826A12F0DA
:1002F000500F05D0006A026BBDE810400846104759
:10030000816A41F40071816201688968C1F34241E8
:1003100007290CD1017B51B9816A21F48071816276
:10032000816AC90403D4816A41F00101816200F04D
:1003300023F910BD10B5406A816A41F04001816225
:10034000C16A41F00401C16200F018F910BD10B596
:10035000406A00F012F910BDF8B500260446009678
:1003600000688168C943C9072DD0816841F0010147
:100370008160164816490068B0FBF1F000E0401EAD
:1003800000900028FBD100F0ABFC054616E000BF52
:1003900000F0A6FC401B022810D920688068C043EA
:1003A000C0070BD0A06A40F01000A062E06A40F0E5
:1003B0000100E06284F824600120F8BD20688068B4
:1003C000C043C007E4D10020F8BD00002000002099
:1003D00040420F0010B50B4C01224021204600F096
:1003E00079FC00228021204600F074FC01220821C3
:1003F000204600F06FFC20460022BDE8104010218E
:1004000000F068BC00080140FEE70000014800F071
:1004100061BA00007401002030B590F8405001240A
:10042000AC40C56B6C60046863604368102B036864
:1004300003D099600068C26030BD9A600068C160F6
:1004400030BD704772B6FEE710B50B4C002240215C
:10045000204600F03FFC01228021204600F03AFCBB
:1004600000220821204600F035FC20460122BDE88C
:100470001040102100F02EBC00080140F8B5002407
:10048000009490F824202546012A12D0012280F8F9
:1004900024204A681F23072A0DD20668776B521E54
:1004A00002EB820293409F430B6893401F437763A4
:1004B00019E00220F8BD06680D2A0AD2376BD21F58
:1004C00002EB820293409F430B6893401F433763C4
:1004D00009E0F76A0D3A02EB820293409F430B68F2
:1004E00093401F43F7620A68072306680A2A0AD363
:1004F000F7680A3A02EB420293409F438B689340AD
:100500001F43F76008E0376902EB420293409F43C4
:100510008B6893401F4337610A68102A01D0112A63
:1005200020D1124B02689A4217D193681B0219D44A
:10053000936843F4000393600968102912D10C49B1
:100540000C4A0968B1FBF2F101EB8101490000E0BE
:10055000491E00910029FBD104E0816A41F020018D
:100560008162012480F824502046F8BD0024014017
:100570002000002040420F00704770477047000085
:100580002DE9F0414FF0000704003D467ED0A06AFF
:10059000002628B9E66284F82460204600F07EF840
:1005A0002046FFF775FEA16AC90600D420B1A06AF3
:1005B00040F01000A06269E0A16A21F4885141F086
:1005C0000201A1626268E169237B0A4347EA4301B1
:1005D0000A43A1684FF48077B94209D0012907D0B6
:1005E0005FF0000194F814C0BCF1010F02D00AE0E2
:1005F0003946F7E7F3B1A36A43F02003A362E36A45
:1006000043F00103E3622368D3F804C02CF4694C7F
:100610004CEA010CC3F804C021688B68DFF870C095
:1006200003EA0C0313438B60A168B9420BD0012984
:1006300009D00CE0DFF85CC0A3690CEB43330B433B
:1006400043F40061DFE7218A0D05A5F580152168D7
:10065000CB6A23F470032B43CB62216889680E4B6D
:100660001940914208D1E662A16A21F0020141F0ED
:100670000101A162BDE8F081A06A20F0020040F013
:100680001000A062E06A40F00100E0620120F1E7A2
:10069000FDF7E1FF00E0FFFFFE0E1FFF70B586B023
:1006A00000250646009501950295039500681A49B4
:1006B00088422ED11949886940F4007088618869A0
:1006C00000F400700490886940F00800886188692F
:1006D000694600F008000490022000900320019079
:1006E0000F4800F007FA104C0E48C4E900058020BE
:1006F000C4E9025040002061800060612020C4E90C
:100700000605204600F090F908B1FFF79BFE346221
:10071000666206B070BD0000002401400010024077
:10072000000C014008000240740100202DE9F04750
:10073000894604463B4900683B4F0E1D904688425F
:1007400001D0B84207D1306810F4702F03D00125D2
:100750002846BDE8F08794F8240001280CD0012039
:1007600084F824002046FFF7F7FD05004FF0000055
:1007700004D084F82400EBE70220EAE7A16A40F6FF
:100780000162914341F48071A1622168B94218D19C
:10079000326812F4702F14D0A16A41F48011A16262
:1007A0003168490505D5A16A21F4005141F4805111
:1007B000A162A16AC9040AD5E16A21F00601E162D9
:1007C00006E0A26A22F48012A2624968E9E7E062C8
:1007D00084F82400216A15488862216A1448C86296
:1007E000216A1448086321686FF0020008602068DD
:1007F000816841F480718160216843464A464C31EA
:10080000206A00F03FF920688168C1F3424107295E
:10081000816803D041F48011816099E741F4A0011F
:10082000FAE700000024014000280140E702000828
:100830004F0300083503000810B5044690F8240063
:10084000012807D0012084F824002046FFF720FD6E
:1008500010B113E0022010BD21688A6822F4807272
:100860008A60216A91F82120022A07D1084600F007
:100870000EF8A16A30B141F04001A162002184F874
:10088000241010BD21F4885141F00101F5E710B5A5
:1008900090F821100022022905D00421816380F8FC
:1008A0002020012010BD01680B6823F00E030B60AF
:1008B00001680B6823F001030B6090F84030C46BB3
:1008C000012101FA03F3636080F8211080F82020F1
:1008D000104610BD2DE9F05FC16B0C6801680B6814
:1008E000D0F840C0042202FA0CF2494DDFF824A1EE
:1008F000494E4A4FDFF828B1DFF828E122422CD0D8
:100900005A072AD50A68920603D40A6822F004021C
:100910000A600168A94201D1042219E0514501D1C0
:10092000402215E0B14202D14FF4806210E0B9429A
:1009300002D14FF480420BE0594502D14FF480229E
:1009400006E0714502D14FF4800201E04FF0806271
:100950002F4908394A60C16A3BE04FF0020808FAA3
:100960000CF818EA040F4FF000094FF0010235D0DF
:100970005FEA837832D50B689B0605D40B6823F0B9
:100980000A030B6080F821200168A94201D10222EC
:1009900019E0514501D1202215E0B14202D14FF4B6
:1009A000007210E0B94202D14FF400520BE05945F9
:1009B00002D14FF4003206E0714502D14FF400122B
:1009C00001E04FF00072124908394A6080F8209027
:1009D000816A00291AD0BDE8F05F0847082505FAAA
:1009E0000CF5254212D01B0710D50B6823F00E031F
:1009F0000B6090F84010C36B02FA01F159608263FA
:100A000080F8212080F82090016BE2E7BDE8F09F9C
:100A1000080002401C000240300002404400024036
:100A2000580002406C00024030B528B308C8134992
:100A300014221944B1FBF2F18900C16310498163AA
:100A4000022141771A6843F6F0718A43D0E9001415
:100A50002143D0E902452C432143046921434469E1
:100A6000214384692143114319600021416301221C
:100A700042770177084630BD012030BDF8FFFDBF49
:100A80000000024070B5044690F8200000250128BF
:100A90000CD0012084F8200094F821600020012E61
:100AA00006D084F820000225284670BD022070BDC3
:100AB000022684F82160A0632068066826F00106FB
:100AC00006602046FFF7A8FCE06A0028206801685D
:100AD00002D041F00E0106E021F00401016020681F
:100AE000016841F00A0101602068016841F00101DC
:100AF0000160D9E72DE9F84FDFF8B8910024A9F19A
:100B0000040B23460F2709F1040AABF1040EC9E0D8
:100B10000125A5402A40AA427DD1674ED1F804C0E4
:100B2000ACEB0608B44532D014DCBCF1030F3AD06C
:100B300009DCBCF1000F2AD0BCF1010F1CD0BCF1C4
:100B4000020F31D11DE0BCF1110F17D0BCF1120F13
:100B50002AD119E0B8F5881F19D006DCB8F5803F16
:100B600015D0B8F5801F1FD111E0B8F5001F0ED0C9
:100B7000B8F5041F18D10AE0CB6815E0CB681B1D3F
:100B800012E0CB6808330FE0CB680C330CE08B68C5
:100B90002BB1012B4FF0080303D0456104E004237F
:100BA00002E0056100E00023FF2A01D8064601E0CB
:100BB00000F104064FEA840501D9A5F12005D6F815
:100BC000008007FA05FC28EA0C0803FA05F548EA54
:100BD0000508C6F800804D68ED0062D5374DAE6956
:100BE00046F00106AE61AD6924F0030605F001058B
:100BF0000095334D06EB050CDCF80850A607360FC0
:100C000007FA06F825EA0805DFF8B880404503D161
:100C10004FF0000817E044E0DFF8AC80404502D117
:100C20004FF001080FE0DFF8A480404502D14FF0FB
:100C3000020808E0DFF89880404502D14FF0030831
:100C400001E04FF0040808FA06F848EA0508CCF875
:100C500008804D68D9F80060ED024D4601D5164375
:100C600000E096432E604D68DAF80060AD0255460C
:100C700001D5164300E096432E604D68DBF8006016
:100C8000AD035D4601D5164300E096432E604D68E6
:100C9000DEF80060ED03754601D5164300E096438B
:100CA0002E60641C0D682A46E5407FF431AFBDE834
:100CB000F88F0000080401400000111000100240ED
:100CC0000000014000080140000C014000100140FC
:100CD000001401400AB1016170470904FBE70000FC
:100CE00001488068704700001400002002488168B5
:100CF000027811448160704714000020074810B545
:100D0000016841F010010160032000F075F80F2028
:100D100000F006F800F024F8002010BD002002408A
:100D200070B50D4D04464FF47A712878B1FBF0F0A0
:100D30000A490968B1FBF0F000F032FB48B9102C09
:100D400007D200222146501E00F036F800206C60C9
:100D500070BD012070BD00001400002020000020A4
:100D60000C4808B5816941F001018161816901F098
:100D700001010091C16941F08051C161C06900F079
:100D8000805000900448416821F0E06141F08061AA
:100D9000416008BD0010024000000140002809DB4E
:100DA00000F01F02012191404009800000F1E02085
:100DB000C0F8001170470000F0B40E4B1B680C46E1
:100DC000C3F30223C3F10705042D00D90425191D1F
:100DD000072901D2002300E0DB1E012606FA05F1F7
:100DE000491E214099409E40761E16403143F0BC7A
:100DF00001F096B90CED00E0064900F00702086822
:100E00004FF6FF03184040EA0220034A10430860EF
:100E1000704700000CED00E00000FA052DE9F843F2
:100E200005460078354CC00754D0E0690026C00064
:100E300008D4E06940F08050E061E069012600F0EC
:100E4000805000902E480168C90512D40168804680
:100E500041F480710160FFF743FF074605E000BFE2
:100E6000FFF73EFFC01B642823D8D8F80000C00558
:100E7000F6D5206A10F4407021D0A98801F44071A1
:100E800081421CD0206A1F49012220F440700A6070
:100E900000220A602062C00711D0FFF721FF074639
:100EA00041F2883808E000BFFFF71AFFC11B414537
:100EB00002D90320BDE8F883206A8007F4D5206AB0
:100EC000696820F44070084320621EB1E06920F098
:100ED0008050E0612878800705D56068A96820F413
:100EE0004040084360602878C00605D56068E9681E
:100EF00020F48000084360600020DBE7001002401F
:100F000000700040400442422DE9F0470F460500C2
:100F100061D0434E306800F00700B84209D2306813
:100F200020F0070038433060306800F00700B84216
:100F300051D128683B4C810712D5400703D5606822
:100F400040F4E06060602878000703D5606840F4F2
:100F5000605060606068A96820F0F000084360603D
:100F60002878C00728D06868012810D02168022896
:100F700010D0890700292EDA616821F003010143AE
:100F80006160FFF7ADFE804641F288390DE02168CF
:100F90008903EFE78901EDE7FFF7A2FEA0EB080167
:100FA000494502D90320BDE8F0876068696800F010
:100FB0000C00B0EB810FEFD1306800F00700B842B1
:100FC0000BD9306820F0070038433060306800F0FB
:100FD0000700B84201D00120E5E72878400705D591
:100FE0006068E96820F4E0600843606028780007E2
:100FF00006D56068296920F4605040EAC10060604D
:1010000000F018F86168084AC1F30311515CC84048
:101010000649086006480068FFF782FE0020C2E724
:1010200000200240001002405C2500082000002043
:10103000180000200E4A51680E4801F00C03042BE2
:1010400011D0082B0FD10C48C1F38343C903C05CF6
:101050000AD55168084AC1F34041921E515C054AC5
:101060005043B0FBF1F0704704494843704700001B
:101070000010024000127A004C25000800093D00D3
:101080002DE9F84F040070D02078C04DC00749D03A
:101090006868C0F38100012807D06868C0F3810048
:1010A000022809D16868C00306D52868800339D5AD
:1010B00060680028E7D035E06068B0F5803F0BD06D
:1010C00010B1B0F5A02F11D0286820F4803028602E
:1010D000286820F4802002E0286840F480302860EE
:1010E000606890B1FFF7FCFD06460AE0286840F40E
:1010F00080202860F0E700BFFFF7F2FD801B642826
:1011000073D828688003F7D50CE0FFF7E9FD0646A1
:1011100005E000BFFFF7E4FD801B6428F0D82868D5
:101120008003F7D420789A4E80074FF001094FF0E2
:10113000000839D5686810F00C0F07D06868C0F354
:101140008100022809D16868C00306D42868800796
:1011500014D52069012808D110E02069B0B1C6F883
:101160000090FFF7BDFD074605E00AE1FFF7B8FD77
:10117000C01B0228C4D828688007F7D52868616991
:1011800020F0F80040EAC10028600DE0C6F80080B9
:10119000FFF7A6FD074604E0FFF7A2FDC01B0228EB
:1011A00023D828688007F7D4207800072CD5794801
:1011B000A169D9B1C0F80090FFF792FD074604E09D
:1011C000FFF78EFDC01B02280FD8686A8007F7D58D
:1011D00071484FF4FA510068B0FBF1F0009000BF85
:1011E0000098411E0091FAD20EE080E0C0F8008025
:1011F000FFF776FD074604E0FFF772FDC01B0228EB
:1012000075D8686A8007F7D42078400760D5E86908
:101210000027C00008D4E86940F08050E861E86920
:10122000012700F0805000905C480168C90513D484
:101230000168834641F480710160FFF751FD8246E9
:1012400006E000BFFFF74CFDA0EB0A0064284ED873
:10125000DBF80000C005F5D5E06801280AD008B128
:10126000052813D0286A20F001002862286A20F09F
:10127000040002E0286A40F001002862E06841F2C0
:10128000883B98B1FFF72CFD82460BE0286A40F0BE
:1012900004002862EEE700BFFFF722FDA0EB0A0181
:1012A00059455AD8286A8007F6D50CE0FFF718FD93
:1012B000824605E0FFF714FDA0EB0A0159454CD822
:1012C000286A8007F6D41FB1E86920F08050E861F1
:1012D000E06988B36968C1F38101022944D002281A
:1012E000C6F8608004D0FFF7FBFC044638E034E029
:1012F000FFF7F6FC074604E0FFF7F2FCC01B0228EC
:101300002BD828688001F7D4206AB0F5803F05D13A
:101310006868A16820F4003008436860D4E90801D7
:101320000843696821F4741108436860C6F8609046
:10133000FFF7D6FC044606E025E000BFFFF7D0FC2F
:10134000001B022809D828688001F7D51BE000BFE0
:10135000FFF7C6FC001B022802D90320BDE8F88F66
:1013600028688001F4D40EE00128F7D06868226A6A
:1013700000F48031914204D1616A00F47010884217
:1013800001D00120EAE70020E8E700000010024059
:1013900000004242800442422000002000700040D1
:1013A00010B5401EB0F1807F01D3012010BD4FF079
:1013B000E02460610F21601700F0B2FE0020A06100
:1013C00007202061002010BD7047704770B590F86D
:1013D0003C20012A26D0012480F83C40022280F8DB
:1013E0003D2003685A689D6822F070060A683243FF
:1013F0005A600D4B02689A4208D0B2F1804F05D076
:101400000A4B9A4202D00A4B9A4204D1496825F00D
:1014100080031943916080F83D40002180F83C1022
:10142000084670BD022070BD002C01400004004041
:101430000008004010B5040003D094F83D0010B13E
:1014400007E0012010BD002084F83C00204600F099
:101450001FF8022084F83D00211D206800F03EFDA9
:10146000012084F8460084F83E0084F83F0084F8A8
:10147000400084F8410084F8420084F8430084F876
:10148000440084F8450084F83D00002010BD0000B1
:1014900008B501681048B1F1804F0BD00F4A914256
:1014A00007D1C16941F00401C161C06900F00400C5
:1014B000009008BDC16941F00101C161C06900220D
:1014C00000F00100009011461C20FFF775FCBDE8FC
:1014D00008401C20FFF762BC0010024000080040DA
:1014E00090F83D10012901D001207047022180F8B9
:1014F0003D100168CA6842F00102CA6000680B49E9
:10150000884208D0B0F1804F05D00949884202D006
:101510000849884204D1816801F00701062903D0F7
:10152000016841F00101016000207047002C01407A
:10153000000400400008004070B5044690F83C00EC
:101540000025012817D0012684F83C60022084F889
:101550003D002068826822F0770222F47F42826098
:101560000868502838D00DDC20284FD005DC90B317
:10157000102811D14AE0022070BD302846D0402802
:101580000AD13BE060282FD070280DD0B0F5805FE5
:1015900003D0B0F5005F12D0012584F83D60002033
:1015A00084F83C00284670BDCB68D1E90121206851
:1015B00000F0DDFC2068816841F0770109E0CB682C
:1015C000D1E90121206800F0D2FC2068816841F453
:1015D00080418160E1E719E0CA684968206800F04D
:1015E0007BFD5021206806E0CA684968206800F049
:1015F00084FD6021206800F0C4FCCEE7CA68496819
:10160000206800F069FD40212068F4E72268014667
:101610001046F0E72DE9F0410D46040003D094F8A0
:101620003D0018B108E00120BDE8F081002084F8F9
:101630003C00204600F040F8022084F83D0020687D
:10164000816844F2070291438160211D206800F007
:1016500045FC226890689169166A2B68AF6903435C
:1016600040F20330814341EA0721A868EF6908434B
:101670004FF6FC418843E96840EA072001432869A6
:101680002F6A000140EA0730084369686D6926F057
:10169000220646EA0515294393602268906154F8B2
:1016A000460B0162012004F81F09E0752076E07600
:1016B0002077A0750020B7E700B585B00021009124
:1016C000019102910391204A01682048914218D16A
:1016D000816941F400618161816901F400610491D3
:1016E000816941F0040181618069694600F004006C
:1016F00004904FF4407000901548FFF7FBF905B0D7
:1017000000BD144A9142FAD1C16941F00201C161A0
:10171000C16901F002010491816941F00801816110
:101720008069694600F008000490302000900A4863
:10173000FFF7E0F90948416821F4406141F0E061B8
:1017400041F400614160DAE7002C014000100240E2
:101750000008014000040040000C0140000001406E
:1017600070472DE9F04104460068C66805694FF0EE
:101770000007A90713D5B10711D5F91E0161012092
:101780002077206880698007204602D0FFF7E8FFB5
:1017900004E000F0A5F8204600F037F92777680745
:1017A00016D5700714D521686FF004000861022077
:1017B00020772068806910F4407F204602D0FFF730
:1017C000CFFF04E000F08CF8204600F01EF92777E8
:1017D000280715D5300713D521686FF00800086178
:1017E000042020772068C0698007204602D0FFF7D8
:1017F000B7FF04E000F074F8204600F006F9277700
:10180000E80616D5F00614D521686FF010000861BF
:10181000082020772068C06910F4407F204602D05D
:10182000FFF79EFF04E000F05BF8204600F0EDF8C3
:101830002777E80708D0F00706D021686FF001008D
:101840000861204600F030F9280608D5300606D594
:1018500021686FF0800008612046FFF7B5FD68063B
:1018600008D5700606D521686FF040000861204653
:1018700000F058F9A8060AD5B00608D521686FF01F
:10188000200008612046BDE8F041FFF79EBDBDE89D
:10189000F081000000B585B0002100910191029116
:1018A000039100680B49884212D10B48816941F0CD
:1018B000080181618069694600F0080004904FF4D6
:1018C000407000900220019003900448FFF712F945
:1018D00005B000BD0008004000100240000C0140AF
:1018E000704770B5044690F83C0000260D4601286C
:1018F0000FD0012084F83C006AB1042A1DD0082AC8
:101900002FD00C2A3FD00126002084F83C0030461E
:1019100070BD022070BD206800F03CFB206881692A
:1019200041F0080181612068816921F00401816131
:10193000206881692A69114311E0206800F052FB98
:101940002068816941F4006181612068816921F426
:1019500080618161206881692A6941EA022181618F
:10196000D2E7206800F06AFB2068C16941F00801F5
:10197000C1612068C16921F00401C1612068C169A9
:101980002A69114311E0206800F084FB2068C169D6
:1019900041F40061C1612068C16921F48061C161C5
:1019A0002068C1692A6941EA0221C161ACE710B52A
:1019B000040003D094F83D0010B107E0012010BDF1
:1019C000002084F83C00204600F01EF8022084F835
:1019D0003D00211D206800F081FA012084F84600B6
:1019E00084F83E0084F83F0084F8400084F8410009
:1019F00084F8420084F8430084F8440084F84500E9
:101A000084F83D00002010BD7047704710B50446B3
:101A1000022249B104290ED0082913D094F84100BC
:101A2000012816D0012010BD94F83E000128F9D1FC
:101A300084F83E200FE094F83F000128F2D184F8AA
:101A40003F2008E094F840000128EBD184F84020C2
:101A500001E084F841200122206800F07BFA0F4960
:101A60002068884203D1426C42F4004242642068FC
:101A7000884208D0B0F1804F05D00949884202D091
:101A80000849884204D1816801F00701062903D082
:101A9000016841F001010160002010BD002C0140EF
:101AA000000400400008004010B5012219491A48FE
:101AB000FEF73CFE1848FEF7BFFE1648154C40F2F4
:101AC000E7310088A060484340F6FF7190FBF1F0D9
:101AD00000F0F2FB0121E06000F0F9FC0F4900F09A
:101AE0004FFC206110F1FF4F05D380F000402061D2
:101AF0004FF0FF3003E0B0F5000F01DB0120606024
:101B0000206900F0B9FB06490968C863BDE81040C8
:101B100000F05CB9000000202400002000C07944DF
:101B20002C0100207047FEE73EB5002411480094C8
:101B3000019402940E4984600160047304750125C8
:101B400005614FF460214460C161FEF719FD08B1E1
:101B500072B6FEE70920CDE9000569460294054802
:101B6000FEF78CFC002801D072B6FEE73EBD0000F7
:101B7000002401402400002030B585B0002418481E
:101B80000094019402940394816941F020018161E1
:101B9000816901F020010491816941F004018161B2
:101BA000816901F004010491816941F008018161BA
:101BB00080690C4D00F0080004900022D8212846CE
:101BC000FFF788F8D82000900120CDE90104022019
:101BD000039069462846FEF78DFF05B030BD000032
:101BE000001002400008014010B58CB02421684666
:101BF000FEF7EAFA00241648099414490A94C0E949
:101C000000144FF6FF71C0E9024104614461846130
:101C10000120CDE90004CDE902040494CDE905409A
:101C2000079469460A480894FFF7F4FC08B172B6B5
:101C3000FEE7099409A906480A94FFF7C7FB0028A4
:101C400001D072B6FEE70CB010BD0000002C0140C0
:101C50005400002010B586B000241648009401946A
:101C60000294039404944FF0804105940160132181
:101C7000C0E9011440F69F71C0E903148461FFF7C5
:101C8000D9FB08B172B6FEE74FF480500090694668
:101C90000848FFF751FC08B172B6FEE7049404A9A6
:101CA00004480594FFF792FB002801D072B6FEE7C6
:101CB00006B010BD9C00002010B58CB024216846F1
:101CC000FEF782FA00241548099413490A94C0E9E2
:101CD00000144FF6FF71C0E90241046184610120E4
:101CE000CDE90004CDE902040494CDE90540079450
:101CF00069460A480894FFF78DFC08B172B6FEE702
:101D0000099409A905480A94FFF760FB002801D04F
:101D100072B6FEE70CB010BD00040040E4000020E5
:101D200010B58EB000240794089409940A940B947B
:101D30001C2168460C94FEF747FA224820490160AE
:101D40000121C0E9011440F2E731C0E903148461C4
:101D5000FFF770FB08B172B6FEE74FF480500790B2
:101D600007A91848FFF7E8FB08B172B6FEE7154867
:101D7000FFF71DFE08B172B6FEE70B940BA91148E0
:101D80000C94FFF723FB08B172B6FEE76020CDE9A3
:101D900000040294082269460A480494FFF7A1FD52
:101DA00008B172B6FEE70C2269460648FFF799FDB6
:101DB00008B172B6FEE70348FFF76CFD0EB010BD28
:101DC000000800402C010020FEE7FEE770B5144D2E
:101DD000144C6868002808DD286900F04DFA216875
:101DE000C86321680864FEF72FFB6868002808DADA
:101DF000286900F041FA2168C86321680864FEF789
:101E0000E9FA286910F0FF4F08D121680020C86363
:101E100021680864BDE8704000F008B870BD00009B
:101E2000000000202C0100207047704710B50B4CBB
:101E3000002240212046FEF74DFF0022802120464F
:101E4000FEF748FF002208212046FEF743FF204608
:101E50000022BDE810401021FEF73CBF0008014001
:101E6000FEF744BF30B593B028216846FEF7ACF9C1
:101E700014210AA8FEF7A8F9002401200F940225D6
:101E800004900095102011940590109412940794DA
:101E90006846FFF7F5F808B172B6FEE70F20CDE906
:101EA0000A040C940D9400210AA80E94FFF72CF854
:101EB00008B172B6FEE70FA80F951194FEF7AEFFBA
:101EC000002801D072B6FEE713B030BD70470000A5
:101ED0000148FFF746BC00009C000020F0B50268F6
:101EE000194B1A4C1A4D4FF08047984205D0B84212
:101EF00003D0A04201D0A84203D122F070064A6864
:101F00003243984205D0B84203D0A04201D0A84243
:101F100003D122F44074CA6822434C6922F0800243
:101F2000224302608A68C2620A688262984201D1D2
:101F300009690163012141610169C90703D0016990
:101F400021F001010161F0BD002C014000040040BE
:101F50000008004010B501F01F030121046A9940F8
:101F60008C430462016A9A401143016210BD10B5AE
:101F7000846842EA032224F47F440A4322438260B5
:101F800010BD826822F070020A4342F007018160AE
:101F90007047000030B5036A026A22F00102026253
:101FA0004268846924F073050C682C4323F0020511
:101FB0008B682B430A4DA8420BD123F00805CB6850
:101FC00022F440722B434D6923F0040315438A69C0
:101FD0002A434260846149684163036230BD000066
:101FE000002C014030B5026A036A23F0100303623B
:101FF000436884690D6824F4E64444EA05248D6846
:1020000022F0200242EA05120B4DA8420ED1CD6803
:1020100022F0800242EA05124D6923F4406343EA4C
:1020200085038D6922F0400243EA850343608461A1
:1020300049688163026230BD002C014030B5036AFB
:10204000026A22F4807202624268C46923F4007357
:1020500024F073050C682C438D6843EA05230C4D6E
:10206000A8420ED1CD6823F4006343EA05234D69ED
:1020700022F4405242EA05128D6923F4806342EA59
:1020800005124260C4614968C163036230BD00004B
:10209000002C014030B5046A026A22F480520262C8
:1020A0004268C3690D6823F4E64343EA05238D685B
:1020B00024F4005444EA0534064DA84204D14D6985
:1020C00022F4804242EA85124260C3614968016499
:1020D000046230BD002C014010B5036A046A24F08C
:1020E00001040462846924F0F00444EA021423F039
:1020F0000A020A438461026210BD10B5036A046AD1
:1021000024F010040462846923F0A00324F47044D2
:1021100044EA023243EA01118261016210BDFEE726
:102120000907090E002804DB00F1E02080F8001404
:10213000704700F00F0000F1E02080F8141D704798
:1021400008B5FEF7DBFDFFF78DFEFFF715FD144820
:10215000416941F0010141614069002200F0010044
:10216000009011460B20FEF727FE0B20FEF716FE0F
:10217000FFF7D6FDFFF738FDFFF76CFDFFF79CFD7D
:10218000FFF7D2FC08210748FFF740FC0C21054867
:10219000FFF73CFC03489038FFF7A2F9FEE7000088
:1021A000001002402C01002090EA010F48BF81F08E
:1021B000004100F1EC80421A3CBF801A89184FEAB6
:1021C000D0524FF07F4C1CEA410FA2EBD15318BF05
:1021D0009CEA026F00F03B804FF0004C4CEA00207C
:1021E0004CEA012121FA03FC10EB0C0C1ED202F187
:1021F000FF325FEA1C2040EBC25038BF70471CF032
:102200007F0F4FEA400C18BFBCF17F4F38BF7047BB
:10221000C3F12003994008BF20F00100BCF17F4FBB
:1022200038BF7047A0F1C04000F0A4B84FEA3C00AE
:10223000000A40EBC25028BF1CF0FF0F4FEA400CD1
:10224000E6D018BFBCF17F4F38BF7047EAE79CEA81
:10225000026F05D010EA5C0F08BF00F00040704725
:1022600010B500F041F800BF64FBBE3E014800F02D
:10227000FCB800BF0000C07FC10DD1F19E0206DB9B
:102280004FEA002343F0004323FA02F07047004274
:1022900007D54FEA4001B1F1FE4F02D24FF00000E6
:1022A000704710B500F020F8499224800020704754
:1022B0006FEA20007047000010F0004148BF404224
:1022C000B0FA80F310FA03F2C3F19D030BD051EA88
:1022D000C35101EB1220530638BF704700F10100D3
:1022E00008BF20F0010070470EF1020E2EF0030E21
:1022F0005EF8044B244204D44FEA4102B2F17F4F0E
:1023000011D84FEA4003B3F17F4F0CD80ED14FEAFA
:10231000D07CB2F17F4F0CEB4C0C0CF1020C08BFDF
:102320004CEBD17C04E04FF0080C01E04FEAD17C8B
:102330000CEB4C0324FA03F404F00704B4F1040C8E
:1023400006D20EEB840CBDE810404CF0010C604747
:10235000DFE80CF0070802024FF00040A0F5800013
:1023600010BD0846420018BFD2F1807288BF00F04D
:10237000004010BDFF2141EAD050C0057047000069
:1023800090EA010F48BF81F000413FF514AF421AB7
:1023900004D882F00042A0EB020011444FEAD05270
:1023A0004FF07F4C1CEA410FA2EBD15318BF9CEABF
:1023B000026F4AD04FF0004C4CEA00204CEA012159
:1023C00021FA03FCB0EB0C0C0FD412F0FE0F36D048
:1023D0005FEA4C001DD5001240EBC25038BF704779
:1023E0001CF03F0F18BF70470BE0A2F101025FEA3B
:1023F0001C2040EBC25038BF70471CF07F0F18BF45
:102400007047C3F12003994014BF401E20F0010023
:10241000704780084FEA122308BF7047B0FA80FC6B
:10242000A2EB0C02CCF1280C60FA0CF093EA122F0C
:1024300004BF00EBC25070474FEAC3707047130AE5
:102440005FEADC1008BF7047F6E79CEA026F04D031
:1024500010EA5C0F08BF0020704710B5FFF744FF7B
:1024600040DFF63E81F0004070470CF00F03092B6F
:1024700008BF082000F051800A2B0BD0082B18BF92
:10248000704708BF1CF0400F0AD04FF000004FF01B
:10249000000170471CF0400F18BF4FF0004070471C
:1024A0001CF0100F08D020F0704300F07F4242EA89
:1024B000D3014FEA4370704700F0604021F07F4243
:1024C00042EA000201F07F4040EA727070474FF02C
:1024D000FF0212EAD0521CBF92F0FF038B42C2BF30
:1024E000D14200EBC1507047002A0AD0002B0BD01C
:1024F000002900F00040A4BF40F0FE4040F400007E
:10250000704700F00040704743024FF00B0C18BFBB
:102510004CF0806C7FF4AAAE70471CF4801F11D081
:102520001CF4E02F03D06FEACC31490070474FF024
:102530004050EFF3008222F0704242EA000282F340
:10254000008870474FF00000704701020203040545
:10255000060708090A0B0C0D0E0F101000000000F2
:102560000000000001020304060708098C2500088A
:10257000000000202400000028010008B025000809
:1025800024000020F40700004401000800000000BF
:10259000010000000000000000000000000000003A
:1025A00001000000100000000000000000127A008E
:04000005080000ED02
:00000001FF
