:020000040800F2
:100000006007002089010008AF1200085B1100089A
:10001000AD1200088F020008FB130008000000006A
:10002000000000000000000000000000B312000803
:100030009102000800000000B1120008B51200088B
:10004000A3010008A3010008A3010008A301000800
:10005000A3010008A3010008A3010008A3010008F0
:10006000A3010008A3010008A3010008A3010008E0
:10007000A3010008A3010008A3010008A3010008D0
:10008000A3010008A3010008A3010008A3010008C0
:10009000A3010008A3010008A3010008A3010008B0
:1000A000A3010008A3010008A3010008A3010008A0
:1000B0000D130008A3010008A3010008A301000814
:1000C000A3010008A3010008A3010008A301000880
:1000D000A3010008A3010008A3010008A301000870
:1000E000A3010008A3010008A301000800F002F822
:1000F00000F03AF80AA090E8000C82448344AAF188
:100100000107DA4501D100F02FF8AFF2090EBAE885
:100110000F0013F0010F18BFFB1A43F0010318473B
:100120007C1300009C130000103A24BF78C878C1EB
:10013000FAD8520724BF30C830C144BF04680C60ED
:10014000704700000023002400250026103A28BF35
:1001500078C1FBD8520728BF30C148BF0B60704739
:100160001FB51FBD10B510BD00F058F81146FFF7C0
:10017000F7FF01F053F900F076F803B4FFF7F2FF50
:1001800003BC00F07DF8000009488047094800479B
:10019000FEE7FEE7FEE7FEE7FEE7FEE7FEE7FEE737
:1001A000FEE7FEE704480549054A064B7047000094
:1001B00009130008ED00000860010020600700201E
:1001C00060030020600300204FF0000200B51346DA
:1001D00094469646203922BFA0E80C50A0E80C5067
:1001E000B1F12001BFF4F7AF090728BFA0E80C5018
:1001F00048BF0CC05DF804EB890028BF40F8042B11
:1002000008BF704748BF20F8022B11F0804F18BF7D
:1002100000F8012B7047704770477047754600F033
:100220002BF8AE4605006946534620F00700854688
:1002300018B020B5FFF7B6FFBDE820404FF000062C
:100240004FF000074FF000084FF0000B21F00701BE
:10025000AC46ACE8C009ACE8C009ACE8C009ACE801
:10026000C0098D46704710B50446AFF300802046A4
:10027000BDE81040FFF781BF00487047FC00002038
:1002800001491820ABBEFEE7260002007047FEE7DA
:10029000704700002DE9F84FDFF8B8910024A9F16C
:1002A000040B23460F2709F1040AABF1040EC9E041
:1002B0000125A5402A40AA427DD1674ED1F804C04D
:1002C000ACEB0608B44532D014DCBCF1030F3AD0D5
:1002D00009DCBCF1000F2AD0BCF1010F1CD0BCF12D
:1002E000020F31D11DE0BCF1110F17D0BCF1120F7C
:1002F0002AD119E0B8F5881F19D006DCB8F5803F7F
:1003000015D0B8F5801F1FD111E0B8F5001F0ED031
:10031000B8F5041F18D10AE0CB6815E0CB681B1DA7
:1003200012E0CB6808330FE0CB680C330CE08B682D
:100330002BB1012B4FF0080303D0456104E00423E7
:1003400002E0056100E00023FF2A01D8064601E033
:1003500000F104064FEA840501D9A5F12005D6F87D
:10036000008007FA05FC28EA0C0803FA05F548EABC
:100370000508C6F800804D68ED0062D5374DAE69BE
:1003800046F00106AE61AD6924F0030605F00105F3
:100390000095334D06EB050CDCF80850A607360F28
:1003A00007FA06F825EA0805DFF8B880404503D1CA
:1003B0004FF0000817E044E0DFF8AC80404502D180
:1003C0004FF001080FE0DFF8A480404502D14FF064
:1003D000020808E0DFF89880404502D14FF003089A
:1003E00001E04FF0040808FA06F848EA0508CCF8DE
:1003F00008804D68D9F80060ED024D4601D51643DE
:1004000000E096432E604D68DAF80060AD02554674
:1004100001D5164300E096432E604D68DBF800607E
:10042000AD035D4601D5164300E096432E604D684E
:10043000DEF80060ED03754601D5164300E09643F3
:100440002E60641C0D682A46E5407FF431AFBDE89C
:10045000F88F000008040140000011100010024055
:100460000000014000080140000C01400010014064
:10047000001401408068084000D001207047C26825
:1004800021EA02030A4043EA0241016170470AB1CE
:10049000016170470904FBE701488068704700006C
:1004A0000800002070B5040025D094F83D00002518
:1004B00020B984F83C50204600F0B8F8242084F895
:1004C0003D002068016821F0010101602068016899
:1004D00041F4004101602068016821F4004101609D
:1004E00000F000FA4D4A6168914201D84C4900E0A1
:1004F0004C49884201D2012070BD4B492368B0FBB2
:10050000F1F15E6826F03F060E435E606368934239
:1005100006D94FF4967359434FF47A73B1FBF3F154
:100520002368491C1E6A26F03F0631431962616840
:10053000914210D84900401EB0FBF1F2521CC2F3A8
:100540000B02042A01D2042022E0B0FBF1F0401C8F
:10055000C0F30B001CE0A268F2B301EBC10303EB94
:100560000116431EB3FBF6F35B1C43F480431B05EB
:1005700049D092B301EBC10202EB0111401EB0FB66
:10058000F1F0401CC0F30B0040F4804040F4004008
:100590002168CA694CF6FF739A431043C861D4E9D5
:1005A000071001432068026822F0C0021143016075
:1005B000D4E9030101432068826848F2FF339A437B
:1005C00011438160D4E9050108432168CA6822F01B
:1005D000FF021043C86001E00EE016E020680168E9
:1005E00041F0010101602564202084F83D0025636D
:1005F00084F83E50002070BD01EB4106431EB3FB62
:10060000F6F35B1CB3E70120C2E701EB4101401E9A
:10061000B0FBF1F0401CC0F30B00B7E7A08601006F
:1006200080841E0000093D0040420F0010B586B0D6
:100630000021009101910291039100680F498842C5
:100640001AD10F4CA06940F00800A061A06969466A
:1006500000F008000490C0200090122001900320B8
:1006600003900848FFF716FEE06940F40010E061CF
:10067000E06900F40010049006B010BD0054004082
:1006800000100240000C01400248816802781144C9
:100690008160704708000020074810B5016841F0EC
:1006A00010010160032000F075F80F2000F006F83B
:1006B00000F024F8002010BD0020024070B50D4D60
:1006C00004464FF47A712878B1FBF0F00A490968C2
:1006D000B1FBF0F000F0CCFA48B9102C07D20022A0
:1006E0002146501E00F036F800206C6070BD0120DD
:1006F00070BD000008000020140000200C4808B560
:10070000816941F001018161816901F0010100917C
:10071000C16941F08051C161C06900F08050009012
:100720000448416821F0E06141F00071416008BD7A
:100730000010024000000140002809DB00F01F0209
:10074000012191404009800000F1E020C0F8001133
:1007500070470000F0B40E4B1B680C46C3F3022335
:10076000C3F10705042D00D90425191D072901D25D
:10077000002300E0DB1E012606FA05F1491E214098
:1007800099409E40761E16403143F0BC00F036BEC4
:100790000CED00E0064900F0070208684FF6FF0381
:1007A000184040EA0220034A1043086070470000E6
:1007B0000CED00E00000FA052DE9F0470F460500BA
:1007C00061D0434E306800F00700B84209D230686B
:1007D00020F0070038433060306800F00700B8426E
:1007E00051D128683B4C810712D5400703D560687A
:1007F00040F4E06060602878000703D5606840F44A
:10080000605060606068A96820F0F0000843606094
:100810002878C00728D06868012810D021680228ED
:1008200010D0890700292EDA616821F00301014305
:100830006160FFF731FE804641F288390DE02168A2
:100840008903EFE78901EDE7FFF726FEA0EB08013A
:10085000494502D90320BDE8F0876068696800F067
:100860000C00B0EB810FEFD1306800F00700B84208
:100870000BD9306820F0070038433060306800F052
:100880000700B84201D00120E5E72878400705D5E8
:100890006068E96820F4E060084360602878000739
:1008A00006D56068296920F4605040EAC1006060A4
:1008B00000F028F86168084AC1F30311515CC84090
:1008C0000649086006480068FFF7F8FE0020C2E706
:1008D0000020024000100240821400081400002092
:1008E0000C0000200448054900684968044AC1F327
:1008F0000221515CC84070471400002000100240E3
:10090000921400080E4A51680E4801F00C03042BA3
:1009100011D0082B0FD10C48C1F38343C903C05C2D
:100920000AD55168084AC1F34041921E515C054AFC
:100930005043B0FBF1F07047044948437047000052
:100940000010024000127A007214000800093D00F5
:100950002DE9F84F040070D02078C04DC00749D071
:100960006868C0F38100012807D06868C0F381007F
:10097000022809D16868C00306D52868800339D5E4
:1009800060680028E7D035E06068B0F5803F0BD0A4
:1009900010B1B0F5A02F11D0286820F48030286065
:1009A000286820F4802002E0286840F48030286025
:1009B000606890B1FFF770FD06460AE0286840F4D1
:1009C00080202860F0E700BFFFF766FD801B6428E9
:1009D00073D828688003F7D50CE0FFF75DFD064665
:1009E00005E000BFFFF758FD801B6428F0D8286899
:1009F0008003F7D420789A4E80074FF001094FF01A
:100A0000000839D5686810F00C0F07D06868C0F38B
:100A10008100022809D16868C00306D428688007CD
:100A200014D52069012808D110E02069B0B1C6F8BA
:100A30000090FFF731FD074605E00AE1FFF72CFDC6
:100A4000C01B0228C4D828688007F7D528686169C8
:100A500020F0F80040EAC10028600DE0C6F80080F0
:100A6000FFF71AFD074604E0FFF716FDC01B02283A
:100A700023D828688007F7D4207800072CD5794838
:100A8000A169D9B1C0F80090FFF706FD074604E060
:100A9000FFF702FDC01B02280FD8686A8007F7D550
:100AA00071484FF4FA510068B0FBF1F0009000BFBC
:100AB0000098411E0091FAD20EE080E0C0F800805C
:100AC000FFF7EAFC074604E0FFF7E6FCC01B02283C
:100AD00075D8686A8007F7D42078400760D5E86940
:100AE0000027C00008D4E86940F08050E861E86958
:100AF000012700F0805000905C480168C90513D4BC
:100B00000168834641F480710160FFF7C5FC8246AD
:100B100006E000BFFFF7C0FCA0EB0A0064284ED837
:100B2000DBF80000C005F5D5E06801280AD008B15F
:100B3000052813D0286A20F001002862286A20F0D6
:100B4000040002E0286A40F001002862E06841F2F7
:100B5000883B98B1FFF7A0FC82460BE0286A40F082
:100B600004002862EEE700BFFFF796FCA0EB0A0145
:100B700059455AD8286A8007F6D50CE0FFF78CFC57
:100B8000824605E0FFF788FCA0EB0A0159454CD8E6
:100B9000286A8007F6D41FB1E86920F08050E86128
:100BA000E06988B36968C1F38101022944D0022851
:100BB000C6F8608004D0FFF76FFC044638E034E0EC
:100BC000FFF76AFC074604E0FFF766FCC01B02283B
:100BD0002BD828688001F7D4206AB0F5803F05D172
:100BE0006868A16820F4003008436860D4E908010F
:100BF0000843696821F4741108436860C6F860907E
:100C0000FFF74AFC044606E025E000BFFFF744FC7E
:100C1000001B022809D828688001F7D51BE000BF17
:100C2000FFF73AFC001B022802D90320BDE8F88F29
:100C300028688001F4D40EE00128F7D06868226AA1
:100C400000F48031914204D1616A00F4701088424E
:100C500001D00120EAE70020E8E700000010024090
:100C60000000424280044242140000200070004014
:100C700010B5401EB0F1807F01D3012010BD4FF0B0
:100C8000E02460610F21601700F0B8FB0020A06134
:100C900007202061002010BD7047704770B590F8A4
:100CA0003C20012A26D0012480F83C40022280F812
:100CB0003D2003685A689D6822F070060A68324336
:100CC0005A600D4B02689A4208D0B2F1804F05D0AD
:100CD0000A4B9A4202D00A4B9A4204D1496825F045
:100CE00080031943916080F83D40002180F83C105A
:100CF000084670BD022070BD002C01400004004079
:100D00000008004010B5040003D094F83D0010B175
:100D100007E0012010BD002084F83C00204600F0D0
:100D20001FF8022084F83D00211D206800F0F4FA2D
:100D3000012084F8460084F83E0084F83F0084F8DF
:100D4000400084F8410084F8420084F8430084F8AD
:100D5000440084F8450084F83D00002010BD0000E8
:100D600008B50068B0F1804F12D10A48C16941F05E
:100D70000101C161C069002200F00100009011462C
:100D80001C20FFF7E7FCBDE808401C20FFF7D4BC9F
:100D900008BD00000010024090F83D10012901D06C
:100DA00001207047022180F83D100168CA6842F0B6
:100DB0000102CA6000680B49884208D0B0F1804F38
:100DC00005D00949884202D00849884204D1816887
:100DD00001F00701062903D0016841F0010101601B
:100DE00000207047002C0140000400400008004033
:100DF00070B5044690F83C000025012817D0012664
:100E000084F83C60022084F83D002068826822F06B
:100E1000770222F47F4282600868502838D00DDCC7
:100E200020284FD005DC90B3102811D14AE00220D1
:100E300070BD302846D040280AD13BE060282FD032
:100E400070280DD0B0F5805F03D0B0F5005F12D0F0
:100E5000012584F83D60002084F83C00284670BDE0
:100E6000CB68D1E90121206800F092FA20688168FE
:100E700041F0770109E0CB68D1E90121206800F059
:100E800087FA2068816841F480418160E1E719E0D8
:100E9000CA684968206800F08DFA5021206806E091
:100EA000CA684968206800F096FA6021206800F05E
:100EB00079FACEE7CA684968206800F07BFA4021D9
:100EC0002068F4E7226801461046F0E72DE9F0417A
:100ED0000D46040003D094F83D0018B108E001204D
:100EE000BDE8F081002084F83C00204600F040F886
:100EF000022084F83D002068816844F20702914393
:100F00008160211D206800F007FA226890689169CD
:100F1000166A2B68AF69034340F20330814341EA0C
:100F20000721A868EF6908434FF6FC418843E96848
:100F300040EA0720014328692F6A000140EA073090
:100F4000084369686D6926F0220646EA05152943BB
:100F500093602268906154F8460B0162012004F806
:100F60001F09E0752076E0762077A0750020B7E7AE
:100F700000B585B0002100910191029103910068B4
:100F8000124988421FD11248C16941F00201C16172
:100F9000C16901F002010491816941F00801816198
:100FA0008069694600F008000490302000900948EC
:100FB000FFF770F90848416821F4406141F0E061B1
:100FC00041F40061416005B000BD00000004004034
:100FD00000100240000C01400000014070472DE964
:100FE000F04104460068C66805694FF00007A9078C
:100FF00013D5B10711D5F91E0161012020772068B2
:1010000080698007204602D0FFF7E8FF04E000F087
:101010007EF8204600F07CF82777680716D5700721
:1010200014D521686FF00400086102202077206841
:10103000806910F4407F204602D0FFF7CFFF04E024
:1010400000F065F8204600F063F82777280715D5EB
:10105000300713D521686FF008000861042020775D
:101060002068C0698007204602D0FFF7B7FF04E080
:1010700000F04DF8204600F04BF82777E80616D52B
:10108000F00614D521686FF0100008610820207761
:101090002068C06910F4407F204602D0FFF79EFF11
:1010A00004E000F034F8204600F032F82777E80733
:1010B00008D0F00706D021686FF0010008612046D3
:1010C00000F028F8280608D5300606D521686FF00C
:1010D000800008612046FFF7DFFD680608D570062E
:1010E00006D521686FF040000861204600F034F812
:1010F000A8060AD5B00608D521686FF0200008615F
:101100002046BDE8F041FFF7C8BDBDE8F08170475B
:101110007047000010B54FF480410C48FFF7AAF962
:101120000B49012802D14FF4FA7048600868002882
:101130000BDD401E0860002807DC64200860BDE865
:10114000104004210348FFF79AB910BD000C01407C
:1011500000000020000801407047FEE730B585B070
:1011600000241C480094019402940394816941F086
:1011700020018161816901F020010491816941F0C0
:1011800004018161816901F004010491816941F0E8
:10119000080181618069104D00F008000490002270
:1011A000FC212846FFF773F9FC2000900120CDE9CF
:1011B00001040320039069462846FFF76BF84FF4BB
:1011C000C040CDE90004694604480294FFF762F884
:1011D00005B030BD0010024000080140000C014085
:1011E00010B586B00024164800940194029403942C
:1011F00004944FF08041059401601321C0E901146B
:1012000040F69F71C0E903148461FFF77BFD08B1CC
:1012100072B6FEE74FF48050009069460848FFF729
:10122000E7FD08B172B6FEE7049404A904480594EA
:10123000FFF734FD002801D072B6FEE706B010BDFE
:101240006C00002010B58CB024216846FEF7BCFF6E
:1012500000241548099413490A94C0E900144FF674
:10126000FF71C0E90241046184610120CDE90004FD
:10127000CDE902040494CDE90540079469460A4883
:101280000894FFF723FE08B172B6FEE7099409A996
:1012900005480A94FFF702FD002801D072B6FEE768
:1012A0000CB010BD00040040B4000020FEE7FEE7D3
:1012B00070477047FFF7E8B910B590B0282168462D
:1012C000FEF782FF14210AA8FEF77EFF022000909D
:1012D0000120049010200024059007946846FFF731
:1012E00037FB08B172B6FEE70F20CDE90A040C9473
:1012F0000D9400210AA80E94FFF75EFA002801D091
:1013000072B6FEE710B010BD704700000148FFF74D
:1013100066BE00006C000020F0B50268194B1A4C44
:101320001A4D4FF08047984205D0B84203D0A042F2
:1013300001D0A84203D122F070064A683243984295
:1013400005D0B84203D0A04201D0A84203D122F474
:101350004074CA6822434C6922F080022243026032
:101360008A68C2620A688262984201D1096901638F
:10137000012141610169C90703D0016921F001011F
:101380000161F0BD002C0140000400400008004055
:1013900010B5846842EA032224F47F440A432243BE
:1013A000826010BD826822F070020A4342F0070199
:1013B0008160704710B5036A046A24F00104046276
:1013C000846924F0F00444EA021423F00A020A4378
:1013D0008461026210BD10B5036A046A24F010042F
:1013E0000462846923F0A00324F4704444EA0232C6
:1013F00043EA01118261016210BDFEE70907090E8F
:10140000002804DB00F1E02080F80014704700F0B1
:101410000F0000F1E02080F8141D7047FFF73CF941
:10142000FFF74AFFFFF79AFE0F480E494FF480423C
:1014300001600E49416000218160C0E903124161F1
:101440008161C1610162FFF72DF808B172B6FEE754
:10145000FFF7C6FEFFF7F6FE03485430FFF79CFC8B
:10146000FEE700000054004018000020A0860100A4
:10147000010202030405060708090A0B0C0D0E0FF2
:101480001010000000000000000001020304060725
:10149000080900000000010203040000BC14000859
:1014A000000000201800000028010008D4140008E3
:1014B00018000020480700004401000864000000F4
:1014C000000000000100000010000000000000000B
:0414D00000127A008C
:04000005080000ED02
:00000001FF
