:020000040800F2
:1000000068070020890100083B1500085B13000801
:1000100039150008BD020008131800080000000090
:100020000000000000000000000000003F15000874
:1000300015030008000000003D1500086D150008BC
:10004000A3010008A3010008A3010008A301000800
:10005000A3010008A301000817030008A30100087A
:10006000A3010008A3010008A3010008A3010008E0
:10007000A3010008A3010008A3010008A3010008D0
:10008000A3010008A3010008A3010008A3010008C0
:10009000A3010008A3010008A3010008A3010008B0
:1000A000A3010008A3010008A3010008A3010008A0
:1000B000C5150008A3010008A3010008A30100085A
:1000C000A3010008A3010008A3010008A301000880
:1000D000A3010008A3010008A3010008A301000870
:1000E000A3010008A3010008A301000800F002F822
:1000F00000F03AF80AA090E8000C82448344AAF188
:100100000107DA4501D100F02FF8AFF2090EBAE885
:100110000F0013F0010F18BFFB1A43F0010318473B
:10012000FC1B00001C1C0000103A24BF78C878C1DA
:10013000FAD8520724BF30C830C144BF04680C60ED
:10014000704700000023002400250026103A28BF35
:1001500078C1FBD8520728BF30C148BF0B60704739
:100160001FB51FBD10B510BD00F058F81146FFF7C0
:10017000F7FF01F08BFB00F076F803B4FFF7F2FF16
:1001800003BC00F07DF8000009488047094800479B
:10019000FEE7FEE7FEE7FEE7FEE7FEE7FEE7FEE737
:1001A000FEE7FEE704480549054A064B7047000094
:1001B000C1150008ED000008680100206807002054
:1001C00068030020680300204FF0000200B51346CA
:1001D00094469646203922BFA0E80C50A0E80C5067
:1001E000B1F12001BFF4F7AF090728BFA0E80C5018
:1001F00048BF0CC05DF804EB890028BF40F8042B11
:1002000008BF704748BF20F8022B11F0804F18BF7D
:1002100000F8012B7047704770477047754600F033
:100220002BF8AE4605006946534620F00700854688
:1002300018B020B5FFF7B6FFBDE820404FF000062C
:100240004FF000074FF000084FF0000B21F00701BE
:10025000AC46ACE8C009ACE8C009ACE8C009ACE801
:10026000C0098D46704710B50446AFF300802046A4
:10027000BDE81040FFF781BF00487047080100202B
:1002800001491820ABBEFEE72600020070470000BF
:1002900010B5094C01224021204600F068F90022E7
:1002A0008021204600F063F920460122BDE810407D
:1002B000202100F05CB9000000080140FEE70000CA
:1002C00010B5124CA068B0F5000F06DB00F026F860
:1002D000A26808210E4801F09DFAA06810F1FF4FB6
:1002E00006D3FFF7D5FFA2680821094801F092FA6A
:1002F000A06810F0FF4F08D101F022F9A268BDE814
:1003000010400821024801F085BA10BD000000200D
:10031000C00000207047012000F028B810B5094C3B
:1003200000224021204600F022F9012280212046AF
:1003300000F01DF920460122BDE81040202100F008
:1003400016B900000008014010B50221054800F070
:1003500009F905490028086902D0401C086110BD50
:10036000401EFBE70008014000000020044910B5D2
:100370000A68024202D00860FFF7E6FF10BD0000E5
:10038000140401402DE9F84FDFF8B8910024A9F1D9
:10039000040B23460F2709F1040AABF1040EC9E050
:1003A0000125A5402A40AA427DD1674ED1F804C05C
:1003B000ACEB0608B44532D014DCBCF1030F3AD0E4
:1003C00009DCBCF1000F2AD0BCF1010F1CD0BCF13C
:1003D000020F31D11DE0BCF1110F17D0BCF1120F8B
:1003E0002AD119E0B8F5881F19D006DCB8F5803F8E
:1003F00015D0B8F5801F1FD111E0B8F5001F0ED041
:10040000B8F5041F18D10AE0CB6815E0CB681B1DB6
:1004100012E0CB6808330FE0CB680C330CE08B683C
:100420002BB1012B4FF0080303D0456104E00423F6
:1004300002E0056100E00023FF2A01D8064601E042
:1004400000F104064FEA840501D9A5F12005D6F88C
:10045000008007FA05FC28EA0C0803FA05F548EACB
:100460000508C6F800804D68ED0062D5374DAE69CD
:1004700046F00106AE61AD6924F0030605F0010502
:100480000095334D06EB050CDCF80850A607360F37
:1004900007FA06F825EA0805DFF8B880404503D1D9
:1004A0004FF0000817E044E0DFF8AC80404502D18F
:1004B0004FF001080FE0DFF8A480404502D14FF073
:1004C000020808E0DFF89880404502D14FF00308A9
:1004D00001E04FF0040808FA06F848EA0508CCF8ED
:1004E00008804D68D9F80060ED024D4601D51643ED
:1004F00000E096432E604D68DAF80060AD02554684
:1005000001D5164300E096432E604D68DBF800608D
:10051000AD035D4601D5164300E096432E604D685D
:10052000DEF80060ED03754601D5164300E0964302
:100530002E60641C0D682A46E5407FF431AFBDE8AB
:10054000F88F000008040140000011100010024064
:100550000000014000080140000C01400010014073
:10056000001401408068084000D0012070470AB1A3
:10057000016170470904FBE701488068704700008B
:100580001400002070B5040025D094F83D0000252B
:1005900020B984F83C50204600F0B8F8242084F8B4
:1005A0003D002068016821F00101016020680168B8
:1005B00041F4004101602068016821F400410160BC
:1005C00000F000FA4D4A6168914201D84C4900E0C0
:1005D0004C49884201D2012070BD4B492368B0FBD1
:1005E000F1F15E6826F03F060E435E606368934259
:1005F00006D94FF4967359434FF47A73B1FBF3F174
:100600002368491C1E6A26F03F063143196261685F
:10061000914210D84900401EB0FBF1F2521CC2F3C7
:100620000B02042A01D2042022E0B0FBF1F0401CAE
:10063000C0F30B001CE0A268F2B301EBC10303EBB3
:100640000116431EB3FBF6F35B1C43F480431B050A
:1006500049D092B301EBC10202EB0111401EB0FB85
:10066000F1F0401CC0F30B0040F4804040F4004027
:100670002168CA694CF6FF739A431043C861D4E9F4
:10068000071001432068026822F0C0021143016094
:10069000D4E9030101432068826848F2FF339A439A
:1006A00011438160D4E9050108432168CA6822F03A
:1006B000FF021043C86001E00EE016E02068016808
:1006C00041F0010101602564202084F83D0025638C
:1006D00084F83E50002070BD01EB4106431EB3FB81
:1006E000F6F35B1CB3E70120C2E701EB4101401EBA
:1006F000B0FBF1F0401CC0F30B00B7E7A08601008F
:1007000080841E0000093D0040420F0010B586B0F5
:100710000021009101910291039100680F498842E4
:100720001AD10F4CA06940F00800A061A069694689
:1007300000F008000490C0200090122001900320D7
:1007400003900848FFF71EFEE06940F40010E061E6
:10075000E06900F40010049006B010BD00540040A1
:1007600000100240000C01400248816802781144E8
:100770008160704714000020074810B5016841F0FF
:1007800010010160032000F075F80F2000F006F85A
:1007900000F024F8002010BD0020024070B50D4D7F
:1007A00004464FF47A712878B1FBF0F00A490968E1
:1007B000B1FBF0F000F0CCFA48B9102C07D20022BF
:1007C0002146501E00F036F800206C6070BD0120FC
:1007D00070BD000014000020200000200C4808B567
:1007E000816941F001018161816901F0010100919C
:1007F000C16941F08051C161C06900F08050009032
:100800000448416821F0E06141F00071416008BD99
:100810000010024000000140002809DB00F01F0228
:10082000012191404009800000F1E020C0F8001152
:1008300070470000F0B40E4B1B680C46C3F3022354
:10084000C3F10705042D00D90425191D072901D27C
:10085000002300E0DB1E012606FA05F1491E2140B7
:1008600099409E40761E16403143F0BC00F0FEBF1A
:100870000CED00E0064900F0070208684FF6FF03A0
:10088000184040EA0220034A104308607047000005
:100890000CED00E00000FA052DE9F0470F460500D9
:1008A00061D0434E306800F00700B84209D230688A
:1008B00020F0070038433060306800F00700B8428D
:1008C00051D128683B4C810712D5400703D5606899
:1008D00040F4E06060602878000703D5606840F469
:1008E000605060606068A96820F0F00008436060B4
:1008F0002878C00728D06868012810D0216802280D
:1009000010D0890700292EDA616821F00301014324
:100910006160FFF731FE804641F288390DE02168C1
:100920008903EFE78901EDE7FFF726FEA0EB080159
:10093000494502D90320BDE8F0876068696800F086
:100940000C00B0EB810FEFD1306800F00700B84227
:100950000BD9306820F0070038433060306800F071
:100960000700B84201D00120E5E72878400705D507
:100970006068E96820F4E060084360602878000758
:1009800006D56068296920F4605040EAC1006060C3
:1009900000F028F86168084AC1F30311515CC840AF
:1009A0000649086006480068FFF7F8FE0020C2E725
:1009B0000020024000100240021D0008200000201C
:1009C000180000200448054900684968044AC1F33A
:1009D0000221515CC84070472000002000100240F6
:1009E000121D00080E4A51680E4801F00C03042B3A
:1009F00011D0082B0FD10C48C1F38343C903C05C4D
:100A00000AD55168084AC1F34041921E515C054A1B
:100A10005043B0FBF1F07047044948437047000071
:100A20000010024000127A00F21C000800093D008C
:100A30002DE9F84F040070D02078C04DC00749D090
:100A40006868C0F38100012807D06868C0F381009E
:100A5000022809D16868C00306D52868800339D503
:100A600060680028E7D035E06068B0F5803F0BD0C3
:100A700010B1B0F5A02F11D0286820F48030286084
:100A8000286820F4802002E0286840F48030286044
:100A9000606890B1FFF770FD06460AE0286840F4F0
:100AA00080202860F0E700BFFFF766FD801B642808
:100AB00073D828688003F7D50CE0FFF75DFD064684
:100AC00005E000BFFFF758FD801B6428F0D82868B8
:100AD0008003F7D420789A4E80074FF001094FF039
:100AE000000839D5686810F00C0F07D06868C0F3AB
:100AF0008100022809D16868C00306D428688007ED
:100B000014D52069012808D110E02069B0B1C6F8D9
:100B10000090FFF731FD074605E00AE1FFF72CFDE5
:100B2000C01B0228C4D828688007F7D528686169E7
:100B300020F0F80040EAC10028600DE0C6F800800F
:100B4000FFF71AFD074604E0FFF716FDC01B022859
:100B500023D828688007F7D4207800072CD5794857
:100B6000A169D9B1C0F80090FFF706FD074604E07F
:100B7000FFF702FDC01B02280FD8686A8007F7D56F
:100B800071484FF4FA510068B0FBF1F0009000BFDB
:100B90000098411E0091FAD20EE080E0C0F800807B
:100BA000FFF7EAFC074604E0FFF7E6FCC01B02285B
:100BB00075D8686A8007F7D42078400760D5E8695F
:100BC0000027C00008D4E86940F08050E861E86977
:100BD000012700F0805000905C480168C90513D4DB
:100BE0000168834641F480710160FFF7C5FC8246CD
:100BF00006E000BFFFF7C0FCA0EB0A0064284ED857
:100C0000DBF80000C005F5D5E06801280AD008B17E
:100C1000052813D0286A20F001002862286A20F0F5
:100C2000040002E0286A40F001002862E06841F216
:100C3000883B98B1FFF7A0FC82460BE0286A40F0A1
:100C400004002862EEE700BFFFF796FCA0EB0A0164
:100C500059455AD8286A8007F6D50CE0FFF78CFC76
:100C6000824605E0FFF788FCA0EB0A0159454CD805
:100C7000286A8007F6D41FB1E86920F08050E86147
:100C8000E06988B36968C1F38101022944D0022870
:100C9000C6F8608004D0FFF76FFC044638E034E00B
:100CA000FFF76AFC074604E0FFF766FCC01B02285A
:100CB0002BD828688001F7D4206AB0F5803F05D191
:100CC0006868A16820F4003008436860D4E908012E
:100CD0000843696821F4741108436860C6F860909D
:100CE000FFF74AFC044606E025E000BFFFF744FC9E
:100CF000001B022809D828688001F7D51BE000BF37
:100D0000FFF73AFC001B022802D90320BDE8F88F48
:100D100028688001F4D40EE00128F7D06868226AC0
:100D200000F48031914204D1616A00F4701088426D
:100D300001D00120EAE70020E8E7000000100240AF
:100D40000000424280044242200000200070004027
:100D500010B5401EB0F1807F01D3012010BD4FF0CF
:100D6000E02460610F21601700F080FD0020A06189
:100D700007202061002010BD7047704770B590F8C3
:100D80003C20012A26D0012480F83C40022280F831
:100D90003D2003685A689D6822F070060A68324355
:100DA0005A600D4B02689A4208D0B2F1804F05D0CC
:100DB0000A4B9A4202D00A4B9A4204D1496825F064
:100DC00080031943916080F83D40002180F83C1079
:100DD000084670BD022070BD002C01400004004098
:100DE0000008004010B5040003D094F83D0010B195
:100DF00007E0012010BD002084F83C00204600F0F0
:100E00001FF8022084F83D00211D206800F0E0FB5F
:100E1000012084F8460084F83E0084F83F0084F8FE
:100E2000400084F8410084F8420084F8430084F8CC
:100E3000440084F8450084F83D00002010BD000007
:100E400008B501681048B1F1804F0BD00F4A9142AC
:100E500007D1C16941F00401C161C06900F004001B
:100E6000009008BDC16941F00101C161C069002263
:100E700000F00100009011461C20FFF7DBFCBDE8EC
:100E800008401C20FFF7C8BC0010024000080040CA
:100E900090F83D10012901D001207047022180F80F
:100EA0003D100168CA6842F00102CA6000680B493F
:100EB000884208D0B0F1804F05D00949884202D05D
:100EC0000849884204D1816801F00701062903D04E
:100ED000016841F00101016000207047002C0140D1
:100EE000000400400008004070B5044690F83C0043
:100EF0000025012817D0012684F83C60022084F8E0
:100F00003D002068826822F0770222F47F428260EE
:100F10000868502838D00DDC20284FD005DC90B36D
:100F2000102811D14AE0022070BD302846D0402858
:100F30000AD13BE060282FD070280DD0B0F5805F3B
:100F400003D0B0F5005F12D0012584F83D60002089
:100F500084F83C00284670BDCB68D1E901212068A7
:100F600000F07FFB2068816841F0770109E0CB68E1
:100F7000D1E90121206800F074FB2068816841F408
:100F800080418160E1E719E0CA684968206800F0A3
:100F90001DFC5021206806E0CA684968206800F0FE
:100FA00026FC6021206800F066FBCEE7CA6849682D
:100FB000206800F00BFC40212068F4E7226801461D
:100FC0001046F0E770472DE9F04104460068C66816
:100FD00005694FF00007A90713D5B10711D5F91E10
:100FE000016101202077206880698007204602D0B7
:100FF000FFF7E8FF04E000F0A5F8204600F037F91D
:101000002777680716D5700714D521686FF004009C
:101010000861022020772068806910F4407F204614
:1010200002D0FFF7CFFF04E000F08CF8204600F07C
:101030001EF92777280715D5300713D521686FF0DB
:1010400008000861042020772068C06980072046D6
:1010500002D0FFF7B7FF04E000F074F8204600F07C
:1010600006F92777E80616D5F00614D521686FF043
:1010700010000861082020772068C06910F4407FC4
:10108000204602D0FFF79EFF04E000F05BF8204608
:1010900000F0EDF82777E80708D0F00706D02168C0
:1010A0006FF001000861204600F030F9280608D5ED
:1010B000300606D521686FF0800008612046FFF7F2
:1010C0005BFE680608D5700606D521686FF0400003
:1010D0000861204600F040F9A8060AD5B00608D5F8
:1010E00021686FF0200008612046BDE8F041FFF75D
:1010F00044BEBDE8F081000000B585B0002100913C
:1011000001910291039100680B49884212D10B486A
:10111000816941F0080181618069694600F0080039
:1011200004904FF4807000900220019003900448D6
:10113000FFF728F905B000BD00080040001002408C
:10114000000C0140704770B5044690F83C00002642
:101150000D4601280FD0012084F83C006AB1042A12
:101160001DD0082A2FD00C2A3FD00126002084F859
:101170003C00304670BD022070BD206800F084FA4B
:101180002068816941F0080181612068816921F04E
:1011900004018161206881692A69114311E0206896
:1011A00000F09AFA2068816941F400618161206849
:1011B000816921F480618161206881692A6941EA3D
:1011C00002218161D2E7206800F0B2FA2068C1698B
:1011D00041F00801C1612068C16921F00401C161C9
:1011E0002068C1692A69114311E0206800F0CCFA37
:1011F0002068C16941F40061C1612068C16921F4BE
:101200008061C1612068C1692A6941EA0221C16126
:10121000ACE710B5040003D094F83D0010B107E02E
:10122000012010BD002084F83C00204600F01EF88C
:10123000022084F83D00211D206800F0C9F901203A
:1012400084F8460084F83E0084F83F0084F84000AB
:1012500084F8410084F8420084F8430084F8440094
:1012600084F8450084F83D00002010BD70477047A9
:1012700010B50446022249B104290ED0082913D022
:1012800094F84100012816D0012010BD94F83E00CA
:101290000128F9D184F83E200FE094F83F0001289E
:1012A000F2D184F83F2008E094F840000128EBD107
:1012B00084F8402001E084F841200122206800F0F9
:1012C000C3F90F492068884203D1426C42F40042BE
:1012D00042642068884208D0B0F1804F05D00949A7
:1012E000884202D00849884204D1816801F0070190
:1012F000062903D0016841F001010160002010BD02
:10130000002C0140000400400008004010B50F4CC4
:101310002069A080E088A188401A2080B4F90000EC
:1013200000F0EEFBE16800F017FCA060A16808483F
:10133000814200DDA060A1680648814200D9A0601A
:1013400020886080BDE81040FEF7BABF0000002092
:1013500000002042000020C27047FEE7F0B585B0D3
:10136000002431480094019402940394816941F06F
:1013700020018161816901F020010491816941F0BE
:1013800004018161816901F004010491816941F0E6
:10139000080181618069254F00F008000490002257
:1013A000FC213846FFF7E3F8012621480096CDE9F5
:1013B000010469463846FEF7E5FF0225CDE90054F1
:1013C000694638460294FEF7DDFFFC20CDE90006B1
:1013D0000320CDE9024069463846FEF7D3FF4FF4BB
:1013E0006040CDE900040294124C69462046FEF7A5
:1013F000C9FF3020CDE90005694620460395FEF778
:10140000C1FF0D48416821F4406141F0E06141F4C1
:1014100000614160002211460620FFF70BFA06200A
:10142000FFF7FAF905B0F0BD0010024000080140D6
:1014300000002110000C01400000014010B586B0F2
:1014400000241648009401940294039404944FF0ED
:101450008041059401600821C0E9011442F2107135
:10146000C0E903148461FFF7BDFC08B172B6FEE762
:101470004FF48050009069460848FFF735FD08B1E9
:1014800072B6FEE7049404A904480594FFF776FCBD
:10149000002801D072B6FEE706B010BD780000202B
:1014A00010B58EB000240794089409940A940B9404
:1014B0001C2168460C94FEF787FE1E481C490160FB
:1014C0000821C0E901144FF47A71C0E90314846162
:1014D000FFF788FC08B172B6FEE74FF48050079022
:1014E00007A91448FFF700FD08B172B6FEE71148DE
:1014F000FFF78FFE08B172B6FEE70B940BA90D48FB
:101500000C94FFF73BFC08B172B6FEE76020CDE912
:10151000000402940822694606480494FFF713FE6B
:1015200008B172B6FEE70348FFF7E6FD0EB010BD46
:1015300000080040C0000020FEE7FEE7704770474B
:1015400010B5094C002240212046FFF710F8002278
:1015500080212046FFF70BF820460022BDE810400E
:101560002021FFF704B8000000080140FFF7FCB895
:1015700010B590B028216846FEF726FE14210AA86F
:10158000FEF722FE0220009001200490102000248B
:10159000059007946846FFF74BFA08B172B6FEE76C
:1015A0000F20CDE90A040C940D9400210AA80E9492
:1015B000FFF772F9002801D072B6FEE710B010BD37
:1015C000704700000148FFF7FEBC000078000020D3
:1015D000F0B50268194B1A4C1A4D4FF080479842EB
:1015E00005D0B84203D0A04201D0A84203D122F0D6
:1015F00070064A683243984205D0B84203D0A042F0
:1016000001D0A84203D122F44074CA6822434C6935
:1016100022F08002224302608A68C2620A68826203
:10162000984201D109690163012141610169C9073A
:1016300003D0016921F001010161F0BD002C0140DE
:10164000000400400008004010B501F01F03012114
:10165000046A99408C430462016A9A401143016212
:1016600010BD10B5846842EA032224F47F440A4383
:101670002243826010BD826822F070020A4342F069
:10168000070181607047000030B5036A026A22F0EA
:10169000010202624268846924F073050C682C43DD
:1016A00023F002058B682B430A4DA8420BD123F08F
:1016B0000805CB6822F440722B434D6923F00403E4
:1016C00015438A692A434260846149684163036221
:1016D00030BD0000002C014030B5026A036A23F0DF
:1016E00010030362436884690D6824F4E64444EA05
:1016F00005248D6822F0200242EA05120B4DA84213
:101700000ED1CD6822F0800242EA05124D6923F421
:10171000406343EA85038D6922F0400243EA850372
:101720004360846149688163026230BD002C0140DE
:1017300030B5036A026A22F4807202624268C469A8
:1017400023F4007324F073050C682C438D6843EA7E
:1017500005230C4DA8420ED1CD6823F4006343EA63
:1017600005234D6922F4405242EA05128D6923F4A3
:10177000806342EA05124260C4614968C163036242
:1017800030BD0000002C014030B5046A026A22F42A
:10179000805202624268C3690D6823F4E64343EA5B
:1017A00005238D6824F4005444EA0534064DA8420C
:1017B00004D14D6922F4804242EA85124260C3613D
:1017C00049680164046230BD002C014010B5036A11
:1017D000046A24F001040462846924F0F00444EAF9
:1017E000021423F00A020A438461026210BD10B59C
:1017F000036A046A24F010040462846923F0A003DD
:1018000024F4704444EA023243EA01118261016225
:1018100010BDFEE72DE9F041046817460D46E06A69
:1018200000F086F906461049384600F087F8314640
:1018300000F092F94DB1042D0CD0082D0FD000F01E
:101840003FF980B22064BDE8F08100F039F980B240
:101850006063F8E700F034F980B2A063F3E700F0CA
:101860002FF980B2E063EEE70000C8420907090ED5
:10187000002804DB00F1E02080F80014704700F03D
:101880000F0000F1E02080F8141D7047FEF774FF90
:10189000FFF76EFEFFF762FD244823494FF48045B1
:1018A00001602349416000218160C0E90315416165
:1018B0008161C1610162FEF765FE08B172B6FEE7A3
:1018C000FFF7BCFDFFF7ECFD18485430FFF7E0FAD6
:1018D000164808219C30FFF7CBFC1448154A082114
:1018E0009C30FFF797FF4FF40056134CB70031467A
:1018F0002046FEF737FE18B131462046FEF732FE8D
:1019000029462046FEF72EFE18B129462046FEF74E
:1019100029FE39462046FEF725FE0028E7D0394645
:101920002046FEF71FFEE2E700540040240000209E
:10193000A08601000000F041000C01404FF47F0C34
:101940001CEAD0121EBF1CEAD11392EA0C0F93EAD4
:101950000C0F00F0858090EA010F48BF42F48072BE
:1019600040F4000C41F400002CF07F4120F07F4057
:1019700000B58142A2EB03020FF2081CACEB504E03
:10198000C0F100009EF800E04FEA4E0E00FB0EFC96
:1019900038BF49004FEA2C1C02F5FA020CFB0EF38B
:1019A0004FEACE1E4FEA112C4FEAC1210EEB635EC7
:1019B00042EB22420EFB0CFC4FEA1C5300FB0311CE
:1019C0004FEA112C4FEA01310EFB0CFC4FEADC4CC4
:1019D00000FB0C11C14228BF09184CEB03335DF822
:1019E00004EB10EB410143EBC250B2F57C0F38BF62
:1019F000704729D512F0F00F1CBF00F1C04000F075
:101A000000407047008182838485868788898B8C1B
:101A10008D8E8F919293959697999A9C9D9FA0A257
:101A2000A3A5A7A8AAACAEB0B2B3B5B7B9BCBEC0A7
:101A3000C2C5C7C9CCCED1D4D7D9DCDFE2E6E9EC48
:101A4000F0F3F7FAFE0000004FEA400C0CF1807C46
:101A5000BCF17E4F28BF7047B0F1C04000F043B9E1
:101A600090EA010F0CEAD11348BF42F4807262453C
:101A700038BF634507D213F47F0F16D080EA010008
:101A800000F00040704710B500F0E7F8097EFC3E1A
:101A900000F005B880EA010000F00040704780EADD
:101AA000010000F0004000F01EB912F47F0F04BFE7
:101AB0000248704780EA010000F015B90000C07FBD
:101AC000C10DD1F19E0206DB4FEA002343F0004333
:101AD00023FA02F07047004207D54FEA4001B1F106
:101AE000FE4F02D24FF00000704710B500F0B5F87D
:101AF00049922480002070476FEA20007047000060
:101B000010F0004148BF4042B0FA80F310FA03F2EF
:101B1000C3F19D030BD051EAC35101EB12205306D0
:101B200038BF704700F1010008BF20F00100704786
:101B3000B0FA80F310FA03F2C3F19D030AD0D9057D
:101B400001EB1220530638BF704700F1010008BFB7
:101B500020F00100704700004FF47F0C1CEAD01207
:101B60001EBF1CEAD11392EA0C0F93EA0C0F00F08F
:101B7000478090EA010F48BF42F480724FF0004C5A
:101B80004CEA00204CEA012102EB0302A0FB011306
:101B9000A2F50002002918BF43F001035B0028BF33
:101BA0004FEA330342EB22425FEA132C4CEBC25064
:101BB0002EBFBCEB436FB2F57C0F70474FEA036C4E
:101BC000BCF1004F08BF20F00100B2F57C0F38BF18
:101BD00070470BD582F0FF0212F5803FC8BF7047F7
:101BE00000F1C040D8BF00F00040704700F5000C85
:101BF0005FEA4C0C48BF7047B0F1C04000F073B8CA
:101C000090EA010F0CEAD11348BF42F4807262459A
:101C100038BF634504D280EA010000F000407047FD
:101C200010B500F01AF800BF8900013E00F007B8B7
:101C300000F009B85FEA410C5FEA1C6C08D080EA4A
:101C4000010000F050B85FEA400C5FEA1C6CF6D16E
:101C50004FF00040A0F5800070470EF1020E2EF00C
:101C6000030E5EF8044B244204D44FEA4102B2F161
:101C70007F4F11D84FEA4003B3F17F4F0CD80ED1FC
:101C80004FEAD07CB2F17F4F0CEB4C0C0CF1020C04
:101C900008BF4CEBD17C04E04FF0080C01E04FEAA8
:101CA000D17C0CEB4C0324FA03F404F00704B4F1E8
:101CB000040C06D20EEB840CBDE810404CF0010C75
:101CC0006047DFE80CF0070802024FF00040A0F583
:101CD000800010BD0846420018BFD2F1807288BF54
:101CE00000F0004010BDFF2141EAD050C005704710
:101CF000010202030405060708090A0B0C0D0E0F6A
:101D0000101000000000000000000102030406079C
:101D10000809000000000102030400003C1D000847
:101D2000000000202400000028010008601D0008B9
:101D300024000020440700004401000800000000C7
:101D40000000900100000000713DCA3E000000004C
:101D500001000000100000000000000000127A00E6
:04000005080000ED02
:00000001FF
