:020000040800F2
:100000006008002091010008A7230008CB1E00080B
:10001000A52300081D0500080B27000800000000AC
:10002000000000000000000000000000FB230008AA
:100030002D05000800000000F92300083124000805
:10004000AB010008AB010008AB010008AB010008E0
:10005000AB010008AB010008AB010008AB010008D0
:10006000AB010008AB010008AB0100082105000846
:10007000AB010008AB010008AB010008AB010008B0
:10008000AB010008AB010008AB010008AB010008A0
:10009000AB010008AB010008AB010008AB01000890
:1000A000AB010008AB010008AB010008AB01000880
:1000B000B1240008BD240008AB010008AB01000812
:1000C000AB010008AB010008AB010008AB01000860
:1000D000AB010008AB010008AB010008AB01000850
:1000E000AB010008AB010008AB01000800F002F80A
:1000F00000F03FF80AA090E8000C82448344AAF183
:100100000107DA4501D100F034F8AFF2090EBAE880
:100110000F0013F0010F18BFFB1A43F0010318473B
:10012000B0380000D0380000103A24BF78C878C139
:10013000FAD8520724BF30C830C144BF04680C60ED
:10014000704700000023002400250026103A28BF35
:1001500078C1FBD8520728BF30C148BF0B60704739
:10016000642900F07D80002070471FB51FBD10B5C9
:1001700010BD00F052F91146FFF7F7FF02F0C0FB87
:1001800000F070F903B4FFF7F2FF03BC00F078F958
:100190000948804709480047FEE7FEE7FEE7FEE71B
:1001A000FEE7FEE7FEE7FEE7FEE7FEE70448054957
:1001B000054A064B70470000AD240008ED0000081A
:1001C000600200206008002060040020600400201D
:1001D0000FB41CB5074B06AA7B44694600900598EE
:1001E00000F003F90020694600F012F91CBC5DF82C
:1001F00014FB0000350200002DE9F0410E460446D4
:10020000002020622046E168884730B3252805D0C9
:10021000D4E901219047206A401CF2E7E1682046BA
:1002200000278847050018D0A5F14100192802D8F9
:1002300020354FF400673246294620462760FFF7F5
:100240008FFF40B1012804D0F61D26F007060836BE
:10025000D8E7361DD6E72846DAE7206ABDE8F08100
:100260002DE9F0410646002410687529314616A58F
:1002700010D0AFF30080002802DA404213A507E057
:1002800031688A0701D512A502E0490704D511A5F6
:10029000012401E0AFF3008000210A2206F12407C7
:1002A00009E0B0FBF2FCB0FBF2F302FB1C003030C3
:1002B00078541846491C0028F3D123462A46304674
:1002C000BDE8F04100F032B8000000002D00000051
:1002D0002B000000200000004FF0000200B5134684
:1002E00094469646203922BFA0E80C50A0E80C5056
:1002F000B1F12001BFF4F7AF090728BFA0E80C5007
:1003000048BF0CC05DF804EB890028BF40F8042BFF
:1003100008BF704748BF20F8022B11F0804F18BF6C
:1003200000F8012B70477047704770472DE9F04780
:100330000D4699469246044600F124080168880655
:1003400004D5E06921F01001216000E00120A842FD
:1003500001DD471B00E00027A1697A1902EB0900C3
:10036000081AA0612078C00602D42046AFF30080AE
:10037000002608E0D4E901211AF806009047206A17
:10038000401C761C20624E45F4DB2078C0060AD55E
:100390002046AFF3008006E0D4E9012130209047E9
:1003A000206A401C2062381EA7F10107F4DC07E038
:1003B000D4E9012118F805009047206A401C20620A
:1003C000281EA5F10105F3DC2046AFF3008020785C
:1003D000000602D50220BDE8F0870120FBE70000FF
:1003E00001694A1C02610878704700B58FB0CDE9F9
:1003F00001310021059105497944CDE903101146E9
:100400006846FFF7F9FE0FB000BD0000E5FFFFFFF3
:100410000A6802F8010B0A607047754600F02CF874
:10042000AE4605006946534620F00700854618B0E1
:1004300020B5FFF7BBFEBDE820404FF000064FF0AF
:1004400000074FF000084FF0000B21F00701AC4609
:10045000ACE8C009ACE8C009ACE8C009ACE8C00928
:100460008D46704710B50446AFF300802046BDE8C6
:100470001040FFF787BE000000487047FC010020D5
:1004800001491820ABBEFEE72600020070470000BD
:1004900070B5044600688168C943C90717D18168EF
:1004A00021F00101816000F093FB05460AE000BFE6
:1004B00000F08EFB401B022804D920688068C043EE
:1004C000C00706D020688068C043C007F0D0002075
:1004D00070BDA06A40F01000A062E06A40F0010028
:1004E000E062012070BD000010B50B4C01224021DC
:1004F000204600F067FB00228021204600F062FBCE
:1005000001220821204600F05DFB20460022BDE8C4
:100510001040102100F056BB00080140FEE700002B
:10052000014800F075B90000B8010020704772B6AC
:10053000FEE7000010B50B4C00224021204600F0E1
:1005400041FB01228021204600F03CFB00220821D3
:10055000204600F037FB20460122BDE81040102164
:1005600000F030BB00080140F8B50024009490F87A
:1005700024202546012A12D0012280F824204A682E
:100580001F23072A0DD20668776B521E02EB8202E8
:1005900093409F430B6893401F43776319E0022009
:1005A000F8BD06680D2A0AD2376BD21F02EB820211
:1005B00093409F430B6893401F43376309E0F76AFA
:1005C0000D3A02EB820293409F430B6893401F4316
:1005D000F7620A68072306680A2A0AD3F7680A3A04
:1005E00002EB420293409F438B6893401F43F760A6
:1005F00008E0376902EB420293409F438B689340C7
:100600001F4337610A68102A01D0112A20D1124BEA
:1006100002689A4217D193681B0219D4936843F475
:10062000000393600968102912D10C490C4A09682B
:10063000B1FBF2F101EB8101490000E0491E00919C
:100640000029FBD104E0816A41F02001816201248C
:1006500080F824502046F8BD0024014058000020B6
:1006600040420F002DE9F0414FF0000704003D46E5
:100670007ED0A06A002628B9E66284F8246020466D
:1006800000F07EF82046FFF703FFA16AC90600D4F8
:1006900020B1A06A40F01000A06269E0A16A21F4D4
:1006A000885141F00201A1626268E169237B0A433B
:1006B00047EA43010A43A1684FF48077B94209D061
:1006C000012907D05FF0000194F814C0BCF1010FBC
:1006D00002D00AE03946F7E7F3B1A36A43F02003FA
:1006E000A362E36A43F00103E3622368D3F804C022
:1006F0002CF4694C4CEA010CC3F804C021688B68E7
:10070000DFF870C003EA0C0313438B60A168B942A1
:100710000BD0012909D00CE0DFF85CC0A3690CEB19
:1007200043330B4343F40061DFE7218A0D05A5F550
:1007300080152168CB6A23F470032B43CB622168B8
:1007400089680E4B1940914208D1E662A16A21F0F6
:10075000020141F00101A162BDE8F081A06A20F030
:10076000020040F01000A062E06A40F00100E06288
:100770000120F1E7FDF7E1FF00E0FFFFFE0E1FFFA4
:1007800070B586B000250646009501950295039543
:1007900000681A4988422ED11949886940F40070CE
:1007A0008861886900F400700490886940F008004E
:1007B00088618869694600F0080004900220009072
:1007C000032001900F4800F00DF9104C0E48C4E9C9
:1007D00000058020C4E90250400020618000606173
:1007E0002020C4E90605204600F0BCF808B1FFF758
:1007F0009EFE3462666206B070BD000000240140B7
:1008000000100240000C014008000240B801002026
:100810002DE9F05FC16B0C6801680B68D0F840C02F
:10082000042202FA0CF2494DDFF824A1494E4A4F46
:10083000DFF828B1DFF828E122422CD05A072AD568
:100840000A68920603D40A6822F004020A6001686A
:10085000A94201D1042219E0514501D1402215E0FD
:10086000B14202D14FF4806210E0B94202D14FF49C
:1008700080420BE0594502D14FF4802206E07145D9
:1008800002D14FF4800201E04FF080622F49083915
:100890004A60C16A3BE04FF0020808FA0CF818EA17
:1008A000040F4FF000094FF0010235D05FEA837862
:1008B00032D50B689B0605D40B6823F00A030B6046
:1008C00080F821200168A94201D1022219E0514596
:1008D00001D1202215E0B14202D14FF4007210E0A4
:1008E000B94202D14FF400520BE0594502D14FF406
:1008F000003206E0714502D14FF4001201E04FF0E2
:100900000072124908394A6080F82090816A0029F3
:100910001AD0BDE8F05F0847082505FA0CF5254216
:1009200012D01B0710D50B6823F00E030B6090F854
:100930004010C36B02FA01F15960826380F82120F4
:1009400080F82090016BE2E7BDE8F09F08000240CC
:100950001C000240300002404400024058000240A7
:100960006C00024030B528B308C81349142219445A
:10097000B1FBF2F18900C163104981630221417723
:100980001A6843F6F0718A43D0E900142143D0E994
:1009900002452C432143046921434469214384696E
:1009A00021431143196000214163012242770177FD
:1009B000084630BD012030BDF8FFFDBF00000240F9
:1009C00070B5044600F004F90546601C02D00448E6
:1009D0000078044400F0FCF8401BA042FAD370BD3C
:1009E0004C0000202DE9F84FDFF8B8910024A9F160
:1009F000040B23460F2709F1040AABF1040EC9E0EA
:100A00000125A5402A40AA427DD1674ED1F804C0F5
:100A1000ACEB0608B44532D014DCBCF1030F3AD07D
:100A200009DCBCF1000F2AD0BCF1010F1CD0BCF1D5
:100A3000020F31D11DE0BCF1110F17D0BCF1120F24
:100A40002AD119E0B8F5881F19D006DCB8F5803F27
:100A500015D0B8F5801F1FD111E0B8F5001F0ED0DA
:100A6000B8F5041F18D10AE0CB6815E0CB681B1D50
:100A700012E0CB6808330FE0CB680C330CE08B68D6
:100A80002BB1012B4FF0080303D0456104E0042390
:100A900002E0056100E00023FF2A01D8064601E0DC
:100AA00000F104064FEA840501D9A5F12005D6F826
:100AB000008007FA05FC28EA0C0803FA05F548EA65
:100AC0000508C6F800804D68ED0062D5374DAE6967
:100AD00046F00106AE61AD6924F0030605F001059C
:100AE0000095334D06EB050CDCF80850A607360FD1
:100AF00007FA06F825EA0805DFF8B880404503D173
:100B00004FF0000817E044E0DFF8AC80404502D128
:100B10004FF001080FE0DFF8A480404502D14FF00C
:100B2000020808E0DFF89880404502D14FF0030842
:100B300001E04FF0040808FA06F848EA0508CCF886
:100B400008804D68D9F80060ED024D4601D5164386
:100B500000E096432E604D68DAF80060AD0255461D
:100B600001D5164300E096432E604D68DBF8006027
:100B7000AD035D4601D5164300E096432E604D68F7
:100B8000DEF80060ED03754601D5164300E096439C
:100B90002E60641C0D682A46E5407FF431AFBDE845
:100BA000F88F0000080401400000111000100240FE
:100BB0000000014000080140000C0140001001400D
:100BC000001401400AB1016170470904FBE700000D
:100BD00001488068704700004C00002070B5040098
:100BE00025D094F83D00002520B984F83C502046DB
:100BF00000F04EF9242084F83D002068016821F0BF
:100C0000010101602068016841F400410160206831
:100C1000016821F40041016000F00CFB4D4A61685D
:100C2000914201D84C4900E04C49884201D2012050
:100C300070BD4B492368B0FBF1F15E6826F03F06BA
:100C40000E435E606368934206D94FF4967359432E
:100C50004FF47A73B1FBF3F12368491C1E6A26F046
:100C60003F06314319626168914210D84900401E25
:100C7000B0FBF1F2521CC2F30B02042A01D2042091
:100C800022E0B0FBF1F0401CC0F30B001CE0A268B6
:100C9000F2B301EBC10303EB0116431EB3FBF6F302
:100CA0005B1C43F480431B0549D092B301EBC102A6
:100CB00002EB0111401EB0FBF1F0401CC0F30B0031
:100CC00040F4804040F400402168CA694CF6FF734C
:100CD0009A431043C861D4E90710014320680268B1
:100CE00022F0C00211430160D4E9030101432068EE
:100CF000826848F2FF339A4311438160D4E90501C9
:100D000008432168CA6822F0FF021043C86001E06E
:100D10000EE016E02068016841F0010101602564E1
:100D2000202084F83D00256384F83E50002070BDEB
:100D300001EB4106431EB3FBF6F35B1CB3E7012056
:100D4000C2E701EB4101401EB0FBF1F0401CC0F3D3
:100D50000B00B7E7A086010080841E0000093D005B
:100D600040420F002DE9F84F1F4690468A46044640
:100D7000DDF82890FFF72CFF054694F83D00202869
:100D80007FD11923012240492046009501F030F916
:100D9000002876D194F83C00012872D0012084F814
:100DA0003C0020680168C90703D1016841F00101D6
:100DB00001602068016821F400610160212084F84D
:100DC0003D00102084F83E0000262664C4F82480EC
:100DD0006785608D20852D48E0622B464A46514646
:100DE000204601F08BF890B9206841698069009035
:100DF00036E02A464946204601F0A0F950B1206C61
:100E0000042804D12068016841F4007101600120C8
:100E1000BDE8F88F606A216800780861606A401C4C
:100E20006062618D491E6185218D491E89B22185CF
:100E300022685369DB435B070BD451B10078106122
:100E4000606A401C6062608D401E6085208D401E7F
:100E500020852A464946204601F09EF80028CED13A
:100E6000208D0028C5D154F83D0B016841F4007174
:100E70000160202004F81E09E67766770020C7E7A6
:100E8000FFE70220C4E70000020010000000FFFF9F
:100E900010B586B000210091019102910391006884
:100EA0000F4988421AD10F4CA06940F00800A06198
:100EB000A069694600F008000490C020009012204C
:100EC0000190032003900848FFF78CFDE06940F48F
:100ED0000010E061E06900F40010049006B010BD5D
:100EE0000054004000100240000C0140024881689C
:100EF00002781144816070474C000020074810B50B
:100F0000016841F010010160032000F075F80F2026
:100F100000F006F800F024F8002010BD0020024088
:100F200070B50D4D04464FF47A712878B1FBF0F09E
:100F30000A490968B1FBF0F000F042FB48B9102CF7
:100F400007D200222146501E00F036F800206C60C7
:100F500070BD012070BD00004C0000205800002032
:100F60000C4808B5816941F001018161816901F096
:100F700001010091C16941F08051C161C06900F077
:100F8000805000900448416821F0E06141F0007118
:100F9000416008BD0010024000000140002809DB4C
:100FA00000F01F02012191404009800000F1E02083
:100FB000C0F8001170470000F0B40E4B1B680C46DF
:100FC000C3F30223C3F10705042D00D90425191D1D
:100FD000072901D2002300E0DB1E012606FA05F1F5
:100FE000491E214099409E40761E16403143F0BC78
:100FF00001F08CBB0CED00E0064900F00702086828
:101000004FF6FF03184040EA0220034A10430860ED
:10101000704700000CED00E00000FA052DE9F843F0
:1010200005460078354CC00754D0E0690026C00062
:1010300008D4E06940F08050E061E069012600F0EA
:10104000805000902E480168C90512D4016880467E
:1010500041F480710160FFF7BBFD074605E000BF6A
:10106000FFF7B6FDC01B642823D8D8F80000C005E0
:10107000F6D5206A10F4407021D0A98801F440719F
:1010800081421CD0206A1F49012220F440700A606E
:1010900000220A602062C00711D0FFF799FD0746C1
:1010A00041F2883808E000BFFFF792FDC11B4145BF
:1010B00002D90320BDE8F883206A8007F4D5206AAE
:1010C000696820F44070084320621EB1E06920F096
:1010D0008050E0612878800705D56068A96820F411
:1010E0004040084360602878C00605D56068E9681C
:1010F00020F48000084360600020DBE7001002401D
:1011000000700040400442422DE9F0470F460500C0
:1011100061D0434E306800F00700B84209D2306811
:1011200020F0070038433060306800F00700B84214
:1011300051D128683B4C810712D5400703D5606820
:1011400040F4E06060602878000703D5606840F4F0
:10115000605060606068A96820F0F000084360603B
:101160002878C00728D06868012810D02168022894
:1011700010D0890700292EDA616821F003010143AC
:101180006160FFF725FD804641F288390DE0216856
:101190008903EFE78901EDE7FFF71AFDA0EB0801EE
:1011A000494502D90320BDE8F0876068696800F00E
:1011B0000C00B0EB810FEFD1306800F00700B842AF
:1011C0000BD9306820F0070038433060306800F0F9
:1011D0000700B84201D00120E5E72878400705D58F
:1011E0006068E96820F4E0600843606028780007E0
:1011F00006D56068296920F4605040EAC10060604B
:1012000000F028F86168084AC1F30311515CC84036
:101210000649086006480068FFF782FE0020C2E722
:101220000020024000100240B83900085800002099
:10123000500000200448054900684968044AC1F389
:101240000221515CC8407047580000200010024045
:10125000C83900080E4A51680E4801F00C03042BEF
:1012600011D0082B0FD10C48C1F38343C903C05CD4
:101270000AD55168084AC1F34041921E515C054AA3
:101280005043B0FBF1F070470449484370470000F9
:101290000010024000127A00A839000800093D0041
:1012A0002DE9F84F040070D02078C04DC00749D018
:1012B0006868C0F38100012807D06868C0F3810026
:1012C000022809D16868C00306D52868800339D58B
:1012D00060680028E7D035E06068B0F5803F0BD04B
:1012E00010B1B0F5A02F11D0286820F4803028600C
:1012F000286820F4802002E0286840F480302860CC
:10130000606890B1FFF764FC06460AE0286840F484
:1013100080202860F0E700BFFFF75AFC801B64289C
:1013200073D828688003F7D50CE0FFF751FC064618
:1013300005E000BFFFF74CFC801B6428F0D828684C
:101340008003F7D420789A4E80074FF001094FF0C0
:10135000000839D5686810F00C0F07D06868C0F332
:101360008100022809D16868C00306D42868800774
:1013700014D52069012808D110E02069B0B1C6F861
:101380000090FFF725FC074605E00AE1FFF720FC87
:10139000C01B0228C4D828688007F7D5286861696F
:1013A00020F0F80040EAC10028600DE0C6F8008097
:1013B000FFF70EFC074604E0FFF70AFCC01B0228FB
:1013C00023D828688007F7D4207800072CD57948DF
:1013D000A169D9B1C0F80090FFF7FAFB074604E015
:1013E000FFF7F6FBC01B02280FD8686A8007F7D505
:1013F00071484FF4FA510068B0FBF1F0009000BF63
:101400000098411E0091FAD20EE080E0C0F8008002
:10141000FFF7DEFB074604E0FFF7DAFBC01B0228FC
:1014200075D8686A8007F7D42078400760D5E869E6
:101430000027C00008D4E86940F08050E861E869FE
:10144000012700F0805000905C480168C90513D462
:101450000168834641F480710160FFF7B9FB824661
:1014600006E000BFFFF7B4FBA0EB0A0064284ED8EB
:10147000DBF80000C005F5D5E06801280AD008B106
:10148000052813D0286A20F001002862286A20F07D
:10149000040002E0286A40F001002862E06841F29E
:1014A000883B98B1FFF794FB82460BE0286A40F036
:1014B00004002862EEE700BFFFF78AFBA0EB0A01F9
:1014C00059455AD8286A8007F6D50CE0FFF780FB0B
:1014D000824605E0FFF77CFBA0EB0A0159454CD89A
:1014E000286A8007F6D41FB1E86920F08050E861CF
:1014F000E06988B36968C1F38101022944D00228F8
:10150000C6F8608004D0FFF763FB044638E034E09F
:10151000FFF75EFB074604E0FFF75AFBC01B0228FB
:101520002BD828688001F7D4206AB0F5803F05D118
:101530006868A16820F4003008436860D4E90801B5
:101540000843696821F4741108436860C6F8609024
:10155000FFF73EFB044606E025E000BFFFF738FB3F
:10156000001B022809D828688001F7D51BE000BFBE
:10157000FFF72EFB001B022802D90320BDE8F88FDD
:1015800028688001F4D40EE00128F7D06868226A48
:1015900000F48031914204D1616A00F470108842F5
:1015A00001D00120EAE70020E8E700000010024037
:1015B0000000424280044242580000200070004077
:1015C00010B5401EB0F1807F01D3012010BD4FF057
:1015D000E02460610F21601701F098F80020A061FD
:1015E00007202061002010BD7047704770B590F84B
:1015F0003C20012A26D0012480F83C40022280F8B9
:101600003D2003685A689D6822F070060A683243DC
:101610005A600D4B02689A4208D0B2F1804F05D053
:101620000A4B9A4202D00A4B9A4204D1496825F0EB
:1016300080031943916080F83D40002180F83C1000
:10164000084670BD022070BD002C0140000400401F
:101650000008004010B5040003D094F83D0010B11C
:1016600007E0012010BD002084F83C00204600F077
:101670001FF8022084F83D00211D206800F024FF9F
:10168000012084F8460084F83E0084F83F0084F886
:10169000400084F8410084F8420084F8430084F854
:1016A000440084F8450084F83D00002010BD00008F
:1016B00008B50068B0F1804F12D10A48C16941F005
:1016C0000101C161C069002200F0010000901146D3
:1016D0001C20FFF771FCBDE808401C20FFF75EBC32
:1016E00008BD00000010024090F83D10012901D013
:1016F00001207047022180F83D100168CA6842F05D
:101700000102CA6000680B49884208D0B0F1804FDE
:1017100005D00949884202D00849884204D181682D
:1017200001F00701062903D0016841F001010160C1
:1017300000207047002C01400004004000080040D9
:1017400070B5044690F83C000025012817D001260A
:1017500084F83C60022084F83D002068826822F012
:10176000770222F47F4282600868502838D00DDC6E
:1017700020284FD005DC90B3102811D14AE0022078
:1017800070BD302846D040280AD13BE060282FD0D9
:1017900070280DD0B0F5805F03D0B0F5005F12D097
:1017A000012584F83D60002084F83C00284670BD87
:1017B000CB68D1E90121206800F0CFFE2068816864
:1017C00041F0770109E0CB68D1E90121206800F000
:1017D000C4FE2068816841F480418160E1E719E03E
:1017E000CA684968206800F06DFF5021206806E053
:1017F000CA684968206800F076FF6021206800F020
:10180000B6FECEE7CA684968206800F05BFF402159
:101810002068F4E7226801461046F0E72DE9F04120
:101820000D46040003D094F83D0018B108E00120F3
:10183000BDE8F081002084F83C00204600F040F82C
:10184000022084F83D002068816844F20702914339
:101850008160211D206800F037FE22689068916940
:10186000166A2B68AF69034340F20330814341EAB3
:101870000721A868EF6908434FF6FC418843E968EF
:1018800040EA0720014328692F6A000140EA073037
:10189000084369686D6926F0220646EA0515294362
:1018A00093602268906154F8460B0162012004F8AD
:1018B0001F09E0752076E0762077A0750020B7E755
:1018C00000B585B00021009101910291039100685B
:1018D0001749884229D11748C16941F00201C16105
:1018E000C16901F002010491816941F0080181613F
:1018F0008069694600F008000490302000900120C3
:1019000002900D48FFF76EF80C48416821F44061E1
:1019100041F0E06141F400614160002211461D2068
:10192000FFF74AFB1D20FFF739FB05B000BD0000A3
:101930000004004000100240000C01400000014083
:1019400070B590F83E60044690F83F5090F84230F1
:1019500090F84320022021B104290ED0012E1BD182
:1019600014E0012E18D1012B16D184F83E0084F822
:10197000420001220021206820E0012D0CD1012A23
:101980000AD184F83F0084F8430014E0012D03D10C
:10199000012B01D1012A01D0012070BD84F83E0045
:1019A00084F83F0084F8420084F8430001220021BB
:1019B000206800F0C5FD01220421206800F0C0FD70
:1019C0002068016841F001010160002070BD70478E
:1019D0002DE9F04104460068C66805694FF000072C
:1019E000A90713D5B10711D5F91E01610120207790
:1019F000206880698007204602D0FFF7E8FF04E0F6
:101A000000F0A4F8204600F049F92777680716D5BA
:101A1000700714D521686FF0040008610220207758
:101A20002068806910F4407F204602D0FFF7CFFF86
:101A300004E000F08BF8204600F030F92777280703
:101A400015D5300713D521686FF008000861042010
:101A500020772068C0698007204602D0FFF7B7FFD3
:101A600004E000F073F8204600F018F92777E80644
:101A700016D5F00614D521686FF010000861082013
:101A800020772068C06910F4407F204602D0FFF71D
:101A90009EFF04E000F05AF8204600F0FFF8277798
:101AA000E80708D0F00706D021686FF00100086150
:101AB000204600F043F9280608D5300606D52168EF
:101AC0006FF0800008612046FFF78EFD680608D59C
:101AD000700606D521686FF040000861204600F0CE
:101AE000F3F9A8060AD5B00608D521686FF02000E2
:101AF00008612046BDE8F041FFF777BDBDE8F08101
:101B000000B585B000210091019102910391006818
:101B10000B49884212D10B48816941F0080181616B
:101B20008069694600F0080004904FF4407000900E
:101B30000220019003900448FEF754FF05B000BD59
:101B40000008004000100240000C0140704770B5D2
:101B5000044690F83C0000260D4601280FD00120D5
:101B600084F83C006AB1042A1DD0082A2FD00C2A20
:101B70003FD00126002084F83C00304670BD022092
:101B800070BD206800F0FCFC2068816941F008010C
:101B900081612068816921F0040181612068816987
:101BA0002A69114311E0206800F012FD2068816964
:101BB00041F4006181612068816921F48061816163
:101BC000206881692A6941EA02218161D2E720689F
:101BD00000F02AFD2068C16941F00801C161206858
:101BE000C16921F00401C1612068C1692A691143FA
:101BF00011E0206800F044FD2068C16941F40061F3
:101C0000C1612068C16921F48061C1612068C16936
:101C10002A6941EA0221C161ACE710B5040003D092
:101C200094F83D0010B107E0012010BD002084F8B9
:101C30003C00204600F01EF8022084F83D00211DE3
:101C4000206800F041FC012084F8460084F83E0042
:101C500084F83F0084F8400084F8410084F8420092
:101C600084F8430084F8440084F8450084F83D007B
:101C7000002010BD08B500680649884208D1064812
:101C8000C16941F00401C161C06900F00400009025
:101C900008BD00000008004000100240704700002E
:101CA00010B50446022249B104290ED0082913D0E8
:101CB00094F84100012816D0012010BD94F83E0090
:101CC0000128F9D184F83E200FE094F83F00012864
:101CD000F2D184F83F2008E094F840000128EBD1CD
:101CE00084F8402001E084F841200122206800F0BF
:101CF00027FC0F492068884203D1426C42F400421D
:101D000042642068884208D0B0F1804F05D009496C
:101D1000884202D00849884204D1816801F0070155
:101D2000062903D0016841F001010160002010BDC7
:101D3000002C014000040040000800402DE9F0475D
:101D4000564C4FF0FF3A206B01F0A6FA544A554B1F
:101D500000F082FE00F04EFE2063A16B01F02CFC2F
:101D600012D2216B084601F05BFC01F095FA0546A2
:101D70000E46606B01F090FA524601F0CEFD2A4605
:101D8000334601F0A1F823E0A16B606B0D4681465C
:101D900001F046FC216B01F043FC01F07DFA88461E
:101DA00007462946084601F03BFC01F075FA054656
:101DB0000E46484601F070FA00223B4B01F084F8D1
:101DC0002A46334601F080F83A46434600F044FE86
:101DD00000F010FE3549E06301F022FC01F05CFAEE
:101DE000334A344B00F0E8FE01F03EF832492061FE
:101DF0000D68696A2180B4F90010401AE06001F0B2
:101E0000C3FB616901F00CFC2C4F2064394601F0E2
:101E100007FCDFF8AC80414601F0D8FAA0626D6A99
:101E200006462562E0696421281A4843606201F091
:101E3000ABFB314601F0C0FC0146E062A06901F055
:101E4000EFFB3946606401F0EBFB414601F0BEFA5E
:101E500001F07EFB40F20771E561A064884201DB7E
:101E6000A1640EE01749884201DCA16401E000286A
:101E700006DAA06CC4F804A0C0F10000A06403E07E
:101E800002DD4FF0010060600B49A06C01F14801D8
:101E90000968C863BDE8F04700F086BA000000207A
:101EA0007B14AE47E17A843F0000E0BF000072443B
:101EB000FAEDEBC03923CA3F2801002000E0E044DE
:101EC00000006A44F9F8FFFF7047FEE701684A69BD
:101ED000D24352050FD46FF480624A61002140F86A
:101EE000301F202242738173026942F004020261B2
:101EF000017301207047002070470000F8B50446C8
:101F0000C06A1E460D461746082807D0012805D08E
:101F100010F5803F02D0206B122804D120680168A0
:101F200041F480710160134600224FF001112046F8
:101F3000009600F05DF840B120680068C00502D549
:101F40004FF4007020640320F8BD2069B0F5804F85
:101F50000ED00620216800EAD51040F0F00008619C
:101F600033463A460B49204600F08AF878B902E039
:101F700005F0FE0000E0E8B221680861054933463B
:101F80003A46891F204600F07BF80028DCD001206B
:101F9000F8BD00000800010070B516460D46044665
:101FA0001EE02046FFF792FF08B1012070BD681CBB
:101FB00016D0FEF70DFE801BA84200D885B9206818
:101FC0004069C04340070BD5002044F8300F202162
:101FD0006173A073216941F0200121612073E4E75E
:101FE00020684069C0434007DBD4002070BD00007A
:101FF0002DE9F047984617460D460446C1F30746BB
:10200000DDF820902AE000BFB8F1FF3F26D0FEF7B0
:10201000DFFDA0EB0901414502D8B8F1000F1DD149
:102020002068012E16D0806925EA00000004000C0B
:1020300012D00020B84211D1002044F8300F2021E6
:102040006173A073216941F0200121612073012097
:10205000BDE8F0874069E7E70120EBE72068012E43
:102060000AD0806925EA00000004000C06D0002098
:10207000B842C9D00020EBE74069F3E70120F7E759
:102080002DE9F047984616460D4604464FF00009E4
:102090004FF0200AC1F3074723E020684069C0439E
:1020A000400515D42068016841F400710160216881
:1020B0006FF480604861C4F8309084F83DA084F8E3
:1020C0003E90216C41F00401216484F83C9021E0B1
:1020D000701C06D0FEF77CFDA0EB0800B04203D8D0
:1020E00016B1012F1FD021E02068012F15D0806983
:1020F00025EA00000004000C18D000BF44F8309F0F
:1021000084F80DA084F80E90216941F0200121612E
:1021100084F80C900120BDE8F087406925EA0000B2
:102120000004000CEAD12068406901E02068806961
:1021300025EA00000004000CAFD1ECE770B51646AC
:102140000D4604461EE02046FFF7C0FE08B1012000
:1021500070BD681C16D0FEF73BFD801BA84200D85E
:1021600085B920684069C04300060BD5002044F8BB
:10217000300F20216173A073216941F0200121619A
:102180002073E4E720684069C0430006DBD40020E8
:1021900070BD00003EB500241148009401940294E3
:1021A0000E498460016004730475012505614FF4D4
:1021B00060214460C161FEF755FA08B172B6FEE7CE
:1021C0000920CDE90005694602940548FEF7CCF9DF
:1021D000002801D072B6FEE73EBD00000024014099
:1021E0005C00002030B585B00024184800940194AC
:1021F00002940394816941F020018161816901F0B9
:1022000020010491816941F004018161816901F03B
:1022100004010491816941F00801816180690C4DDC
:1022200000F0080004900022D8212846FEF7CAFCDE
:10223000D82000900120CDE90104022003906946D6
:102240002846FEF7CFFB05B030BD0000001002406D
:102250000008014010B586B000241648009401948F
:102260000294039404944FF0804105940160B321DB
:10227000C0E9011440F69F71C0E903148461FFF7BF
:10228000E9F908B172B6FEE74FF480500090694654
:102290000848FFF755FA08B172B6FEE7049404A99E
:1022A00004480594FFF7A2F9002801D072B6FEE7B2
:1022B00006B010BDE000002010B58CB024216846A7
:1022C000FEF70AF800241648099414490A94C0E954
:1022D00000144FF6FF71C0E90241046184610320DC
:1022E000CDE900040120CDE902040494CDE90540C4
:1022F000079469460A480894FFF790FA08B172B645
:10230000FEE7099409A906480A94FFF76FF9002827
:1023100001D072B6FEE70CB010BD00000004004012
:102320002801002010B58AB0002407941C216846BB
:102330000894FDF7D1FF1A48184901600921C0E946
:10234000011440F20771C0E903148461FFF765FCD2
:1023500008B172B6FEE7079407A911480894FFF781
:1023600045F908B172B6FEE76020CDE90004029499
:10237000082269460A480494FFF7E9FB08B172B6DF
:10238000FEE70C2269460648FFF7E1FB08B172B68A
:10239000FEE70348FFF7B4FB0AB010BD0008004099
:1023A00070010020FEE7FEE770B5114D114C686822
:1023B000002806DD2168A86CC86321680864FEF760
:1023C00093F86868002806DA2168A86CC863216859
:1023D0000864FEF7AFF8A86C002807D12168C8632D
:1023E00021680864BDE8704000F008B870BD0000C6
:1023F00000000020700100207047704710B50B4CA2
:10240000002240212046FEF7DDFB002280212046ED
:10241000FEF7D8FB002208212046FEF7D3FB20461A
:102420000022BDE810401021FEF7CCBB000801409F
:10243000FEF75CBD30B593B028216846FDF74CFF30
:1024400014210AA8FDF748FF002501200F951095DB
:102450001195010412958DE8230004904FF4E010CB
:10246000CDE90810022407946846FEF719FF08B169
:1024700072B6FEE70AA90F2081E831004FF48060B0
:10248000CDE90D0502210AA8FEF73EFE08B172B69D
:10249000FEE74FF4004011900F940FA8FEF7BEFD29
:1024A000002801D072B6FEE713B030BD70470000BF
:1024B0000148FFF78DBA0000E00000200148FFF757
:1024C00087BA000028010020F0B50268194B1A4CA9
:1024D0001A4D4FF08047984205D0B84203D0A04231
:1024E00001D0A84203D122F070064A6832439842D4
:1024F00005D0B84203D0A04201D0A84203D122F4B3
:102500004074CA6822434C6922F080022243026070
:102510008A68C2620A688262984201D109690163CD
:10252000012141610169C90703D0016921F001015D
:102530000161F0BD002C0140000400400008004093
:1025400010B501F01F030121046A99408C43046215
:10255000016A9A401143016210BD10B5846842EAD5
:10256000032224F47F440A432243826010BD826820
:1025700022F070020A4342F00701816070470000B8
:1025800030B5036A026A22F001020262426884697D
:1025900024F073050C682C4323F002058B682B4351
:1025A0000A4DA8420BD123F00805CB6822F44072F3
:1025B0002B434D6923F0040315438A692A43426083
:1025C000846149684163036230BD0000002C014012
:1025D00030B5026A036A23F010030362436884691A
:1025E0000D6824F4E64444EA05248D6822F02002B4
:1025F00042EA05120B4DA8420ED1CD6822F08002AE
:1026000042EA05124D6923F4406343EA85038D696C
:1026100022F0400243EA8503436084614968816394
:10262000026230BD002C014030B5036A026A22F418
:10263000807202624268C46923F4007324F0730557
:102640000C682C438D6843EA05230C4DA8420ED13B
:10265000CD6823F4006343EA05234D6922F4405218
:1026600042EA05128D6923F4806342EA0512426052
:10267000C4614968C163036230BD0000002C0140A1
:1026800030B5046A026A22F4805202624268C36969
:102690000D6823F4E64343EA05238D6824F40054CF
:1026A00044EA0534064DA84204D14D6922F4804223
:1026B00042EA85124260C36149680164046230BD28
:1026C000002C014010B5036A046A24F0010404627E
:1026D000846924F0F00444EA021423F00A020A4355
:1026E0008461026210BD10B5036A046A24F010040C
:1026F0000462846923F0A00324F4704444EA0232A3
:1027000043EA01118261016210BDFEE70907090E6B
:10271000002804DB00F1E02080F80014704700F08E
:102720000F0000F1E02080F8141D704710B500F094
:102730003DF80021084600F081F815A000F0D6F819
:10274000154CA06800F0C6F80821002000F076F8CB
:1027500012A000F0CBF8E06B00F0FAFE00F0BAF83F
:102760000021012000F06AF80DA000F0BFF8206BF6
:1027700000F0EEFE00F0AEF80821012000F05EF857
:1027800008A000F0B3F8A06CBDE8104000F0A2B8BB
:102790004465673A0000000000000020583A00003D
:1027A000543A000050776D3A0000000010B58020C8
:1027B00000F050F80024202000F06CF8641C462C37
:1027C000F9DB10BD10B53220FEF7FAF8302000F02A
:1027D00041F80520FEF7F4F8302000F03BF8012026
:1027E000FEF7EEF8302000F035F80A20FEF7E8F8A2
:1027F000202000F02FF80A20FEF7E2F8282000F051
:1028000029F80120FEF7DCF8082000F023F8012069
:10281000FEF7D6F8012000F01DF80120FEF7D0F8F1
:102820000120FEF7CDF8062000F014F80120FEF795
:10283000C7F8BDE810400C2000F00CB810B101281A
:1028400005D102E041F0800101E041F0C001C8B2D1
:10285000AFF300801CB500F0F00141F00C028DF8E0
:10286000042041F0080100018DF8051040F00C0132
:102870008DF8061040F008008DF8070064200090E5
:10288000042301AA4E210248FEF76CFA1CBD000089
:102890008C0000201CB500F0F00141F00D028DF815
:1028A000042041F0090100018DF8051040F00D01F0
:1028B0008DF8061040F009008DF8070064200090A4
:1028C000042301AA4E210248FEF74CFA1CBD000069
:1028D0008C0000201CB5024603A16846FDF778FC79
:1028E000684600F003F81CBD2564000010B50446DE
:1028F00002E0641CFFF7CEFF20780028F9D110BD5C
:1029000008B5FEF7FBFAFFF795FDFFF76BFC2F48C4
:10291000416941F0010141614069002200F001007C
:10292000009011460B20FEF747FB0B20FEF736FB0D
:10293000FFF730FCFFF78EFCFFF7F4FC2548244935
:102940004FF4804201602449416000218160C0E968
:10295000031241618161C1610162FEF73FF908B173
:1029600072B6FEE7FFF7A8FCFFF72CFF032100205B
:10297000FFF764FF19A0FFF7B9FF03210120FFF75C
:102980005DFF19A0FFF7B2FF4FF47A70FEF718F859
:1029900010480821E430FFF783F90E480C21E43099
:1029A000FFF77EF90B4800219C30FEF7C9FF09486C
:1029B00004219C30FEF7C4FF06485430FEF794FE15
:1029C000FFF7B4FE6420FDF7FBFFF9E700100240BB
:1029D000005400408C000020A086010044413220B9
:1029E0002D204E32410000004448204344543137EA
:1029F0004100000021F00042A2F16052B2F5801FB8
:102A000001F0004328BFD2F17F6C0BD95FEA001CB4
:102A100043EAC20242EB507018BF704728BF20F053
:102A200001007047B2F5801FBCBF184670474FEADF
:102A3000410C1CF5001F02D2084600F0B8BE70B56C
:102A400000F0ECFA00000089FFF7F6BF4FF00040FD
:102A5000A0F580007047000010B591EA030F48BF51
:102A600083F0004300F13683841A71EB030C05D226
:102A7000121943EB0C03001B61EB0C01DFF824E19E
:102A80004FEA1154A4EB135C1EEA430F18BF9EEAF1
:102A9000445F73D023EA0E03DCF1200E21EA0451D7
:102AA00043F4801332D322FA0CFE10EB0E0023FA0B
:102AB0000CFE41EB0E01CCF1200E03FA0EFE10EBE2
:102AC0000E0051F10001B1F5801FCCF1200E32D281
:102AD00001EB045112FA0EF2BDE8104058BF7047E6
:102AE000401C38BF5FEA420218BF7047002814BF7D
:102AF00020F0010041F100014FEA410313F5001FEE
:102B000038BF7047A1F1C04100F0D6BA012A43EBAB
:102B10000302ACF1200CDCF11F0E32BF4FF0000EAF
:102B200023FA0CF310EB030041EB0451B4EB115FFB
:102B3000D0D0A1EB045101F5801149085FEA3000C3
:102B400001EB04510ED350F1000038BF12FA0EFE13
:102B500008D1BDE81040C9E7401C38BF5FEA420217
:102B6000CAD1C3E7BDE810404FEA410313F5001F87
:102B700038BF7047A1F1C04100F09EBA9EEA445FA1
:102B800008D011EA5E0FBDE8104004BF01F000411B
:102B900000207047BDE8104070B500F03FFA00BF5C
:102BA00064FBBE3E0000E0FF02494FF0000000F071
:102BB00082BE00BF0000F87F2DE9C04130B4DFF8CD
:102BC000A0C23CEA111418BF3CEA131400F0EC80D8
:102BD00081EA03051CEA111444EAD57418BF1CEA03
:102BE000131500F0C780A4EB05044FF0004545EA3B
:102BF000C12145EAC32341EA505143EA525304F14B
:102C00007F74994204F500344FEAC0204FEAC22293
:102C100008BF904200F09C804FEA13650FF2401607
:102C2000765D4FEA134506FB05F7C7F1807706FB93
:102C300007F74FEAD737A7FB03687642C8F5803815
:102C4000A7FB06CE38BFA8F1010807FB08E64FF046
:102C5000000EA6FB028CE6FB03CEDCF1000CCEF1ED
:102C6000004E38BFAEF1010EA6FB0C584FF0000726
:102C70004FF00005E6FB0E87A1FB08C6A0FB07CEC0
:102C800016EB0E0645F10005E1FB076515F1E04E78
:102C90007EBFA4F580345FEA46066D4116F18007D9
:102CA00045F100054FEA17274FEA066647EA056730
:102CB000A6F1DE46B6F1805F4FEA15251FD93846EA
:102CC00024F0010C05EBC471BCF1FE6F01EB0C119B
:102CD00002D8F0BCBDE8008124425CBF01F5801E33
:102CE0009EEAC47F02D4F0BCBDE80081244238D4FF
:102CF000F0BCA1F1C041BDE8004100F0DDB94FEAF0
:102D0000D22242EA43524FEAD323A7FB02864FEA7C
:102D1000D02040EA415007FB03661EEA0E0F4FEA3F
:102D2000D12105FB026658BFA6EB0056B6EB005654
:102D30004FEA520E4EEAC37E18EB0E0E56EB530EC0
:102D4000BDD518EB02085E417F1C55F10005B6E7C2
:102D50004FF480154FF000074FF000064FF00008C9
:102D6000ADE7F0BC4FF0000001F1C04101F00041BF
:102D7000BDE8008111EA0C1F0CEA131500D00CE02D
:102D800013EA0C1F00F025804FF00000F0BC81EA30
:102D9000030101F00041BDE80081F0BCBDE8004145
:102DA00081EA030100F088B9F0BCBDE8004170B5CC
:102DB00000F034F9097EFC3E00F007B881EA030117
:102DC0004FF0000001F00041704781EA030100F07C
:102DD00073B9F0BCBDE800414FF0000021497047D5
:102DE000FFFDFBF9F7F5F4F2F0EEEDEBE9E8E6E4D0
:102DF000E3E1E0DEDDDBDAD8D7D5D4D3D1D0CFCD57
:102E0000CCCBCAC8C7C6C5C4C2C1C0BFBEBDBCBB8F
:102E1000BAB9B8B7B6B5B4B3B2B1B0AFAEADACAB8A
:102E2000AAA9A8A8A7A6A5A4A3A3A2A1A09F9F9E64
:102E30009D9C9C9B9A999998979796959594939316
:102E4000929191908F8F8E8E8D8C8C8B8B8A8989AD
:102E50008888878786858584848383828281818030
:102E60000000FF070000F87F4FEA41034FEA535389
:102E7000A3F58063D3F11E03C8BFD3F1210C0CDD91
:102E80004FF0004242EAC12242EA505232FA03FCB9
:102E90008CEAE17CACEBE1707047102BC4BF0020E2
:102EA000704703F5787CBCF1FF3F04D06FF000421F
:102EB00082EA2100704770B500F0B0F84992248092
:102EC00000207047F2E70000DFF848C170B51CEA47
:102ED000111E1EBF1CEA13159EEA0C0F95EA0C0F7B
:102EE00000F06F8081EA030423EA4C134EEAD47E9B
:102EF00021EA4C1141F4801143F48013AE44A1FB4C
:102F0000024CA0FB0365AEF17F7E361955EB0C0534
:102F1000A1FB034C4CF10003A0FB021C16EB0C06BA
:102F2000654153F10003094218BF46F0010613F44E
:102F3000007F0BD14FEA03314FEA0530340341EAF9
:102F4000155140EA16506FF003020AE04FEAC32120
:102F50004FEAC520F40241EA555140EA56506FF05D
:102F6000020202EB2E4201EB025585EACE710AD035
:102F70005FEA440C18BF24F0004450F1000041F116
:102F8000000120EAD47040F2FE7C624500D270BDA0
:102F9000A84214BF4FF080444FF04044002E08BFB9
:102FA0000024BEF1806FA8BFA1F1C041BDE8704010
:102FB00080F282804FF0000001F1C04101F0004139
:102FC00070479EEA0C0F0CEA131518BF95EA0C0F18
:102FD00006D04FF0000081EA030E0EF0004170BDF4
:102FE00000F01CF88900013E00F007B800F009B8B5
:102FF0004FEA430C5FEA5C5C08D081EA030100F011
:103000005BB84FEA410C5FEA5C5CF6D14FF0000020
:10301000014970470000FF070000F87F0EF1020E23
:103020002EF0030E5EF8046B364205D4012A43EB02
:10303000030515F5001F12D8012841EB010C1CF502
:10304000001F0CD80ED14FEAD17C15F5001F0CEBF8
:103050004C0C0CF1020C08BF4CEBD37C04E04FF09D
:10306000080C01E04FEAD37C0CEB4C0526FA05F680
:1030700006F00706B6F1040C06D20EEB860CBDE88E
:1030800070404CF0010C6047DFE80CF0090B0202C5
:103090004FF000414FF00000A1F5002170BD19462E
:1030A0001046012851EB010418BFD4F5001484BF69
:1030B000002001F0004170BD0808A0F500114FEAA2
:1030C0003101704710B591EA030F48BF83F0004308
:1030D0003FF5CAAC841A71EB030C07D212198CF0BD
:1030E000004C43EB0C03001B61EB0C01DFF8A4E187
:1030F0004FEA1154A4EB135C1EEA430F18BF9EEA7B
:10310000445F00F0B08023EA6E03524221EA04518A
:10311000C3EB6E0338BF5B1EDCF1200E25D322FA11
:103120000CFE10EB0E0043FA0CFE41EB0E01CCF14D
:10313000200E03FA0EFE10EB0E0051F10001CCF14F
:10314000200E29D412FA0EF201EB0451BDE8104012
:1031500058BF7047401C1CBFB2F1004F7047002899
:103160000CBF491C20F00100704712EB020E43EB2C
:10317000030218BF4FF0010E4EEA4202ACF1200CE0
:10318000DCF11E0E54D943FA0CFE10EB0E0051F187
:10319000FF31CCF11E0ED5D50EF1010E12FA0EFE46
:1031A000404141EB010101EB445C5FEA5C5C10D9FA
:1031B00010EBDE7001EB045138BFBEF1004FBDE8EB
:1031C000104018BF704700280CBF491C20F00100B8
:1031D000704730D24FEAD42C11F5001124F400646A
:1031E0001BD0B1FA81F20B3AA41AA41ED2F120032B
:1031F000914030FA03F31943904001EBCC71002C5D
:1032000001EB0451BDE81040A8BF704701F1C04177
:103210004FF0000001F000417047B0FA80F310FA5F
:1032200003F100D110BDE41A173C4805C90AE4E7D0
:1032300001EB045110BD491001EB0451BDE81040F1
:103240004FEA300002E04FF0000170474A0008BF2B
:103250000042F8D0B2F5001F28BF704701F00041CE
:103260004FF0000070479EEA445F07D011EA5E0FFE
:10327000BDE8104004BF002100207047BDE81040A9
:1032800070B5FFF7CBFE00BF40DFF63E83F0004194
:10329000104670470000E0FF43004FEAD30C4FEAAE
:1032A0003C0C43401FBF40070CF1605113F0FE4F30
:1032B00070471CF0006F03D100200CF000417047F4
:1032C0000CF0004343EA507010B540EACC0000F027
:1032D00028FA00BF000000924FEA0001FFF7ECBEA1
:1032E0004FF000414FF00000A1F5002170470000B1
:1032F00090EA010F48BF81F0004100F16E82421A4E
:103300003CBF801A89184FEAD0524FF07F4C1CEA1C
:10331000410FA2EBD15318BF9CEA026F00F03B8033
:103320004FF0004C4CEA00204CEA012121FA03FC4A
:1033300010EB0C0C1ED202F1FF325FEA1C2040EBB6
:10334000C25038BF70471CF07F0F4FEA400C18BFC7
:10335000BCF17F4F38BF7047C3F12003994008BFCD
:1033600020F00100BCF17F4F38BF7047A0F1C04092
:1033700000F01DBA4FEA3C00000A40EBC25028BFE3
:103380001CF0FF0F4FEA400CE6D018BFBCF17F4F96
:1033900038BF7047EAE79CEA026F05D010EA5C0F7D
:1033A00008BF00F00040704710B500F0BAF900BF48
:1033B00064FBBE3E401058BFC0F14040491058BFAA
:1033C000C1F140418142EFF3008070474FF47F0C20
:1033D0001CEAD0121EBF1CEAD11392EA0C0F93EA2A
:1033E0000C0F00F0858090EA010F48BF42F4807214
:1033F00040F4000C41F400002CF07F4120F07F40AD
:1034000000B58142A2EB03020FF2081CACEB504E58
:10341000C0F100009EF800E04FEA4E0E00FB0EFCEB
:1034200038BF49004FEA2C1C02F5FA020CFB0EF3E0
:103430004FEACE1E4FEA112C4FEAC1210EEB635E1C
:1034400042EB22420EFB0CFC4FEA1C5300FB031123
:103450004FEA112C4FEA01310EFB0CFC4FEADC4C19
:1034600000FB0C11C14228BF09184CEB03335DF877
:1034700004EB10EB410143EBC250B2F57C0F38BFB7
:10348000704729D512F0F00F1CBF00F1C04000F0CA
:1034900000407047008182838485868788898B8C71
:1034A0008D8E8F919293959697999A9C9D9FA0A2AD
:1034B000A3A5A7A8AAACAEB0B2B3B5B7B9BCBEC0FD
:1034C000C2C5C7C9CCCED1D4D7D9DCDFE2E6E9EC9E
:1034D000F0F3F7FAFE0000004FEA400C0CF1807C9C
:1034E000BCF17E4F28BF7047B0F1C04000F05FB91B
:1034F00090EA010F0CEAD11348BF42F48072624592
:1035000038BF634507D213F47F0F16D080EA01005D
:1035100000F00040704710B500F003F9097EFC3E52
:1035200000F005B880EA010000F00040704780EA32
:10353000010000F0004000F03AB912F47F0F04BF20
:103540000248704780EA010000F031B90000C07FF6
:1035500041000B0ED3F19E0208D950F400034FEA4C
:10356000032323FA02F048BF4042704710B500F031
:10357000D8F800BF49922480002070476FF00042C5
:1035800082EA20007047000010F0004148BF40422E
:10359000B0FA80F310FA03F2C3F19D030BD051EAA5
:1035A000C35101EB1220530638BF704700F10100F0
:1035B00008BF20F00100704750EA010C00F11380B1
:1035C0001CF5000F58BFBCF5000F01D488427047AE
:1035D00007D710F5000F58BF11F5000F15D488421A
:1035E0007047894270471CF5000F04D5BCF5000FE9
:1035F000F7D5814270474FF0807C1CEB400F38BFFD
:103600001CEB410F01D28142704710B500F089F8E0
:10361000922449004FF000504FF08051FFF7CABE8E
:103620004FF47F0C1CEAD0121EBF1CEAD11392EAA1
:103630000C0F93EA0C0F00F0478090EA010F48BF8F
:1036400042F480724FF0004C4CEA00204CEA012119
:1036500002EB0302A0FB0113A2F50002002918BF30
:1036600043F001035B0028BF4FEA330342EB2242E1
:103670005FEA132C4CEBC2502EBFBCEB436FB2F58C
:103680007C0F70474FEA036CBCF1004F08BF20F07D
:103690000100B2F57C0F38BF70470BD582F0FF02F6
:1036A00012F5803FC8BF704700F1C040D8BF00F09E
:1036B0000040704700F5000C5FEA4C0C48BF7047B3
:1036C000B0F1C04000F073B890EA010F0CEAD113DA
:1036D00048BF42F48072624538BF634504D280EA35
:1036E000010000F00040704710B500F01AF800BF6C
:1036F0008900013E00F007B800F009B85FEA410C0C
:103700005FEA1C6C08D080EA010000F050B85FEA64
:10371000400C5FEA1C6CF6D14FF00040A0F5800031
:1037200070470EF1020E2EF0030E5EF8044B244299
:1037300004D44FEA4102B2F17F4F11D84FEA40035F
:10374000B3F17F4F0CD80ED14FEAD07CB2F17F4F4E
:103750000CEB4C0C0CF1020C08BF4CEBD17C04E0E0
:103760004FF0080C01E04FEAD17C0CEB4C0324FA3B
:1037700003F404F00704B4F1040C06D20EEB840C3D
:10378000BDE810404CF0010C6047DFE80CF0070882
:1037900002024FF00040A0F5800010BD0846420034
:1037A00018BFD2F1807288BF00F0004010BDFF2129
:1037B00041EAD050C005704780F0004090EA010F08
:1037C0007FF59DAD81F0004100F007B890EA010F50
:1037D00048BF81F000413FF592AD421A04D882F013
:1037E0000042A0EB020011444FEAD0524FF07F4C50
:1037F0001CEA410FA2EBD15318BF9CEA026F4AD0DA
:103800004FF0004C4CEA00204CEA012121FA03FC65
:10381000B0EB0C0C0FD412F0FE0F36D05FEA4C0068
:103820001DD5001240EBC25038BF70471CF03F0F4F
:1038300018BF70470BE0A2F101025FEA1C2040EBC9
:10384000C25038BF70471CF07F0F18BF7047C3F1DC
:103850002003994014BF401E20F0010070478008EB
:103860004FEA122308BF7047B0FA80FCA2EB0C02AB
:10387000CCF1280C60FA0CF093EA122F04BF00EB95
:10388000C25070474FEAC3707047130A5FEADC10FA
:1038900008BF7047F6E79CEA026F04D010EA5C0F9D
:1038A00008BF0020704710B5FFF73BFF40DFF63E32
:1038B00081F0004070470CF00F03092B08BF08206F
:1038C00000F059800A2B0BD0082B18BF704708BF97
:1038D0001CF0400F0AD04FF000004FF0000170477D
:1038E0001CF0400F18BF4FF0004070471CF0100F45
:1038F00008D020F0704300F07F4242EAD3014FEA43
:103900004370704700F0604021F07F4242EA0002BD
:1039100001F07F4040EA727070474FF0FF0C4CF4AA
:10392000E06C1CEA11531CBF9CEA030C9445C2BF17
:10393000DA4201EB02517047002B0DD0BCF1000FB1
:103940000FD0002A01F00041A4BF41F0E04141F056
:103950007F614FF00000704701F000414FF0000020
:10396000704750EA01334FF09B0C18BF4CF0806C4D
:103970007FF41AA970471CF4801F11D01CF4E02FAB
:1039800003D06FEACC31490070474FF04050EFF35D
:10399000008222F0704242EA000282F300887047FF
:1039A0004FF00000704701020203040506070809F2
:1039B0000A0B0C0D0E0F101000000000000000009C
:1039C00001020304060708090000000001020304C5
:1039D000F0390008000000205C0000002801000809
:1039E0004C3A00085C000020040800004401000874
:1039F00000000000010000000000000000000000C6
:103A0000000000000000B0400000A03F00000000E7
:103A100000000000000000000000000000000000A6
:103A200000000000CDCC4C3E000000400000000033
:103A30000000000000000000000000000100000085
:0C3A4000100000000000000000127A00DE
:04000005080000ED02
:00000001FF
