:020000040800F2
:100000001007002089010008171500087711000863
:10001000151500088F020008631600080000000094
:100020000000000000000000000000001B15000898
:100030009102000800000000191500081D150008B5
:10004000A3010008A3010008A3010008A301000800
:10005000A3010008A3010008A3010008A3010008F0
:10006000A3010008A3010008A3010008A3010008E0
:10007000A3010008A3010008A3010008A3010008D0
:10008000A3010008A3010008A3010008A3010008C0
:10009000A3010008A3010008A3010008A3010008B0
:1000A000A3010008A3010008A3010008A3010008A0
:1000B00075150008A3010008A3010008A3010008AA
:1000C000A3010008A3010008A3010008A301000880
:1000D000A3010008A3010008A3010008A301000870
:1000E000A3010008A3010008A301000800F002F822
:1000F00000F03AF80AA090E8000C82448344AAF188
:100100000107DA4501D100F02FF8AFF2090EBAE885
:100110000F0013F0010F18BFFB1A43F0010318473B
:100120002017000040170000103A24BF78C878C19B
:10013000FAD8520724BF30C830C144BF04680C60ED
:10014000704700000023002400250026103A28BF35
:1001500078C1FBD8520728BF30C148BF0B60704739
:100160001FB51FBD10B510BD00F058F81146FFF7C0
:10017000F7FF01F019FB00F076F803B4FFF7F2FF88
:1001800003BC00F07DF8000009488047094800479B
:10019000FEE7FEE7FEE7FEE7FEE7FEE7FEE7FEE737
:1001A000FEE7FEE704480549054A064B7047000094
:1001B00071150008ED000008100100201007002054
:1001C00010030020100300204FF0000200B513467A
:1001D00094469646203922BFA0E80C50A0E80C5067
:1001E000B1F12001BFF4F7AF090728BFA0E80C5018
:1001F00048BF0CC05DF804EB890028BF40F8042B11
:1002000008BF704748BF20F8022B11F0804F18BF7D
:1002100000F8012B7047704770477047754600F033
:100220002BF8AE4605006946534620F00700854688
:1002300018B020B5FFF7B6FFBDE820404FF000062C
:100240004FF000074FF000084FF0000B21F00701BE
:10025000AC46ACE8C009ACE8C009ACE8C009ACE801
:10026000C0098D46704710B50446AFF300802046A4
:10027000BDE81040FFF781BF00487047B000002084
:1002800001491820ABBEFEE7260002007047FEE7DA
:100290007047000070B5044600F00CF90546601C7C
:1002A00002D004480078044400F004F9401BA04246
:1002B000FAD370BD040000202DE9F84FDFF8B891A3
:1002C0000024A9F1040B23460F2709F1040AABF11E
:1002D000040EC9E00125A5402A40AA427DD1674EFF
:1002E000D1F804C0ACEB0608B44532D014DCBCF144
:1002F000030F3AD009DCBCF1000F2AD0BCF1010F8A
:100300001CD0BCF1020F31D11DE0BCF1110F17D090
:10031000BCF1120F2AD119E0B8F5881F19D006DCFC
:10032000B8F5803F15D0B8F5801F1FD111E0B8F5A2
:10033000001F0ED0B8F5041F18D10AE0CB6815E0F5
:10034000CB681B1D12E0CB6808330FE0CB680C3381
:100350000CE08B682BB1012B4FF0080303D04561F3
:1003600004E0042302E0056100E00023FF2A01D835
:10037000064601E000F104064FEA840501D9A5F123
:100380002005D6F8008007FA05FC28EA0C0803FAD5
:1003900005F548EA0508C6F800804D68ED0062D50D
:1003A000374DAE6946F00106AE61AD6924F0030633
:1003B00005F001050095334D06EB050CDCF80850FF
:1003C000A607360F07FA06F825EA0805DFF8B88011
:1003D000404503D14FF0000817E044E0DFF8AC805F
:1003E000404502D14FF001080FE0DFF8A4804045FE
:1003F00002D14FF0020808E0DFF89880404502D1B2
:100400004FF0030801E04FF0040808FA06F848EA44
:100410000508CCF808804D68D9F80060ED024D461B
:1004200001D5164300E096432E604D68DAF800606F
:10043000AD02554601D5164300E096432E604D6847
:10044000DBF80060AD035D4601D5164300E096433E
:100450002E604D68DEF80060ED03754601D5164349
:1004600000E096432E60641C0D682A46E5407FF448
:1004700031AFBDE8F88F0000080401400000111002
:10048000001002400000014000080140000C014043
:100490000010014000140140C26821EA02030A4032
:1004A00043EA0241016170470AB1016170470904E2
:1004B000FBE700000148806870470000040000204E
:1004C00070B5040025D094F83D00002520B984F8CB
:1004D0003C50204600F04EF9242084F83D0020686E
:1004E000016821F0010101602068016841F40041C8
:1004F00001602068016821F40041016000F096FA73
:100500004D4A6168914201D84C4900E04C4988420B
:1005100001D2012070BD4B492368B0FBF1F15E6848
:1005200026F03F060E435E606368934206D94FF49F
:10053000967359434FF47A73B1FBF3F12368491C66
:100540001E6A26F03F06314319626168914210D855
:100550004900401EB0FBF1F2521CC2F30B02042A08
:1005600001D2042022E0B0FBF1F0401CC0F30B00EC
:100570001CE0A268F2B301EBC10303EB0116431EBA
:10058000B3FBF6F35B1C43F480431B0549D092B3E5
:1005900001EBC10202EB0111401EB0FBF1F0401C67
:1005A000C0F30B0040F4804040F400402168CA6969
:1005B0004CF6FF739A431043C861D4E90710014316
:1005C0002068026822F0C00211430160D4E90301EF
:1005D00001432068826848F2FF339A4311438160E7
:1005E000D4E9050108432168CA6822F0FF021043DC
:1005F000C86001E00EE016E02068016841F00101EA
:1006000001602564202084F83D00256384F83E5075
:10061000002070BD01EB4106431EB3FBF6F35B1CEB
:10062000B3E70120C2E701EB4101401EB0FBF1F04E
:10063000401CC0F30B00B7E7A086010080841E00B9
:1006400000093D0040420F002DE9F84F1F4690463B
:100650008A460446DDF82890FFF72CFF054694F8FB
:100660003D0020287FD119230122404920460095D2
:1006700000F014FE002876D194F83C00012872D0D6
:10068000012084F83C0020680168C90703D1016893
:1006900041F0010101602068016821F400610160FE
:1006A000212084F83D00102084F83E0000262664B6
:1006B000C4F824806785608D20852D48E0622B4634
:1006C0004A465146204600F06FFD90B920684169C6
:1006D0008069009036E02A464946204600F084FEB4
:1006E00050B1206C042804D12068016841F40071E5
:1006F00001600120BDE8F88F606A21680078086118
:10070000606A401C6062618D491E6185218D491EB1
:1007100089B2218522685369DB435B070BD451B151
:1007200000781061606A401C6062608D401E6085C8
:10073000208D401E20852A464946204600F082FD35
:100740000028CED1208D0028C5D154F83D0B01687A
:1007500041F400710160202004F81E09E6776677F5
:100760000020C7E7FFE70220C4E7000002001000F6
:100770000000FFFF10B586B00021009101910291A9
:10078000039100680F4988421AD10F4CA06940F0CC
:100790000800A061A069694600F008000490C0202C
:1007A000009012200190032003900848FFF784FD79
:1007B000E06940F40010E061E06900F4001004908A
:1007C00006B010BD0054004000100240000C014073
:1007D000024881680278114481607047040000205B
:1007E000074810B5016841F010010160032000F0D6
:1007F00075F80F2000F006F800F024F8002010BD76
:100800000020024070B50D4D04464FF47A712878EF
:10081000B1FBF0F00A490968B1FBF0F000F0CCFA46
:1008200048B9102C07D200222146501E00F036F89D
:1008300000206C6070BD012070BD0000040000202D
:10084000100000200C4808B5816941F00101816168
:10085000816901F001010091C16941F08051C161DC
:10086000C06900F0805000900448416821F0E061C8
:1008700041F00071416008BD0010024000000140DD
:10088000002809DB00F01F0201219140400980008F
:1008900000F1E020C0F8001170470000F0B40E4BEA
:1008A0001B680C46C3F30223C3F10705042D00D9CE
:1008B0000425191D072901D2002300E0DB1E0126B3
:1008C00006FA05F1491E214099409E40761E1640C9
:1008D0003143F0BC00F0C6BE0CED00E0064900F06C
:1008E000070208684FF6FF03184040EA0220034A57
:1008F00010430860704700000CED00E00000FA05AE
:100900002DE9F0470F46050061D0434E306800F0F6
:100910000700B84209D2306820F007003843306041
:10092000306800F00700B84251D128683B4C81077D
:1009300012D5400703D5606840F4E0606060287815
:10094000000703D5606840F4605060606068A96883
:1009500020F0F000084360602878C00728D068685D
:10096000012810D02168022810D0890700292EDA2A
:10097000616821F0030101436160FFF79BFD804640
:1009800041F288390DE021688903EFE78901EDE73D
:10099000FFF790FDA0EB0801494502D90320BDE80F
:1009A000F0876068696800F00C00B0EB810FEFD150
:1009B000306800F00700B8420BD9306820F007001B
:1009C00038433060306800F00700B84201D00120A1
:1009D000E5E72878400705D56068E96820F4E0601D
:1009E000084360602878000706D56068296920F40C
:1009F000605040EAC100606000F028F86168084A71
:100A0000C1F30311515CC8400649086006480068FC
:100A1000FFF7F8FE0020C2E700200240001002406D
:100A2000261800081000002008000020044805498E
:100A300000684968044AC1F30221515CC84070470C
:100A40001000002000100240361800080E4A5168BD
:100A50000E4801F00C03042B11D0082B0FD10C48C9
:100A6000C1F38343C903C05C0AD55168084AC1F386
:100A70004041921E515C054A5043B0FBF1F0704773
:100A800004494843704700000010024000127A00F9
:100A90001618000800093D002DE9F84F040070D039
:100AA0002078C04DC00749D06868C0F38100012894
:100AB00007D06868C0F38100022809D16868C003C4
:100AC00006D52868800339D560680028E7D035E06E
:100AD0006068B0F5803F0BD010B1B0F5A02F11D0F9
:100AE000286820F480302860286820F4802002E004
:100AF000286840F480302860606890B1FFF7DAFC25
:100B000006460AE0286840F480202860F0E700BF2D
:100B1000FFF7D0FC801B642873D828688003F7D5C2
:100B20000CE0FFF7C7FC064605E000BFFFF7C2FC7C
:100B3000801B6428F0D828688003F7D420789A4E68
:100B400080074FF001094FF0000839D5686810F0B0
:100B50000C0F07D06868C0F38100022809D16868CB
:100B6000C00306D42868800714D52069012808D15D
:100B700010E02069B0B1C6F80090FFF79BFC074673
:100B800005E00AE1FFF796FCC01B0228C4D82868DC
:100B90008007F7D52868616920F0F80040EAC100B5
:100BA00028600DE0C6F80080FFF784FC074604E0EB
:100BB000FFF780FCC01B022823D828688007F7D4E1
:100BC000207800072CD57948A169D9B1C0F80090E8
:100BD000FFF770FC074604E0FFF76CFCC01B02281F
:100BE0000FD8686A8007F7D571484FF4FA5100684A
:100BF000B0FBF1F0009000BF0098411E0091FAD2C6
:100C00000EE080E0C0F80080FFF754FC074604E0E7
:100C1000FFF750FCC01B022875D8686A8007F7D41C
:100C20002078400760D5E8690027C00008D4E8694B
:100C300040F08050E861E869012700F080500090A2
:100C40005C480168C90513D40168834641F480718A
:100C50000160FFF72FFC824606E000BFFFF72AFC89
:100C6000A0EB0A0064284ED8DBF80000C005F5D5DB
:100C7000E06801280AD008B1052813D0286A20F0BE
:100C800001002862286A20F0040002E0286A40F08F
:100C900001002862E06841F2883B98B1FFF70AFC46
:100CA00082460BE0286A40F004002862EEE700BFAD
:100CB000FFF700FCA0EB0A0159455AD8286A8007C3
:100CC000F6D50CE0FFF7F6FB824605E0FFF7F2FBF6
:100CD000A0EB0A0159454CD8286A8007F6D41FB109
:100CE000E86920F08050E861E06988B36968C1F381
:100CF0008101022944D00228C6F8608004D0FFF7A1
:100D0000D9FB044638E034E0FFF7D4FB074604E0A3
:100D1000FFF7D0FBC01B02282BD828688001F7D42E
:100D2000206AB0F5803F05D16868A16820F40030E2
:100D300008436860D4E908010843696821F4741124
:100D400008436860C6F86090FFF7B4FB044606E00D
:100D500025E000BFFFF7AEFB001B022809D828687A
:100D60008001F7D51BE000BFFFF7A4FB001B0228A2
:100D700002D90320BDE8F88F28688001F4D40EE082
:100D80000128F7D06868226A00F48031914204D1CA
:100D9000616A00F47010884201D00120EAE7002067
:100DA000E8E7000000100240000042428004424296
:100DB000100000200070004010B5401EB0F1807F90
:100DC00001D3012010BD4FF0E02460610F216017B6
:100DD00000F048FC0020A06107202061002010BD29
:100DE0007047704770B590F83C20012A26D0012446
:100DF00080F83C40022280F83D2003685A689D68D4
:100E000022F070060A6832435A600D4B02689A421B
:100E100008D0B2F1804F05D00A4B9A4202D00A4B5B
:100E20009A4204D1496825F080031943916080F803
:100E30003D40002180F83C10084670BD022070BD86
:100E4000002C0140000400400008004010B50400E0
:100E500003D094F83D0010B107E0012010BD002040
:100E600084F83C00204600F01FF8022084F83D0082
:100E7000211D206800F084FB012084F8460084F8DE
:100E80003E0084F83F0084F8400084F8410084F874
:100E9000420084F8430084F8440084F8450084F854
:100EA0003D00002010BD000008B50068B0F1804F83
:100EB00012D10A48C16941F00101C161C069002233
:100EC00000F00100009011461C20FFF7E7FCBDE890
:100ED00008401C20FFF7D4BC08BD000000100240F1
:100EE00090F83D10012901D001207047022180F8BF
:100EF0003D100168CA6842F00102CA6000680B49EF
:100F0000884208D0B0F1804F05D00949884202D00C
:100F10000849884204D1816801F00701062903D0FD
:100F2000016841F00101016000207047002C014080
:100F3000000400400008004070B5044690F83C00F2
:100F40000025012817D0012684F83C60022084F88F
:100F50003D002068826822F0770222F47F4282609E
:100F60000868502838D00DDC20284FD005DC90B31D
:100F7000102811D14AE0022070BD302846D0402808
:100F80000AD13BE060282FD070280DD0B0F5805FEB
:100F900003D0B0F5005F12D0012584F83D60002039
:100FA00084F83C00284670BDCB68D1E90121206857
:100FB00000F022FB2068816841F0770109E0CB68EE
:100FC000D1E90121206800F017FB2068816841F415
:100FD00080418160E1E719E0CA684968206800F053
:100FE0001DFB5021206806E0CA684968206800F0AF
:100FF00026FB6021206800F009FBCEE7CA6849683B
:10100000206800F00BFB40212068F4E722680146CD
:101010001046F0E770472DE9F04104460068C668C5
:1010200005694FF00007A90713D5B10711D5F91EBF
:10103000016101202077206880698007204602D066
:10104000FFF7E8FF04E000F07EF8204600F07CF8AF
:101050002777680716D5700714D521686FF004004C
:101060000861022020772068806910F4407F2046C4
:1010700002D0FFF7CFFF04E000F065F8204600F053
:1010800063F82777280715D5300713D521686FF047
:1010900008000861042020772068C0698007204686
:1010A00002D0FFF7B7FF04E000F04DF8204600F053
:1010B0004BF82777E80616D5F00614D521686FF0AF
:1010C00010000861082020772068C06910F4407F74
:1010D000204602D0FFF79EFF04E000F034F82046DF
:1010E00000F032F82777E80708D0F00706D021682B
:1010F0006FF001000861204600F028F8280608D5A6
:10110000300606D521686FF0800008612046FFF7A1
:1011100067FE680608D5700606D521686FF04000A6
:101120000861204600F026F8A8060AD5B00608D5C2
:1011300021686FF0200008612046BDE8F041FFF70C
:1011400050BEBDE8F081704770470000074908684D
:10115000002809DD401E0860002805DC64200860C6
:1011600008210348FFF798B97047000000000020ED
:10117000000801407047FEE701684A69D243520502
:101180000FD46FF480624A61002140F8301F2022A2
:1011900042738173026942F004020261017301200B
:1011A0007047002070470000F8B50446C06A1E462C
:1011B0000D461746082807D0012805D010F5803FB6
:1011C00002D0206B122804D12068016841F480719C
:1011D0000160134600224FF001112046009600F0F6
:1011E0005DF840B120680068C00502D54FF400707A
:1011F00020640320F8BD2069B0F5804F0ED0062092
:10120000216800EAD51040F0F000086133463A4604
:101210000B49204600F08AF878B902E005F0FE009C
:1012200000E0E8B221680861054933463A46891F63
:10123000204600F07BF80028DCD00120F8BD00003B
:101240000800010070B516460D4604461EE0204613
:10125000FFF792FF08B1012070BD681C16D0FFF7A0
:1012600029F9801BA84200D885B920684069C0438D
:1012700040070BD5002044F8300F20216173A07384
:10128000216941F0200121612073E4E72068406971
:10129000C0434007DBD4002070BD00002DE9F047BB
:1012A000984617460D460446C1F30746DDF82090E0
:1012B0002AE000BFB8F1FF3F26D0FFF7FBF8A0EB14
:1012C0000901414502D8B8F1000F1DD12068012E57
:1012D00016D0806925EA00000004000C12D000201E
:1012E000B84211D1002044F8300F20216173A0735F
:1012F000216941F02001216120730120BDE8F087C0
:101300004069E7E70120EBE72068012E0AD08069F9
:1013100025EA00000004000C06D00020B842C9D025
:101320000020EBE74069F3E70120F7E72DE9F047FC
:10133000984616460D4604464FF000094FF0200A25
:10134000C1F3074723E020684069C043400515D436
:101350002068016841F40071016021686FF48060C9
:101360004861C4F8309084F83DA084F83E90216C28
:1013700041F00401216484F83C9021E0701C06D007
:10138000FFF798F8A0EB0800B04203D816B1012F80
:101390001FD021E02068012F15D0806925EA0000C8
:1013A0000004000C18D000BF44F8309F84F80DA052
:1013B00084F80E90216941F02001216184F80C909D
:1013C0000120BDE8F087406925EA00000004000C18
:1013D000EAD12068406901E02068806925EA0000C0
:1013E0000004000CAFD1ECE770B516460D4604467C
:1013F0001EE02046FFF7C0FE08B1012070BD681C4A
:1014000016D0FFF757F8801BA84200D885B920688E
:101410004069C04300060BD5002044F8300F20215E
:101420006173A073216941F0200121612073E4E719
:1014300020684069C0430006DBD4002070BD000076
:1014400030B585B0002418480094019402940394A8
:10145000816941F020018161816901F020010491DD
:10146000816941F004018161816901F00401049105
:10147000816941F00801816180690C4D00F008002C
:101480000490002208212846FFF70EF8082000905B
:101490000120CDE901040220039069462846FEF7A9
:1014A0000BFF05B030BD00000010024000080140F5
:1014B00010B586B000241648009401940294039459
:1014C00004944FF080410594016040F69F71C0E99B
:1014D00001141321C0E903148461FFF7B7FC08B1BC
:1014E00072B6FEE74FF48050009069460848FFF757
:1014F00023FD08B172B6FEE7049404A904480594DC
:10150000FFF770FC002801D072B6FEE706B010BDF0
:1015100068000020FEE7FEE770477047FFF758B904
:1015200010B590B028216846FEF74EFE14210AA897
:10153000FEF74AFE022000900120049010200024B3
:10154000059007946846FFF7A7FA08B172B6FEE760
:101550000F20CDE90A040C940D9400210AA80E94E2
:10156000FFF7CEF9002801D072B6FEE710B010BD2B
:10157000704700000148FFF74EBD000068000020E2
:10158000F0B50268194B1A4C1A4D4FF0804798423B
:1015900005D0B84203D0A04201D0A84203D122F026
:1015A00070064A683243984205D0B84203D0A04240
:1015B00001D0A84203D122F44074CA6822434C6986
:1015C00022F08002224302608A68C2620A68826254
:1015D000984201D109690163012141610169C9078B
:1015E00003D0016921F001010161F0BD002C01402F
:1015F000000400400008004010B5846842EA03225D
:1016000024F47F440A432243826010BD826822F0A2
:1016100070020A4342F007018160704710B5036A07
:10162000046A24F001040462846924F0F00444EAAA
:10163000021423F00A020A438461026210BD10B54D
:10164000036A046A24F010040462846923F0A0038E
:1016500024F4704444EA023243EA011182610162D7
:1016600010BDFEE70907090E002804DB00F1E020A9
:1016700080F80014704700F00F0000F1E02080F8BF
:10168000141D704710B53220FEF704FE302000F024
:1016900041F80520FEF7FEFD302000F03BF8012068
:1016A000FEF7F8FD302000F035F80A20FEF7F2FDD5
:1016B000202000F02FF80A20FEF7ECFD282000F093
:1016C00029F80120FEF7E6FD082000F023F80120AC
:1016D000FEF7E0FD012000F01DF80120FEF7DAFD25
:1016E0000120FEF7D7FD062000F014F80120FEF7D8
:1016F000D1FDBDE810400C2000F00CB810B101285D
:1017000005D102E041F0800101E041F0C001C8B222
:10171000AFF300801CB500F0F00141F00C028DF831
:10172000042041F0080100018DF8051040F00C0183
:101730008DF8061040F008008DF807006420009036
:10174000042301AA27210248FEF77EFF1CBD0000EA
:10175000140000201CB500F0F00141F00D028DF8DE
:10176000042041F0090100018DF8051040F00D0141
:101770008DF8061040F009008DF8070064200090F5
:10178000042301AA27210248FEF75EFF1CBD0000CA
:101790001400002010B5044602E0641CFFF7DAFFD5
:1017A00020780028F9D110BDFFF71AF8FFF7B8FE2E
:1017B000FFF746FE124811494FF48042016011497B
:1017C000416000218160C0E9031241618161C16112
:1017D0000162FEF775FE08B172B6FEE7FFF768FE1C
:1017E00007485430FFF77CFBFFF74CFF0021084609
:1017F000FFF784FF04A0FFF7CDFFF7E70054004098
:1018000014000020A0860100436F756E7465723A63
:1018100020000000010202030405060708090A0B64
:101820000C0D0E0F1010000000000000000001025F
:101830000304060708090000000001020304000079
:1018400060180008000000201400000028010008B3
:101850007418000814000020FC0600004401000871
:101860006400000001000000100000000000000003
:0418700000127A00E8
:04000005080000ED02
:00000001FF
