:020000040800F2
:10000000380800208901000803220008271D000885
:10001000012200089903000867250008000000007D
:10002000000000000000000000000000572200084F
:10003000A903000800000000552200088D220008D6
:10004000A3010008A3010008A3010008A301000800
:10005000A3010008A3010008A3010008A3010008F0
:10006000A3010008A3010008A30100089D030008E4
:10007000A3010008A3010008A3010008A3010008D0
:10008000A3010008A3010008A3010008A3010008C0
:10009000A3010008A3010008A3010008A3010008B0
:1000A000A3010008A3010008A3010008A3010008A0
:1000B0000D23000819230008A3010008A30100086C
:1000C000A3010008A3010008A3010008A301000880
:1000D000A3010008A3010008A3010008A301000870
:1000E000A3010008A3010008A301000800F002F822
:1000F00000F03AF80AA090E8000C82448344AAF188
:100100000107DA4501D100F02FF8AFF2090EBAE885
:100110000F0013F0010F18BFFB1A43F0010318473B
:10012000A4280000C4280000103A24BF78C878C171
:10013000FAD8520724BF30C830C144BF04680C60ED
:10014000704700000023002400250026103A28BF35
:1001500078C1FBD8520728BF30C148BF0B60704739
:100160001FB51FBD10B510BD00F058F81146FFF7C0
:10017000F7FF02F09BFA00F076F803B4FFF7F2FF06
:1001800003BC00F07DF8000009488047094800479B
:10019000FEE7FEE7FEE7FEE7FEE7FEE7FEE7FEE737
:1001A000FEE7FEE704480549054A064B7047000094
:1001B00009230008ED00000838020020380800205C
:1001C00038040020380400204FF0000200B5134628
:1001D00094469646203922BFA0E80C50A0E80C5067
:1001E000B1F12001BFF4F7AF090728BFA0E80C5018
:1001F00048BF0CC05DF804EB890028BF40F8042B11
:1002000008BF704748BF20F8022B11F0804F18BF7D
:1002100000F8012B7047704770477047754600F033
:100220002BF8AE4605006946534620F00700854688
:1002300018B020B5FFF7B6FFBDE820404FF000062C
:100240004FF000074FF000084FF0000B21F00701BE
:10025000AC46ACE8C009ACE8C009ACE8C009ACE801
:10026000C0098D46704710B50446AFF300802046A4
:10027000BDE81040FFF781BF00487047D80100205B
:1002800001491820ABBEFEE72600020070470000BF
:1002900070B5044600688168C943C90717D18168F1
:1002A00021F00101816000F035FC05460AE000BF45
:1002B00000F030FC401B022804D920688068C0434D
:1002C000C00706D020688068C043C007F0D0002077
:1002D00070BDA06A40F01000A062E06A40F001002A
:1002E000E062012070BD0000F8B5002604460096CB
:1002F00000688168C943C9072DD0816841F00101B8
:100300008160164816490068B0FBF1F000E0401E1D
:1003100000900028FBD100F0FDFB054616E000BF71
:1003200000F0F8FB401B022810D920688068C04309
:10033000C0070BD0A06A40F01000A062E06A40F055
:100340000100E06284F824600120F8BD2068806824
:10035000C043C007E4D10020F8BD000034000020F5
:1003600040420F0010B50B4C01224021204600F006
:10037000CBFB00228021204600F0C6FB0122082191
:10038000204600F0C1FB20460022BDE810401021AD
:1003900000F0BABB00080140FEE70000014800F091
:1003A000D9B9000094010020704772B6FEE7000042
:1003B00010B50B4C00224021204600F0A5FB012285
:1003C0008021204600F0A0FB00220821204600F0FA
:1003D0009BFB20460122BDE81040102100F094BB99
:1003E00000080140F8B50024009490F82420254628
:1003F000012A12D0012280F824204A681F23072AEC
:100400000DD20668776B521E02EB820293409F4327
:100410000B6893401F43776319E00220F8BD06681C
:100420000D2A0AD2376BD21F02EB820293409F4300
:100430000B6893401F43376309E0F76A0D3A02EBFC
:10044000820293409F430B6893401F43F7620A6800
:10045000072306680A2A0AD3F7680A3A02EB42021F
:1004600093409F438B6893401F43F76008E03769D0
:1004700002EB420293409F438B6893401F433761D6
:100480000A68102A01D0112A20D1124B02689A4220
:1004900017D193681B0219D4936843F40003936047
:1004A0000968102912D10C490C4A0968B1FBF2F114
:1004B00001EB8101490000E0491E00910029FBD1B8
:1004C00004E0816A41F020018162012480F8245017
:1004D0002046F8BD002401403400002040420F00B7
:1004E0000068C06C704700002DE9F0414FF0000734
:1004F00004003D467ED0A06A002628B9E66284F852
:100500002460204600F07EF82046FFF7C1FEA16A75
:10051000C90600D420B1A06A40F01000A06269E0D2
:10052000A16A21F4885141F00201A1626268E16987
:10053000237B0A4347EA43010A43A1684FF48077CB
:10054000B94209D0012907D05FF0000194F814C026
:10055000BCF1010F02D00AE03946F7E7F3B1A36A14
:1005600043F02003A362E36A43F00103E3622368DC
:10057000D3F804C02CF4694C4CEA010CC3F804C055
:1005800021688B68DFF870C003EA0C0313438B60AB
:10059000A168B9420BD0012909D00CE0DFF85CC09A
:1005A000A3690CEB43330B4343F40061DFE7218A7B
:1005B0000D05A5F580152168CB6A23F470032B4344
:1005C000CB62216889680E4B1940914208D1E662DE
:1005D000A16A21F0020141F00101A162BDE8F081B0
:1005E000A06A20F0020040F01000A062E06A40F033
:1005F0000100E0620120F1E7FDF7E1FF00E0FFFF0D
:10060000FE0E1FFF70B586B00025064600950195C9
:100610000295039500681A4988422ED119498869C4
:1006200040F400708861886900F400700490886963
:1006300040F0080088618869694600F0080004906D
:1006400002200090032001900F4800F06DF9104C3B
:100650000E48C4E900058020C4E902504000206132
:10066000800060612020C4E90605204600F01CF9E6
:1006700008B1FFF79AFE3462666206B070BD0000F2
:100680000024014000100240000C0140080002401C
:100690009401002070B5044690F8240001280DD084
:1006A000012084F824002046FFF71EFE02004FF0D0
:1006B000000005D084F82400104670BD022070BDF3
:1006C000A16A40F20123994341F48071A1621F4D58
:1006D00023681F49AB4218D10E6816F4702F14D04E
:1006E000A66A46F48016A6620E68760505D5A66A47
:1006F00026F4005646F48056A662A66AF6040AD589
:10070000E66A26F00606E66206E0A66A26F4801689
:10071000A6625E68E9E7E06284F824006FF00200F8
:10072000186020688368C3F34243072B05D1A842B1
:1007300008D1096811F4702F04D0816841F4801148
:100740008160B9E7816841F4A001F9E70028014020
:10075000042401402DE9F05FC16B0C6801680B684F
:10076000D0F840C0042202FA0CF2494DDFF824A16F
:10077000494E4A4FDFF828B1DFF828E122422CD059
:100780005A072AD50A68920603D40A6822F004029E
:100790000A600168A94201D1042219E0514501D142
:1007A000402215E0B14202D14FF4806210E0B9421C
:1007B00002D14FF480420BE0594502D14FF4802220
:1007C00006E0714502D14FF4800201E04FF08062F3
:1007D0002F4908394A60C16A3BE04FF0020808FA25
:1007E0000CF818EA040F4FF000094FF0010235D061
:1007F0005FEA837832D50B689B0605D40B6823F03B
:100800000A030B6080F821200168A94201D102226D
:1008100019E0514501D1202215E0B14202D14FF437
:10082000007210E0B94202D14FF400520BE059457A
:1008300002D14FF4003206E0714502D14FF40012AC
:1008400001E04FF00072124908394A6080F82090A8
:10085000816A00291AD0BDE8F05F0847082505FA2B
:100860000CF5254212D01B0710D50B6823F00E03A0
:100870000B6090F84010C36B02FA01F1596082637B
:1008800080F8212080F82090016BE2E7BDE8F09F1E
:10089000080002401C0002403000024044000240B8
:1008A000580002406C00024030B528B308C8134914
:1008B00014221944B1FBF2F18900C163104981632C
:1008C000022141771A6843F6F0718A43D0E9001497
:1008D0002143D0E902452C43214304692143446963
:1008E000214384692143114319600021416301229E
:1008F00042770177084630BD012030BDF8FFFDBFCB
:100900000000024070B5044600F004F90546601C82
:1009100002D004480078044400F0FCF8401BA042D8
:10092000FAD370BD280000202DE9F84FDFF8B89108
:100930000024A9F1040B23460F2709F1040AABF1A7
:10094000040EC9E00125A5402A40AA427DD1674E88
:10095000D1F804C0ACEB0608B44532D014DCBCF1CD
:10096000030F3AD009DCBCF1000F2AD0BCF1010F13
:100970001CD0BCF1020F31D11DE0BCF1110F17D01A
:10098000BCF1120F2AD119E0B8F5881F19D006DC86
:10099000B8F5803F15D0B8F5801F1FD111E0B8F52C
:1009A000001F0ED0B8F5041F18D10AE0CB6815E07F
:1009B000CB681B1D12E0CB6808330FE0CB680C330B
:1009C0000CE08B682BB1012B4FF0080303D045617D
:1009D00004E0042302E0056100E00023FF2A01D8BF
:1009E000064601E000F104064FEA840501D9A5F1AD
:1009F0002005D6F8008007FA05FC28EA0C0803FA5F
:100A000005F548EA0508C6F800804D68ED0062D596
:100A1000374DAE6946F00106AE61AD6924F00306BC
:100A200005F001050095334D06EB050CDCF8085088
:100A3000A607360F07FA06F825EA0805DFF8B8809A
:100A4000404503D14FF0000817E044E0DFF8AC80E8
:100A5000404502D14FF001080FE0DFF8A480404587
:100A600002D14FF0020808E0DFF89880404502D13B
:100A70004FF0030801E04FF0040808FA06F848EACE
:100A80000508CCF808804D68D9F80060ED024D46A5
:100A900001D5164300E096432E604D68DAF80060F9
:100AA000AD02554601D5164300E096432E604D68D1
:100AB000DBF80060AD035D4601D5164300E09643C8
:100AC0002E604D68DEF80060ED03754601D51643D3
:100AD00000E096432E60641C0D682A46E5407FF4D2
:100AE00031AFBDE8F88F000008040140000011108C
:100AF000001002400000014000080140000C0140CD
:100B000000100140001401400AB10161704709045E
:100B1000FBE70000014880687047000028000020C3
:100B200070B5040025D094F83D00002520B984F864
:100B30003C50204600F04EF9242084F83D00206807
:100B4000016821F0010101602068016841F4004161
:100B500001602068016821F40041016000F00CFB95
:100B60004D4A6168914201D84C4900E04C498842A5
:100B700001D2012070BD4B492368B0FBF1F15E68E2
:100B800026F03F060E435E606368934206D94FF439
:100B9000967359434FF47A73B1FBF3F12368491C00
:100BA0001E6A26F03F06314319626168914210D8EF
:100BB0004900401EB0FBF1F2521CC2F30B02042AA2
:100BC00001D2042022E0B0FBF1F0401CC0F30B0086
:100BD0001CE0A268F2B301EBC10303EB0116431E54
:100BE000B3FBF6F35B1C43F480431B0549D092B37F
:100BF00001EBC10202EB0111401EB0FBF1F0401C01
:100C0000C0F30B0040F4804040F400402168CA6902
:100C10004CF6FF739A431043C861D4E907100143AF
:100C20002068026822F0C00211430160D4E9030188
:100C300001432068826848F2FF339A431143816080
:100C4000D4E9050108432168CA6822F0FF02104375
:100C5000C86001E00EE016E02068016841F0010183
:100C600001602564202084F83D00256384F83E500F
:100C7000002070BD01EB4106431EB3FBF6F35B1C85
:100C8000B3E70120C2E701EB4101401EB0FBF1F0E8
:100C9000401CC0F30B00B7E7A086010080841E0053
:100CA00000093D0040420F002DE9F84F1F469046D5
:100CB0008A460446DDF82890FFF72CFF054694F895
:100CC0003D0020287FD1192301224049204600956C
:100CD00001F0BCF8002876D194F83C00012872D0CD
:100CE000012084F83C0020680168C90703D101682D
:100CF00041F0010101602068016821F40061016098
:100D0000212084F83D00102084F83E00002626644F
:100D1000C4F824806785608D20852D48E0622B46CD
:100D20004A465146204601F017F890B920684169BB
:100D30008069009036E02A464946204601F02CF9A9
:100D400050B1206C042804D12068016841F400717E
:100D500001600120BDE8F88F606A216800780861B1
:100D6000606A401C6062618D491E6185218D491E4B
:100D700089B2218522685369DB435B070BD451B1EB
:100D800000781061606A401C6062608D401E608562
:100D9000208D401E20852A464946204601F02AF82B
:100DA0000028CED1208D0028C5D154F83D0B016814
:100DB00041F400710160202004F81E09E67766778F
:100DC0000020C7E7FFE70220C4E700000200100090
:100DD0000000FFFF10B586B0002100910191029143
:100DE000039100680F4988421AD10F4CA06940F066
:100DF0000800A061A069694600F008000490C020C6
:100E0000009012200190032003900848FFF78CFD0A
:100E1000E06940F40010E061E06900F40010049023
:100E200006B010BD0054004000100240000C01400C
:100E300002488168027811448160704728000020D0
:100E4000074810B5016841F010010160032000F06F
:100E500075F80F2000F006F800F024F8002010BD0F
:100E60000020024070B50D4D04464FF47A71287889
:100E7000B1FBF0F00A490968B1FBF0F000F042FB69
:100E800048B9102C07D200222146501E00F036F837
:100E900000206C6070BD012070BD000028000020A3
:100EA000340000200C4808B5816941F001018161DE
:100EB000816901F001010091C16941F08051C16176
:100EC000C06900F0805000900448416821F0E06162
:100ED00041F00071416008BD001002400000014077
:100EE000002809DB00F01F02012191404009800029
:100EF00000F1E020C0F8001170470000F0B40E4B84
:100F00001B680C46C3F30223C3F10705042D00D967
:100F10000425191D072901D2002300E0DB1E01264C
:100F200006FA05F1491E214099409E40761E164062
:100F30003143F0BC01F018BB0CED00E0064900F0B5
:100F4000070208684FF6FF03184040EA0220034AF0
:100F500010430860704700000CED00E00000FA0547
:100F60002DE9F84305460078354CC00754D0E069B8
:100F70000026C00008D4E06940F08050E061E069DC
:100F8000012600F0805000902E480168C90512D457
:100F90000168804641F480710160FFF7BBFD0746A0
:100FA00005E000BFFFF7B6FDC01B642823D8D8F8C2
:100FB0000000C005F6D5206A10F4407021D0A98841
:100FC00001F4407181421CD0206A1F49012220F4A3
:100FD00040700A6000220A602062C00711D0FFF74B
:100FE00099FD074641F2883808E000BFFFF792FDFF
:100FF000C11B414502D90320BDE8F883206A800760
:10100000F4D5206A696820F44070084320621EB15C
:10101000E06920F08050E0612878800705D560689D
:10102000A96820F44040084360602878C00605D5D0
:101030006068E96820F48000084360600020DBE716
:101040000010024000700040400442422DE9F04789
:101050000F46050061D0434E306800F00700B842EB
:1010600009D2306820F0070038433060306800F063
:101070000700B84251D128683B4C810712D5400780
:1010800003D5606840F4E06060602878000703D50D
:10109000606840F4605060606068A96820F0F0000B
:1010A000084360602878C00728D06868012810D0FD
:1010B0002168022810D0890700292EDA616821F002
:1010C000030101436160FFF725FD804641F2883945
:1010D0000DE021688903EFE78901EDE7FFF71AFDCD
:1010E000A0EB0801494502D90320BDE8F0876068FC
:1010F000696800F00C00B0EB810FEFD1306800F0B0
:101100000700B8420BD9306820F007003843306040
:10111000306800F00700B84201D00120E5E72878E8
:10112000400705D56068E96820F4E0600843606026
:101130002878000706D56068296920F4605040EAE5
:10114000C100606000F028F86168084AC1F303112B
:10115000515CC8400649086006480068FFF782FEF7
:101160000020C2E70020024000100240AA29000827
:10117000340000202C00002004480549006849681C
:10118000044AC1F30221515CC8407047340000207A
:1011900000100240BA2900080E4A51680E4801F0BA
:1011A0000C03042B11D0082B0FD10C48C1F383433F
:1011B000C903C05C0AD55168084AC1F34041921E78
:1011C000515C054A5043B0FBF1F070470449484375
:1011D000704700000010024000127A009A290008AF
:1011E00000093D002DE9F84F040070D02078C04D73
:1011F000C00749D06868C0F38100012807D068683B
:10120000C0F38100022809D16868C00306D52868A8
:10121000800339D560680028E7D035E06068B0F514
:10122000803F0BD010B1B0F5A02F11D0286820F46A
:1012300080302860286820F4802002E0286840F48C
:1012400080302860606890B1FFF764FC06460AE0D1
:10125000286840F480202860F0E700BFFFF75AFCC0
:10126000801B642873D828688003F7D50CE0FFF74B
:1012700051FC064605E000BFFFF74CFC801B6428CC
:10128000F0D828688003F7D420789A4E80074FF072
:1012900001094FF0000839D5686810F00C0F07D02D
:1012A0006868C0F38100022809D16868C00306D4C9
:1012B0002868800714D52069012808D110E020692A
:1012C000B0B1C6F80090FFF725FC074605E00AE13B
:1012D000FFF720FCC01B0228C4D828688007F7D578
:1012E0002868616920F0F80040EAC10028600DE03C
:1012F000C6F80080FFF70EFC074604E0FFF70AFC83
:10130000C01B022823D828688007F7D4207800075C
:101310002CD57948A169D9B1C0F80090FFF7FAFB44
:10132000074604E0FFF7F6FBC01B02280FD8686AE7
:101330008007F7D571484FF4FA510068B0FBF1F01F
:10134000009000BF0098411E0091FAD20EE080E0AC
:10135000C0F80080FFF7DEFB074604E0FFF7DAFB8A
:10136000C01B022875D8686A8007F7D42078400728
:1013700060D5E8690027C00008D4E86940F08050D3
:10138000E861E869012700F0805000905C4801683E
:10139000C90513D40168834641F480710160FFF7E9
:1013A000B9FB824606E000BFFFF7B4FBA0EB0A00E2
:1013B00064284ED8DBF80000C005F5D5E0680128A8
:1013C0000AD008B1052813D0286A20F0010028624D
:1013D000286A20F0040002E0286A40F00100286238
:1013E000E06841F2883B98B1FFF794FB82460BE03E
:1013F000286A40F004002862EEE700BFFFF78AFB8E
:10140000A0EB0A0159455AD8286A8007F6D50CE0A6
:10141000FFF780FB824605E0FFF77CFBA0EB0A01AB
:1014200059454CD8286A8007F6D41FB1E86920F0E6
:101430008050E861E06988B36968C1F381010229DD
:1014400044D00228C6F8608004D0FFF763FB04464E
:1014500038E034E0FFF75EFB074604E0FFF75AFB95
:10146000C01B02282BD828688001F7D4206AB0F569
:10147000803F05D16868A16820F4003008436860A7
:10148000D4E908010843696821F4741108436860CD
:10149000C6F86090FFF73EFB044606E025E000BF7B
:1014A000FFF738FB001B022809D828688001F7D510
:1014B0001BE000BFFFF72EFB001B022802D9032010
:1014C000BDE8F88F28688001F4D40EE00128F7D039
:1014D0006868226A00F48031914204D1616A00F4A4
:1014E0007010884201D00120EAE70020E8E7000000
:1014F00000100240000042428004424234000020BA
:101500000070004010B5401EB0F1807F01D3012073
:1015100010BD4FF0E02460610F21601701F024F846
:101520000020A06107202061002010BD7047704797
:1015300070B590F83C20012A26D0012480F83C4068
:10154000022280F83D2003685A689D6822F07006E8
:101550000A6832435A600D4B02689A4208D0B2F1D1
:10156000804F05D00A4B9A4202D00A4B9A4204D1CE
:10157000496825F080031943916080F83D400021BF
:1015800080F83C10084670BD022070BD002C014060
:10159000000400400008004010B5040003D094F897
:1015A0003D0010B107E0012010BD002084F83C0090
:1015B000204600F01FF8022084F83D00211D20681D
:1015C00000F0B0FE012084F8460084F83E0084F864
:1015D0003F0084F8400084F8410084F8420084F819
:1015E000430084F8440084F8450084F83D0000205E
:1015F00010BD000008B50068B0F1804F12D10A4854
:10160000C16941F00101C161C069002200F001001F
:10161000009011461C20FFF771FCBDE808401C201B
:10162000FFF75EBC08BD00000010024090F83D10BE
:10163000012901D001207047022180F83D10016886
:10164000CA6842F00102CA6000680B49884208D0AB
:10165000B0F1804F05D00949884202D0084988423C
:1016600004D1816801F00701062903D0016841F027
:101670000101016000207047002C0140000400407F
:101680000008004070B5044690F83C000025012891
:1016900017D0012684F83C60022084F83D002068C1
:1016A000826822F0770222F47F4282600868502824
:1016B00038D00DDC20284FD005DC90B3102811D194
:1016C0004AE0022070BD302846D040280AD13BE0D5
:1016D00060282FD070280DD0B0F5805F03D0B0F512
:1016E000005F12D0012584F83D60002084F83C00A2
:1016F000284670BDCB68D1E90121206800F05BFE6F
:101700002068816841F0770109E0CB68D1E90121C7
:10171000206800F050FE2068816841F480418160BB
:10172000E1E719E0CA684968206800F0F9FE502135
:10173000206806E0CA684968206800F002FF60215E
:10174000206800F042FECEE7CA684968206800F0D1
:10175000E7FE40212068F4E7226801461046F0E7E2
:101760002DE9F0410D46040003D094F83D0018B176
:1017700008E00120BDE8F081002084F83C0020460C
:1017800000F040F8022084F83D002068816844F2AF
:10179000070291438160211D206800F0C3FD22688B
:1017A00090689169166A2B68AF69034340F2033071
:1017B000814341EA0721A868EF6908434FF6FC41DD
:1017C0008843E96840EA0720014328692F6A00013D
:1017D00040EA0730084369686D6926F0220646EA48
:1017E0000515294393602268906154F8460B016205
:1017F000012004F81F09E0752076E0762077A075B7
:101800000020B7E700B585B0002100910191029159
:10181000039100681749884229D11748C16941F0EE
:101820000201C161C16901F002010491816941F0C5
:10183000080181618069694600F008000490302049
:101840000090012002900D48FFF76EF80C484168A7
:1018500021F4406141F0E06141F400614160002207
:1018600011461D20FFF74AFB1D20FFF739FB05B08D
:1018700000BD00000004004000100240000C0140C8
:101880000000014070B590F83E60044690F83F506B
:1018900090F8423090F84320022021B104290ED064
:1018A000012E1BD114E0012E18D1012B16D184F882
:1018B0003E0084F8420001220021206820E0012D32
:1018C0000CD1012A0AD184F83F0084F8430014E0C7
:1018D000012D03D1012B01D1012A01D0012070BDBE
:1018E00084F83E0084F83F0084F8420084F8430006
:1018F00001220021206800F051FD0122042120680E
:1019000000F04CFD2068016841F0010101600020F9
:1019100070BD70472DE9F04104460068C66805694E
:101920004FF00007A90713D5B10711D5F91E0161C2
:1019300001202077206880698007204602D0FFF7C9
:10194000E8FF04E000F0A4F8204600F049F927770A
:10195000680716D5700714D521686FF00400086178
:10196000022020772068806910F4407F204602D052
:10197000FFF7CFFF04E000F08BF8204600F030F9CD
:101980002777280715D5300713D521686FF0080091
:101990000861042020772068C0698007204602D0B3
:1019A000FFF7B7FF04E000F073F8204600F018F9E5
:1019B0002777E80616D5F00614D521686FF01000D9
:1019C0000861082020772068C06910F4407F204615
:1019D00002D0FFF79EFF04E000F05AF8204600F026
:1019E000FFF82777E80708D0F00706D021686FF0E6
:1019F00001000861204600F043F9280608D53006AA
:101A000006D521686FF0800008612046FFF78EFD43
:101A1000680608D5700606D521686FF04000086199
:101A2000204600F07FF9A8060AD5B00608D521683F
:101A30006FF0200008612046BDE8F041FFF777BD58
:101A4000BDE8F08100B585B00021009101910291BF
:101A5000039100680B49884212D10B48816941F01B
:101A6000080181618069694600F0080004904FF424
:101A7000407000900220019003900448FEF754FF4C
:101A800005B000BD0008004000100240000C0140FD
:101A9000704770B5044690F83C0000260D460128BA
:101AA0000FD0012084F83C006AB1042A1DD0082A16
:101AB0002FD00C2A3FD00126002084F83C0030466D
:101AC00070BD022070BD206800F088FC206881692C
:101AD00041F0080181612068816921F00401816180
:101AE000206881692A69114311E0206800F09EFC9A
:101AF0002068816941F4006181612068816921F475
:101B000080618161206881692A6941EA02218161DD
:101B1000D2E7206800F0B6FC2068C16941F00801F6
:101B2000C1612068C16921F00401C1612068C169F7
:101B30002A69114311E0206800F0D0FC2068C169D7
:101B400041F40061C1612068C16921F48061C16113
:101B50002068C1692A6941EA0221C161ACE710B578
:101B6000040003D094F83D0010B107E0012010BD3F
:101B7000002084F83C00204600F01EF8022084F883
:101B80003D00211D206800F0CDFB012084F84600B7
:101B900084F83E0084F83F0084F8400084F8410057
:101BA00084F8420084F8430084F8440084F8450037
:101BB00084F83D00002010BD08B500680649884241
:101BC00008D10648C16941F00401C161C06900F053
:101BD0000400009008BD0000000800400010024012
:101BE0007047000010B50446022249B104290ED006
:101BF000082913D094F84100012816D0012010BD07
:101C000094F83E000128F9D184F83E200FE094F8C2
:101C10003F000128F2D184F83F2008E094F840000A
:101C20000128EBD184F8402001E084F84120012212
:101C3000206800F0B3FB0F492068884203D1426C52
:101C400042F4004242642068884208D0B0F1804FDC
:101C500005D00949884202D00849884204D18168E8
:101C600001F00701062903D0016841F0010101607C
:101C7000002010BD002C014000040040000800407E
:101C800070B52448FEF706FD2248FEF729FC224CD9
:101C90002049CC3120620968496A2180B4F900509A
:101CA000A56161696422691A5143401AE161A0602B
:101CB00000F08EFDE16800F0A3FD00F06DFD2061F5
:101CC00000EB0020C0EBC0004FF46A7190FBF1F014
:101CD00040F2077165616062884201DB61620EE07B
:101CE0000E49884201DC616201E0002806DA606A80
:101CF000C0F1000060624FF0FF3002E002DD4FF003
:101D0000010060600649606A0968C863BDE8704008
:101D100000F078BA3800002000000020F9F8FFFF3A
:101D20004C0100207047FEE701684A69D243520522
:101D30000FD46FF480624A61002140F8301F2022E6
:101D400042738173026942F004020261017301204F
:101D50007047002070470000F8B50446C06A1E4670
:101D60000D461746082807D0012805D010F5803FFA
:101D700002D0206B122804D12068016841F48071E0
:101D80000160134600224FF001112046009600F03A
:101D90005DF840B120680068C00502D54FF40070BE
:101DA00020640320F8BD2069B0F5804F0ED00620D6
:101DB000216800EAD51040F0F000086133463A4649
:101DC0000B49204600F08AF878B902E005F0FE00E1
:101DD00000E0E8B221680861054933463A46891FA8
:101DE000204600F07BF80028DCD00120F8BD000080
:101DF0000800010070B516460D4604461EE0204658
:101E0000FFF792FF08B1012070BD681C16D0FEF7E5
:101E100081FE801BA84200D885B920684069C04374
:101E200040070BD5002044F8300F20216173A073C8
:101E3000216941F0200121612073E4E720684069B5
:101E4000C0434007DBD4002070BD00002DE9F047FF
:101E5000984617460D460446C1F30746DDF8209024
:101E60002AE000BFB8F1FF3F26D0FEF753FEA0EBFB
:101E70000901414502D8B8F1000F1DD12068012E9B
:101E800016D0806925EA00000004000C12D0002062
:101E9000B84211D1002044F8300F20216173A073A3
:101EA000216941F02001216120730120BDE8F08704
:101EB0004069E7E70120EBE72068012E0AD080693E
:101EC00025EA00000004000C06D00020B842C9D06A
:101ED0000020EBE74069F3E70120F7E72DE9F04741
:101EE000984616460D4604464FF000094FF0200A6A
:101EF000C1F3074723E020684069C043400515D47B
:101F00002068016841F40071016021686FF480600D
:101F10004861C4F8309084F83DA084F83E90216C6C
:101F200041F00401216484F83C9021E0701C06D04B
:101F3000FEF7F0FDA0EB0800B04203D816B1012F68
:101F40001FD021E02068012F15D0806925EA00000C
:101F50000004000C18D000BF44F8309F84F80DA096
:101F600084F80E90216941F02001216184F80C90E1
:101F70000120BDE8F087406925EA00000004000C5C
:101F8000EAD12068406901E02068806925EA000004
:101F90000004000CAFD1ECE770B516460D460446C0
:101FA0001EE02046FFF7C0FE08B1012070BD681C8E
:101FB00016D0FEF7AFFD801BA84200D885B9206877
:101FC0004069C04300060BD5002044F8300F2021A3
:101FD0006173A073216941F0200121612073E4E75E
:101FE00020684069C0430006DBD4002070BD0000BB
:101FF0003EB5002411480094019402940E49846077
:10200000016004730475012505614FF4602144608B
:10201000C161FEF769FA08B172B6FEE70920CDE9A1
:102020000005694602940548FEF7DCF9002801D056
:1020300072B6FEE73EBD00000024014038000020DB
:1020400030B585B00024184800940194029403949C
:10205000816941F020018161816901F020010491D1
:10206000816941F004018161816901F004010491F9
:10207000816941F00801816180690C4D00F0080020
:1020800004900022D8212846FEF73EFDD82000907B
:102090000120CDE901040220039069462846FEF79D
:1020A00043FC05B030BD00000010024000080140B4
:1020B00010B586B00024164800940194029403944D
:1020C00004944FF0804105940160B321C0E90114EC
:1020D00040F69F71C0E903148461FFF75DFA08B10F
:1020E00072B6FEE74FF48050009069460848FFF74B
:1020F000C9FA08B172B6FEE7049404A9044805942D
:10210000FFF716FA002801D072B6FEE706B010BD40
:10211000BC00002010B58CB024216846FEF754F8AE
:1021200000241648099414490A94C0E900144FF693
:10213000FF71C0E90241046184610320CDE900041C
:102140000120CDE902040494CDE9054007946946D5
:102150000A480894FFF704FB08B172B6FEE7099439
:1021600009A906480A94FFF7E3F9002801D072B6DE
:10217000FEE70CB010BD0000000400400401002088
:1021800010B58AB0002407941C2168460894FEF715
:102190001BF81A48184901600921C0E9011440F2EE
:1021A0000771C0E903148461FFF7D9FC08B172B666
:1021B000FEE7079407A911480894FFF7B9F908B199
:1021C00072B6FEE76020CDE9000402940822694659
:1021D0000A480494FFF75DFC08B172B6FEE70C22D2
:1021E00069460648FFF755FC08B172B6FEE703489A
:1021F000FFF728FC0AB010BD000800404C01002089
:10220000FEE7FEE770B5114D114C6868002806DD49
:102210002168686AC86321680864FEF7A3F86868E3
:10222000002806DA2168686AC86321680864FEF736
:10223000BFF8686A002807D12168C863216808646C
:10224000BDE8704000F008B870BD0000000000203C
:102250004C0100207047704710B50B4C0022402104
:102260002046FEF751FC002280212046FEF74CFC60
:10227000002208212046FEF747FC20460022BDE848
:1022800010401021FEF740BC00080140FEF7D0BD11
:1022900030B593B028216846FDF796FF14210AA8AF
:1022A000FDF792FF002501200F951095119501046F
:1022B00012958DE8230004904FF4E010CDE908104A
:1022C000022407946846FEF78DFF08B172B6FEE758
:1022D0000AA90F2081E831004FF48060CDE90D0597
:1022E00002210AA8FEF7B2FE08B172B6FEE74FF46B
:1022F000004011900F940FA8FEF732FE002801D085
:1023000072B6FEE713B030BD704700000148FFF71A
:1023100001BB0000BC0000200148FFF7FBBA000031
:1023200004010020F0B50268194B1A4C1A4D4FF009
:102330008047984205D0B84203D0A04201D0A842BD
:1023400003D122F070064A683243984205D0B84261
:1023500003D0A04201D0A84203D122F44074CA683D
:1023600022434C6922F08002224302608A68C262E2
:102370000A688262984201D10969016301214161C1
:102380000169C90703D0016921F001010161F0BDB4
:10239000002C0140000400400008004010B501F08E
:1023A0001F030121046A99408C430462016A9A4028
:1023B0001143016210BD10B5846842EA032224F47F
:1023C0007F440A432243826010BD826822F070027B
:1023D0000A4342F0070181607047000030B5036A8C
:1023E000026A22F0010202624268846924F07305E5
:1023F0000C682C4323F002058B682B430A4DA8423E
:102400000BD123F00805CB6822F440722B434D69B1
:1024100023F0040315438A692A43426084614968B2
:102420004163036230BD0000002C014030B5026AF8
:10243000036A23F010030362436884690D6824F47F
:10244000E64444EA05248D6822F0200242EA05129F
:102450000B4DA8420ED1CD6822F0800242EA05124F
:102460004D6923F4406343EA85038D6922F04002FD
:1024700043EA85034360846149688163026230BD39
:10248000002C014030B5036A026A22F480720262B5
:102490004268C46923F4007324F073050C682C436C
:1024A0008D6843EA05230C4DA8420ED1CD6823F474
:1024B000006343EA05234D6922F4405242EA0512C3
:1024C0008D6923F4806342EA05124260C461496861
:1024D000C163036230BD0000002C014030B5046AC6
:1024E000026A22F4805202624268C3690D6823F4D2
:1024F000E64343EA05238D6824F4005444EA053496
:10250000064DA84204D14D6922F4804242EA851268
:102510004260C36149680164046230BD002C01401F
:1025200010B5036A046A24F001040462846924F08B
:10253000F00444EA021423F00A020A4384610262AE
:1025400010BD10B5036A046A24F0100404628469A3
:1025500023F0A00324F4704444EA023243EA011158
:102560008261016210BDFEE70907090E002804DB45
:1025700000F1E02080F80014704700F00F0000F137
:10258000E02080F8141D704710B53220FEF7BAF92C
:10259000302000F041F80520FEF7B4F9302000F0BB
:1025A0003BF80120FEF7AEF9302000F035F80A20A4
:1025B000FEF7A8F9202000F02FF80A20FEF7A2F974
:1025C000282000F029F80120FEF79CF9082000F0EF
:1025D00023F80120FEF796F9012000F01DF80120F4
:1025E000FEF790F90120FEF78DF9062000F014F8AF
:1025F0000120FEF787F9BDE810400C2000F00CB870
:1026000010B1012805D102E041F0800101E041F064
:10261000C001C8B2AFF300801CB500F0F00141F07A
:102620000C028DF8042041F0080100018DF805101E
:1026300040F00C018DF8061040F008008DF80700FE
:1026400064200090042301AA4E210248FEF72CFBCF
:102650001CBD0000680000201CB500F0F00141F036
:102660000D028DF8042041F0090100018DF80510DC
:1026700040F00D018DF8061040F009008DF80700BC
:1026800064200090042301AA4E210248FEF70CFBAF
:102690001CBD00006800002010B5044602E0641C68
:1026A000FFF7DAFF20780028F9D110BD08B5FEF752
:1026B000C7FBFFF7EDFDFFF7C3FC2D48416941F073
:1026C000010141614069002200F0010000901146C3
:1026D0000B20FEF713FC0B20FEF702FCFFF788FC33
:1026E000FFF7E6FCFFF74CFD234822494FF48042F8
:1026F00001602249416000218160C0E9031241610B
:102700008161C1610162FEF70BFA08B172B6FEE7A2
:10271000FFF700FD18480821E430FFF763FA164878
:102720000C21E430FFF75EFA134800219C30FFF7DC
:10273000A9F8114804219C30FFF7A4F80E48543042
:10274000FEF774FFFFF720FF03210020FFF758FF7B
:102750000BA0FFF7A1FF03210120FFF751FF0BA002
:10276000FFF79AFF4FF47A70FEF7CCF8FEE700000F
:10277000001002400054004068000020A0860100C4
:10278000444132202D204E32410000004448204375
:10279000445431374100000041000B0ED3F19E023A
:1027A00008D950F400034FEA032323FA02F048BF8C
:1027B0004042704710B500F0A4F800BF4992248051
:1027C000002070476FF0004282EA2000704700004E
:1027D00010F0004148BF4042B0FA80F310FA03F213
:1027E000C3F19D030BD051EAC35101EB12205306F4
:1027F00038BF704700F1010008BF20F001007047AA
:102800004FF47F0C1CEAD0121EBF1CEAD11392EACF
:102810000C0F93EA0C0F00F0478090EA010F48BFBD
:1028200042F480724FF0004C4CEA00204CEA012147
:1028300002EB0302A0FB0113A2F50002002918BF5E
:1028400043F001035B0028BF4FEA330342EB22420F
:102850005FEA132C4CEBC2502EBFBCEB436FB2F5BA
:102860007C0F70474FEA036CBCF1004F08BF20F0AB
:102870000100B2F57C0F38BF70470BD582F0FF0224
:1028800012F5803FC8BF704700F1C040D8BF00F0CC
:102890000040704700F5000C5FEA4C0C48BF7047E1
:1028A000B0F1C04000F073B890EA010F0CEAD11308
:1028B00048BF42F48072624538BF634504D280EA63
:1028C000010000F00040704710B500F01AF800BF9A
:1028D0008900013E00F007B800F009B85FEA410C3A
:1028E0005FEA1C6C08D080EA010000F050B85FEA93
:1028F000400C5FEA1C6CF6D14FF00040A0F5800060
:1029000070470EF1020E2EF0030E5EF8044B2442C7
:1029100004D44FEA4102B2F17F4F11D84FEA40038D
:10292000B3F17F4F0CD80ED14FEAD07CB2F17F4F7C
:102930000CEB4C0C0CF1020C08BF4CEBD17C04E00E
:102940004FF0080C01E04FEAD17C0CEB4C0324FA69
:1029500003F404F00704B4F1040C06D20EEB840C6B
:10296000BDE810404CF0010C6047DFE80CF00708B0
:1029700002024FF00040A0F5800010BD0846420062
:1029800018BFD2F1807288BF00F0004010BDFF2157
:1029900041EAD050C0057047010202030405060752
:1029A00008090A0B0C0D0E0F1010000000000000AB
:1029B00000000102030406070809000000000102EC
:1029C00003040000E4290008000000203800000093
:1029D000280100081C2A0008380000200008000018
:1029E0004401000800000000010000000000000099
:1029F0000000803F00000000000000000000000018
:102A000000000000000000000000000001000000C5
:0C2A1000100000000000000000127A001E
:04000005080000ED02
:00000001FF
