:020000040800F2
:10000000F806002089010008731400085D1100083B
:1000100071140008E7020008E7140008000000005F
:10002000000000000000000000000000771400083D
:10003000E9020008000000007514000879140008A7
:10004000A3010008A3010008A3010008A301000800
:10005000A3010008A3010008A3010008A3010008F0
:10006000A3010008A3010008A3010008A3010008E0
:10007000A3010008A3010008A3010008A3010008D0
:10008000A3010008A3010008A3010008A3010008C0
:10009000A3010008A3010008A3010008A3010008B0
:1000A000A3010008A3010008A3010008A3010008A0
:1000B000A3010008A3010008A3010008A301000890
:1000C000A3010008A3010008A3010008A301000880
:1000D000A3010008A3010008A3010008A301000870
:1000E000A3010008A3010008A301000800F002F822
:1000F00000F03AF80AA090E8000C82448344AAF188
:100100000107DA4501D100F02FF8AFF2090EBAE885
:100110000F0013F0010F18BFFB1A43F0010318473B
:10012000C8150000E8150000103A24BF78C878C14F
:10013000FAD8520724BF30C830C144BF04680C60ED
:10014000704700000023002400250026103A28BF35
:1001500078C1FBD8520728BF30C148BF0B60704739
:100160001FB51FBD10B510BD00F058F81146FFF7C0
:10017000F7FF01F05BFA00F076F803B4FFF7F2FF47
:1001800003BC00F07DF8000009488047094800479B
:10019000FEE7FEE7FEE7FEE7FEE7FEE7FEE7FEE737
:1001A000FEE7FEE704480549054A064B7047000094
:1001B000E5140008ED000008F8000020F806002013
:1001C000F8020020F80200204FF0000200B51346AC
:1001D00094469646203922BFA0E80C50A0E80C5067
:1001E000B1F12001BFF4F7AF090728BFA0E80C5018
:1001F00048BF0CC05DF804EB890028BF40F8042B11
:1002000008BF704748BF20F8022B11F0804F18BF7D
:1002100000F8012B7047704770477047754600F033
:100220002BF8AE4605006946534620F00700854688
:1002300018B020B5FFF7B6FFBDE820404FF000062C
:100240004FF000074FF000084FF0000B21F00701BE
:10025000AC46ACE8C009ACE8C009ACE8C009ACE801
:10026000C0098D46704710B50446AFF300802046A4
:10027000BDE81040FFF781BF0048704794000020A0
:1002800001491820ABBEFEE72600020070470000BF
:1002900070B5044600688168C943C90717D18168F1
:1002A00021F00101816000F05BFA05460AE000BF21
:1002B00000F056FA401B022804D920688068C04329
:1002C000C00706D020688068C043C007F0D0002077
:1002D00070BDA06A40F01000A062E06A40F001002A
:1002E000E062012070BDFEE770470000F8B5002411
:1002F000009490F824202546012A12D0012280F88B
:1003000024204A681F23072A0DD20668776B521EE5
:1003100002EB820293409F430B6893401F43776335
:1003200019E00220F8BD06680D2A0AD2376BD21FE9
:1003300002EB820293409F430B6893401F43376355
:1003400009E0F76A0D3A02EB820293409F430B6883
:1003500093401F43F7620A68072306680A2A0AD3F4
:10036000F7680A3A02EB420293409F438B6893403E
:100370001F43F76008E0376902EB420293409F4356
:100380008B6893401F4337610A68102A01D0112AF5
:1003900020D1124B02689A4217D193681B0219D4DC
:1003A000936843F4000393600968102912D10C4943
:1003B0000C4A0968B1FBF2F101EB8101490000E050
:1003C000491E00910029FBD104E0816A41F020011F
:1003D0008162012480F824502046F8BD00240140A9
:1003E0000C00002040420F002DE9F0414FF00007C3
:1003F00004003D467ED0A06A002628B9E66284F853
:100400002460204600F07EF82046FFF741FFA16AF5
:10041000C90600D420B1A06A40F01000A06269E0D3
:10042000A16A21F4885141F00201A1626268E16988
:10043000237B0A4347EA43010A43A1684FF48077CC
:10044000B94209D0012907D05FF0000194F814C027
:10045000BCF1010F02D00AE03946F7E7F3B1A36A15
:1004600043F02003A362E36A43F00103E3622368DD
:10047000D3F804C02CF4694C4CEA010CC3F804C056
:1004800021688B68DFF870C003EA0C0313438B60AC
:10049000A168B9420BD0012909D00CE0DFF85CC09B
:1004A000A3690CEB43330B4343F40061DFE7218A7C
:1004B0000D05A5F580152168CB6A23F470032B4345
:1004C000CB62216889680E4B1940914208D1E662DF
:1004D000A16A21F0020141F00101A162BDE8F081B1
:1004E000A06A20F0020040F01000A062E06A40F034
:1004F0000100E0620120F1E7FDF7E1FF00E0FFFF0E
:10050000FE0E1FFF00B585B0002100910191029100
:10051000039100680E49884218D10E48816941F460
:1005200000718161816901F400710491816941F078
:10053000040181618069694600F004000490022092
:10054000009003200190044800F01AF805B000BDA7
:1005500000240140001002400008014070B504462C
:1005600000F0FEF80546601C02D004480078044400
:1005700000F0F6F8401BA042FAD370BD0000002046
:100580002DE9F84FDFF8B8910024A9F1040B2346B8
:100590000F2709F1040AABF1040EC9E00125A540BB
:1005A0002A40AA427DD1674ED1F804C0ACEB0608C0
:1005B000B44532D014DCBCF1030F3AD009DCBCF1F5
:1005C000000F2AD0BCF1010F1CD0BCF1020F31D1B9
:1005D0001DE0BCF1110F17D0BCF1120F2AD119E0A8
:1005E000B8F5881F19D006DCB8F5803F15D0B8F5EE
:1005F000801F1FD111E0B8F5001F0ED0B8F5041F01
:1006000018D10AE0CB6815E0CB681B1D12E0CB685F
:1006100008330FE0CB680C330CE08B682BB1012B57
:100620004FF0080303D0456104E0042302E00561B4
:1006300000E00023FF2A01D8064601E000F104068D
:100640004FEA840501D9A5F12005D6F8008007FA04
:1006500005FC28EA0C0803FA05F548EA0508C6F87F
:1006600000804D68ED0062D5374DAE6946F0010659
:10067000AE61AD6924F0030605F001050095334D28
:1006800006EB050CDCF80850A607360F07FA06F84B
:1006900025EA0805DFF8B880404503D14FF000088F
:1006A00017E044E0DFF8AC80404502D14FF001088C
:1006B0000FE0DFF8A480404502D14FF0020808E0C7
:1006C000DFF89880404502D14FF0030801E04FF079
:1006D000040808FA06F848EA0508CCF808804D68CE
:1006E000D9F80060ED024D4601D5164300E096436F
:1006F0002E604D68DAF80060AD02554601D516430C
:1007000000E096432E604D68DBF80060AD035D4667
:1007100001D5164300E096432E604D68DEF8006078
:10072000ED03754601D5164300E096432E60641C28
:100730000D682A46E5407FF431AFBDE8F88F000030
:1007400008040140000011100010024000000140A8
:1007500000080140000C014000100140001401405D
:1007600001488068704700000000002070B5040058
:1007700025D094F83D00002520B984F83C5020464F
:1007800000F04EF9242084F83D002068016821F033
:10079000010101602068016841F4004101602068A6
:1007A000016821F40041016000F0FEFA4D4A6168E1
:1007B000914201D84C4900E04C49884201D20120C5
:1007C00070BD4B492368B0FBF1F15E6826F03F062F
:1007D0000E435E606368934206D94FF496735943A3
:1007E0004FF47A73B1FBF3F12368491C1E6A26F0BB
:1007F0003F06314319626168914210D84900401E9A
:10080000B0FBF1F2521CC2F30B02042A01D2042005
:1008100022E0B0FBF1F0401CC0F30B001CE0A2682A
:10082000F2B301EBC10303EB0116431EB3FBF6F376
:100830005B1C43F480431B0549D092B301EBC1021A
:1008400002EB0111401EB0FBF1F0401CC0F30B00A5
:1008500040F4804040F400402168CA694CF6FF73C0
:100860009A431043C861D4E9071001432068026825
:1008700022F0C00211430160D4E903010143206862
:10088000826848F2FF339A4311438160D4E905013D
:1008900008432168CA6822F0FF021043C86001E0E3
:1008A0000EE016E02068016841F001010160256456
:1008B000202084F83D00256384F83E50002070BD60
:1008C00001EB4106431EB3FBF6F35B1CB3E70120CB
:1008D000C2E701EB4101401EB0FBF1F0401CC0F348
:1008E0000B00B7E7A086010080841E0000093D00D0
:1008F00040420F002DE9F84F1F4690468A460446B5
:10090000DDF82890FFF72CFF054694F83D002028DD
:100910007FD11923012240492046009500F0B0FC08
:10092000002876D194F83C00012872D0012084F888
:100930003C0020680168C90703D1016841F001014A
:1009400001602068016821F400610160212084F8C1
:100950003D00102084F83E0000262664C4F8248060
:100960006785608D20852D48E0622B464A465146BA
:10097000204600F00BFC90B9206841698069009026
:1009800036E02A464946204600F020FD50B1206C52
:10099000042804D12068016841F40071016001203D
:1009A000BDE8F88F606A216800780861606A401CC1
:1009B0006062618D491E6185218D491E89B2218544
:1009C00022685369DB435B070BD451B10078106197
:1009D000606A401C6062608D401E6085208D401EF4
:1009E00020852A464946204600F01EFC0028CED12C
:1009F000208D0028C5D154F83D0B016841F40071E9
:100A00000160202004F81E09E67766770020C7E71A
:100A1000FFE70220C4E70000020010000000FFFF13
:100A200010B586B0002100910191029103910068F8
:100A30000F4988421AD10F4CA06940F00800A0610C
:100A4000A069694600F008000490C02000901220C0
:100A50000190032003900848FFF792FDE06940F4FD
:100A60000010E061E06900F40010049006B010BDD1
:100A70000054004000100240000C01400248816810
:100A8000027811448160704700000020074810B5CB
:100A9000016841F010010160032000F067F80F20A9
:100AA00000F006F800F024F8002010BD00200240FD
:100AB00070B50D4D04464FF47A712878B1FBF0F013
:100AC0000A490968B1FBF0F000F034FB48B9102C7A
:100AD00007D200222146501E00F028F800206C604A
:100AE00070BD012070BD0000000000200C0000203F
:100AF0000C4808B5816941F001018161816901F00B
:100B000001010091C16941F08051C161C06900F0EB
:100B1000805000900448416821F0E06141F000718C
:100B2000416008BD0010024000000140F0B40E4BCF
:100B30001B680C46C3F30223C3F10705042D00D93B
:100B40000425191D072901D2002300E0DB1E012620
:100B500006FA05F1491E214099409E40761E164036
:100B60003143F0BC00F0C0BC0CED00E0064900F0E1
:100B7000070208684FF6FF03184040EA0220034AC4
:100B800010430860704700000CED00E00000FA051B
:100B90002DE9F84305460078354CC00754D0E0698C
:100BA0000026C00008D4E06940F08050E061E069B0
:100BB000012600F0805000902E480168C90512D42B
:100BC0000168804641F480710160FFF7C9FD074666
:100BD00005E000BFFFF7C4FDC01B642823D8D8F888
:100BE0000000C005F6D5206A10F4407021D0A98815
:100BF00001F4407181421CD0206A1F49012220F477
:100C000040700A6000220A602062C00711D0FFF71E
:100C1000A7FD074641F2883808E000BFFFF7A0FDB6
:100C2000C11B414502D90320BDE8F883206A800733
:100C3000F4D5206A696820F44070084320621EB130
:100C4000E06920F08050E0612878800705D5606871
:100C5000A96820F44040084360602878C00605D5A4
:100C60006068E96820F48000084360600020DBE7EA
:100C70000010024000700040400442422DE9F0475D
:100C80000F46050061D0434E306800F00700B842BF
:100C900009D2306820F0070038433060306800F037
:100CA0000700B84251D128683B4C810712D5400754
:100CB00003D5606840F4E06060602878000703D5E1
:100CC000606840F4605060606068A96820F0F000DF
:100CD000084360602878C00728D06868012810D0D1
:100CE0002168022810D0890700292EDA616821F0D6
:100CF000030101436160FFF733FD804641F288390B
:100D00000DE021688903EFE78901EDE7FFF728FD92
:100D1000A0EB0801494502D90320BDE8F0876068CF
:100D2000696800F00C00B0EB810FEFD1306800F083
:100D30000700B8420BD9306820F007003843306014
:100D4000306800F00700B84201D00120E5E72878BC
:100D5000400705D56068E96820F4E06008436060FA
:100D60002878000706D56068296920F4605040EAB9
:100D7000C100606000F028F86168084AC1F30311FF
:100D8000515CC8400649086006480068FFF790FEBD
:100D90000020C2E70020024000100240CE160008EA
:100DA0000C00002004000020044805490068496840
:100DB000044AC1F30221515CC84070470C00002076
:100DC00000100240DE1600080E4A51680E4801F07D
:100DD0000C03042B11D0082B0FD10C48C1F3834313
:100DE000C903C05C0AD55168084AC1F34041921E4C
:100DF000515C054A5043B0FBF1F070470449484349
:100E0000704700000010024000127A00BE16000871
:100E100000093D002DE9F84F040070D02078C04D46
:100E2000C00749D06868C0F38100012807D068680E
:100E3000C0F38100022809D16868C00306D528687C
:100E4000800339D560680028E7D035E06068B0F5E8
:100E5000803F0BD010B1B0F5A02F11D0286820F43E
:100E600080302860286820F4802002E0286840F460
:100E700080302860606890B1FFF772FC06460AE097
:100E8000286840F480202860F0E700BFFFF768FC86
:100E9000801B642873D828688003F7D50CE0FFF71F
:100EA0005FFC064605E000BFFFF75AFC801B642884
:100EB000F0D828688003F7D420789A4E80074FF046
:100EC00001094FF0000839D5686810F00C0F07D001
:100ED0006868C0F38100022809D16868C00306D49D
:100EE0002868800714D52069012808D110E02069FE
:100EF000B0B1C6F80090FFF733FC074605E00AE101
:100F0000FFF72EFCC01B0228C4D828688007F7D53D
:100F10002868616920F0F80040EAC10028600DE00F
:100F2000C6F80080FFF71CFC074604E0FFF718FC3A
:100F3000C01B022823D828688007F7D42078000730
:100F40002CD57948A169D9B1C0F80090FFF708FC09
:100F5000074604E0FFF704FCC01B02280FD8686AAC
:100F60008007F7D571484FF4FA510068B0FBF1F0F3
:100F7000009000BF0098411E0091FAD20EE080E080
:100F8000C0F80080FFF7ECFB074604E0FFF7E8FB42
:100F9000C01B022875D8686A8007F7D420784007FC
:100FA00060D5E8690027C00008D4E86940F08050A7
:100FB000E861E869012700F0805000905C48016812
:100FC000C90513D40168834641F480710160FFF7BD
:100FD000C7FB824606E000BFFFF7C2FBA0EB0A009A
:100FE00064284ED8DBF80000C005F5D5E06801287C
:100FF0000AD008B1052813D0286A20F00100286221
:10100000286A20F0040002E0286A40F0010028620B
:10101000E06841F2883B98B1FFF7A2FB82460BE003
:10102000286A40F004002862EEE700BFFFF798FB53
:10103000A0EB0A0159455AD8286A8007F6D50CE07A
:10104000FFF78EFB824605E0FFF78AFBA0EB0A0163
:1010500059454CD8286A8007F6D41FB1E86920F0BA
:101060008050E861E06988B36968C1F381010229B1
:1010700044D00228C6F8608004D0FFF771FB044614
:1010800038E034E0FFF76CFB074604E0FFF768FB4D
:10109000C01B02282BD828688001F7D4206AB0F53D
:1010A000803F05D16868A16820F40030084368607B
:1010B000D4E908010843696821F4741108436860A1
:1010C000C6F86090FFF74CFB044606E025E000BF41
:1010D000FFF746FB001B022809D828688001F7D5D6
:1010E0001BE000BFFFF73CFB001B022802D90320D6
:1010F000BDE8F88F28688001F4D40EE00128F7D00D
:101100006868226A00F48031914204D1616A00F477
:101110007010884201D00120EAE70020E8E70000D3
:101120000010024000004242800442420C000020B5
:101130000070004010B5401EB0F1807F01D3012047
:1011400010BD4FF0E02460610F21601700F0CCF972
:101150000020A06107202061002010BDFEE701688B
:101160004A69D24352050FD46FF480624A6100216C
:1011700040F8301F202242738173026942F004025A
:10118000026101730120704700207047F8B50446E2
:10119000C06A1E460D461746082807D0012805D00C
:1011A00010F5803F02D0206B122804D1206801681E
:1011B00041F480710160134600224FF00111204676
:1011C000009600F05DF840B120680068C00502D5C7
:1011D0004FF4007020640320F8BD2069B0F5804F03
:1011E0000ED00620216800EAD51040F0F00008611A
:1011F00033463A460B49204600F08AF878B902E0B7
:1012000005F0FE0000E0E8B22168086105493346B8
:101210003A46891F204600F07BF80028DCD00120E8
:10122000F8BD00000800010070B516460D460446E2
:101230001EE02046FFF793FF08B1012070BD681C37
:1012400016D0FFF78DFA801BA84200D885B9206818
:101250004069C04340070BD5002044F8300F2021DF
:101260006173A073216941F0200121612073E4E7DB
:1012700020684069C0434007DBD4002070BD0000F7
:101280002DE9F047984617460D460446C1F3074638
:10129000DDF820902AE000BFB8F1FF3F26D0FFF72D
:1012A0005FFAA0EB0901414502D8B8F1000F1DD14A
:1012B0002068012E16D0806925EA00000004000C89
:1012C00012D00020B84211D1002044F8300F202164
:1012D0006173A073216941F0200121612073012015
:1012E000BDE8F0874069E7E70120EBE72068012EC1
:1012F0000AD0806925EA00000004000C06D0002016
:10130000B842C9D00020EBE74069F3E70120F7E7D6
:101310002DE9F047984616460D4604464FF0000961
:101320004FF0200AC1F3074723E020684069C0431B
:10133000400515D42068016841F4007101602168FE
:101340006FF480604861C4F8309084F83DA084F860
:101350003E90216C41F00401216484F83C9021E02E
:10136000701C06D0FFF7FCF9A0EB0800B04203D8D0
:1013700016B1012F1FD021E02068012F15D0806900
:1013800025EA00000004000C18D000BF44F8309F8C
:1013900084F80DA084F80E90216941F020012161AC
:1013A00084F80C900120BDE8F087406925EA000030
:1013B0000004000CEAD12068406901E020688069DF
:1013C00025EA00000004000CAFD1ECE770B516462A
:1013D0000D4604461EE02046FFF7C1FE08B101207D
:1013E00070BD681C16D0FFF7BBF9801BA84200D85F
:1013F00085B920684069C04300060BD5002044F839
:10140000300F20216173A073216941F02001216117
:101410002073E4E720684069C0430006DBD4002065
:1014200070BD00003EB50024104800940194029461
:101430000D498460016004730475012505614FF452
:1014400060214460C161FEF7CFFF08B172B6FEE7CC
:101450000095CDE9015469460448FEF747FF00288E
:1014600001D072B6FEE73EBD00240140100000200E
:10147000FEE7FEE770477047FFF700BB30B593B05B
:1014800028216846FEF7A0FE14210AA8FEF79CFE5C
:10149000002401200F94022504900095102011943F
:1014A00005901094129407946846FFF7B3FC08B1B6
:1014B00072B6FEE70F20CDE90A040C940D940021CA
:1014C0000AA80E94FFF7DAFB08B172B6FEE70FA880
:1014D0000F951194FFF75CFB002801D072B6FEE770
:1014E00013B030BD7047FEE70907090E002804DB82
:1014F00000F1E02080F80014704700F00F0000F1C8
:10150000E02080F8141D704710B53220FFF726F850
:10151000302000F041F80520FFF720F8302000F0DF
:101520003BF80120FFF71AF8302000F035F80A20C8
:10153000FFF714F8202000F02FF80A20FFF70EF82C
:10154000282000F029F80120FFF708F8082000F013
:1015500023F80120FFF702F8012000F01DF8012018
:10156000FEF7FCFF0120FEF7F9FF062000F014F85B
:101570000120FEF7F3FFBDE810400C2000F00CB88E
:1015800010B1012805D102E041F0800101E041F0F5
:10159000C001C8B2AFF300801CB500F0F00141F00B
:1015A0000C028DF8042041F0080100018DF80510AF
:1015B00040F00C018DF8061040F008008DF807008F
:1015C00064200090042301AA4E210248FFF792F9FB
:1015D0001CBD0000400000201CB500F0F00141F0EF
:1015E0000D028DF8042041F0090100018DF805106D
:1015F00040F00D018DF8061040F009008DF807004D
:1016000064200090042301AA4E210248FFF772F9DA
:101610001CBD00004000002010B5044602E0641C20
:10162000FFF7DAFF20780028F9D110BD08B5FFF7E1
:101630002DFAFFF723FF1C48816941F020018161E9
:10164000816901F020010091816941F0040181610B
:10165000816901F004010091816941F00801816113
:10166000806900F008000090FFF7DCFE10480F4989
:101670004FF4804201600F49416000218160C0E960
:10168000031241618161C1610162FFF76FF808B126
:1016900072B6FEE7FFF738FF00210846FFF770FF3C
:1016A00005A0FFF7B9FFFEE700100240005400401C
:1016B00040000020A0860100504F540001020203A8
:1016C0000405060708090A0B0C0D0E0F1010000088
:1016D00000000000000001020304060708090000E2
:1016E00000000102030400000817000800000020A9
:1016F0001000000028010008181700081000002042
:10170000E80600004401000801000000100000008D
:081710000000000000127A0045
:04000005080000ED02
:00000001FF
